:0400000042EF00F0DB
:100008009EA220D01750010A1AE1030E006E165066
:10001800005C02E11550E80807E2030E165C02E1F5
:10002800FC0E155CD8A083701650030A02E1FC0E82
:10003800151805E1CA948390176A156A166A154A55
:10004800162A9E92F2A208D01750000A02E1CA842A
:0A0058008372010E176EF292110080
:10006200F28EF28CF288F18EF18C0F0EC16E070EB9
:10007200B46ECA6A9D82950ECB6E95909592176A60
:0200820012006A
:04008400EEDFFFD7D5
:020000040030CA
:0E000000210E1F1EFF8381FF0FC00FE00F4077
:00000001FF
