:10000000D20B04000000000000000000000000000F
:1000100000000000000000000000000000000000E0
:1000200000000000000000000000000000000000D0
:10003000000000007E0B0000000000000000000037
:1000400000000000460B000000000000000000005F
:100050000000000000000000000000001E0D000075
:100060000000000000000000000000000000000090
:100070000000000000000000000000000000000080
:100080000000000000000000000000000000000070
:100090000000000000000000000000000000000060
:1017A4000FCE2000F0FF200020A0B7000000200092
:1017B40034A0B700400020004420B7000800FA001D
:1017C4007E0D0200000000003FFF0700E0A720009C
:1017D400104078006004E1000A003A0011E1A8001A
:1017E40094E0A8000020EF00E0538800CBC2A900D9
:1017F4000020EF00D05388000020EF000041880053
:1018040084003700D7FE07000020EF00F040880076
:10181400F1408000C01220000008E1007B0031008C
:10182400F0408000C100DD002082200081014000E2
:1018340013017800F11F200060812000010861007D
:1018440093007800002020000008E1000B00310024
:10185400F0408000C100DD002082200081004000B3
:1018640000202000110050004100DD001101400063
:10187400E11F20006081200001086100B040800069
:101884006500E1000F003600B1408000C0812000F7
:101894001008E10003003600B0408000E0408800FA
:1018A40007003700E040800065005000E0408800F9
:1018B4006000E10002003100B0408000E040880098
:1018C400020037000020EF00E0408800E040800084
:1018D4008000EB0059FD070090408800A14088007B
:1018E4007240800083408000E8FB070002A22500CC
:1018F40083B02300C4FC0700000798001107980078
:10190400C0408000D140800002A2250083B823009B
:10191400BDFC07000E0190009E019000DBFB070058
:101924002007980031079800304080004140800033
:1019340042652F00E3FE2B00B3FC0700000798006C
:10194400110798002E009000BE009000829FBE00F8
:101954000E0190009E0190007DFE07004F01BE0025
:1019640020079800310798005040800061408000B3
:1019740002E1200003F62300A3FC070000079800FF
:10198400110798002E009000BE009000829FBE00B8
:101994000E0190009E0190006DFE07004F01BE00F5
:1019A400104088002140880032408000434080007D
:1019B40052408800634088003040880041408800DD
:1019C400C2408000D3408000724088008340880079
:1019D40092408000A3408000C2408800D340880029
:1019E4001FFE070000408800F14080004109DD002F
:1019F40001A82000828040008008780011002000A7
:101A0400E08120001088400081FF370005E1A80034
:101A14009460A80038002000578D20000E20ED00AF
:101A2400FEFF3A001020ED00FCFF3A0067FF37008C
:081A34000080FA00FFFF3700FB
:1014CC00407420009040780000CEB30080C06000D3
:1014DC0040742000014878006002200046A7B70045
:1014EC004074200090407800F0C3B30080C06000CE
:1014FC004074200001487800E0FF2F002CA3B700B7
:10150C00C002A800C022A900C082A90000002800C7
:10151C00C8A2B7002143A90001198000F0CF2F0009
:10152C000080600020A3B7002063A90021A3A900BC
:10153C002043A8000032200090407800F0C1B30096
:10154C0080C0600000322000014878001119800032
:10155C00F0FF21000080600022A3B7001119800069
:10156C00F0CF2F000080600022A3B7002343A90016
:10157C00203220009040780030CCB30080C0600056
:10158C0020322000014878002223A9002203A90060
:10159C0025E3A90020C0B300804078004032200031
:1015AC0090C06800F0CFB30080C0600040322000D3
:1015BC0090C06800403220000148780000202000D4
:1015CC0080007800403220009080680000F02100FC
:1015DC0080806000403220009080680021198800D3
:1015EC002823EF002623EF003023EF0021E3A8008F
:1015FC000000280004A1B7009460A9008460A90031
:10160C00800C200002A1B7000000280010A1B70038
:10161C0094E0A90084E0A900401F20000CA1B700B1
:10162C0000C6B30080407800A00A200090C068007B
:10163C0000C7B30080C06000A00A200090C0680002
:10164C00A00A200001487800210580000000270036
:10165C0000807000A4A0B700000025008000780076
:10166C00600A2000908068000000270080806000E5
:10167C00600A200090806800310588000000060098
:00168C005E
:101368000400FA008A1F78008B1F78008C1F780011
:10137800FB002000AA2C20000AFE0700CCCCB300FA
:10138800FB002000AA2C200096FF07004CC4B300E5
:10139800FB002000AA2C200092FF070057532000D2
:1013A8000E20ED00FEFF3A0000000000FB002000C8
:1013B800AA2C2000FBFD0700CCCCB300FB002000CA
:1013C800AA2C200087FF0700ECCBB300FB0020000D
:1013D800AA2C200083FF0700575320000E20ED00A1
:1013E800FEFF3A0000000000FB002000AA2C2000AD
:1013F800ECFE07008082FB00FB002000AA2C2000E6
:10140800E8FE07000080FB004800DD000500400002
:101418000001780001E0AE00020037000420EF0070
:10142800000037004410DE0080017800EF00610002
:10143800102720000008B800831F78008000EB0008
:101448007DFE070002002400C361240073FC07002E
:10145800CF01780000079800110798000300780072
:101468008000EB0074FE07000E0190009E019000C2
:1014780005FD0700E0668800F16688000200280084
:101488008338240065FC07000200200003F82300CD
:10149800FDFC07000005BE00E0FE0700A2992B0036
:1014A800533A2400D7FD0700C0668800D16688003B
:1014B8004F067800CF0578004F0578000080FA00C5
:0414C800000006001A
:100BAC000000FA00100020000B00DD0000017800AE
:100BBC008080EA00810178006200450010886000A6
:100BCC006200550010886100EFFF070062005500BD
:100BDC0010087100E6FF07001A0061006000E100D8
:100BEC000060EF00010032000060EC008080FB0030
:100BFC00E5FF0700010078000080FA000000060005
:000C0C00E8
:100B9400A7A021000E20ED00FEFF3A000000000097
:080BA400000000000000060043
:100B7C00A74220000E20ED00FEFF3A00000000000E
:080B8C0000000000000006005B
:1011EC000000FA00100020000B00DD000001780068
:1011FC008080EA000620EF006718E10012003E0034
:10120C000C80FB000300DE000080FB00610260002C
:10121C006200450010886000620055001088600074
:10122C000800E20002003200620055001008710054
:10123C004FFE0700620055001008710047FE0700C2
:10124C000620EC00ECFF3700BEFC0700BDFC0700DD
:08125C000080FA00000006000A
:100B6800D70020000E20ED00FEFF3A000000000034
:040B78000000060073
:10055000A72920000E20ED00FEFF3A000000000059
:0805600000000000000006008D
:100FAC000000FA00100020000B00DD0000017800AA
:100FBC008080EA000820EF000620EF006718E100AF
:100FCC0012003E006200450010886000620055006F
:100FDC0010886000E1FE07006200550010087100E7
:100FEC00DEFE07001A006100040032001000200031
:100FFC000300DD00000272000000370051FD070005
:10100C0050FD07000620EC00ECFF37000440780090
:08101C000080FA00000006004C
:101024000C00FA008C1F78008A9FBE000420EF0099
:101034000620EF000A00BE0029FD07000000E000C2
:101044000060EF0001003C000060EC004F05BE00B2
:101054000040E200030032000020EF000220EF0015
:101064005E0037000A0798001B0798008A9FBE009D
:101074000200200003F823000A00BE0018FD070048
:101084000000E0000060EF0001003D000060EC00A3
:101094004F05BE000040E200090032008A9FBE00F6
:1010A4000E0190009E0190000000200001F8230032
:1010B4005BFD07004F05BE0000079800110798006C
:1010C4006A0047008A9FBE00000678000E05900063
:1010D4009E05900007FD07005E0190004191DE002F
:1010E400020678000005BE001EFD07004F05BE0085
:1010F40000079800110798008A9FBE000200200094
:1011040003F823000A00BE00F5FC07000000E0001D
:101114000060EF0001003D000060EC004F05BE00E0
:101124000040E200090032008A9FBE000E019000D8
:101134009E0190000000200001F8230038FD070004
:101144004F05BE00000798001107980040012000D9
:10115400400798008A9FBE000E0190009E019000F7
:101164000A00BE002EFD07000E0190009E019000B3
:10117400C6FD0700020020000300240028FD07002C
:1011840020079800310798000E0190009E019000FE
:10119400D3FC07000000E0000060EF0001003A000B
:1011A4000060EC004F05BE000040E2000100320088
:1011B400080037002E009000BE0090000007980041
:1011C400110798004E0090000020ED0040079800A1
:1011D400E0FF3A000E0090009E0090004F06780059
:0811E4000080FA000000060083
:1004F8000400FA000A0798001B0798009E00900065
:1005080000F8270080806000C708DE00E0072000B0
:1005180000805000000E780001F0230062004700C0
:100528009080680000F82700808060006200470023
:1005380090806800110798000E0090009E009000BF
:080548000080FA00000006002B
:100568000400FA000A0798001B0798009E009000F4
:1005780000F82700008060004700DE000000460009
:10058800000678006000E10003003D000020EF0055
:100598000220EF001F003700F00F20000060E1008C
:1005A800100034000420EF000620EF000A00BE000F
:1005B800CAFF07000000E0000060EF0001003D00F6
:1005C8000060EC000040E20003003200F0FF2F0062
:1005D800F1F72F000F003700F0FF2F00F1F7270089
:1005E8000C00370070C0B3000000FB008060DD0025
:1005F800620047009080680000F827008080600053
:100608006200470090806800110798000E00900073
:0C0618009E0090000080FA000000060028
:1004E4000000FA0014002000C4FF07000080FA0096
:0404F40000000600FE
:100400000000FA00020007006E0204000000000075
:10041000841F7800140007004F007800110033009B
:10042000F0FF2F00838F6C0006003B000405650081
:100430000A00A7000800370009F0A60010002000FD
:1004400008003700820F5400838F5C0003003900DE
:100450001000200001003E000000200009F0A7006D
:100460000000EA00000006000084BE00060007004D
:100470000083BE000485BE000280BE0002000700AB
:10048000844F750000000600C70ADE00F107B200C5
:10049000F50FB20008003200E1CF42000200320046
:1004A00002E0A80024000500810F70000100320066
:1004B0000408050044000500810F700002003A00A6
:1004C000140005008502E9000000400081C04800DA
:1004D000FCFF3B0002E0A800240005000080FA00B9
:0404E0000000060012
:100624000000FA0002000700440404000000000077
:10063400889FBE008A9FBE008C1F78003E00070082
:100644004500330003866C006450E1002E00320044
:100654006420E100330032006150E1002F003200D9
:100664006120E1003100320085855500EB07B000C0
:100674000900200008042000050037000804440095
:1006840089844C000A0031000603430087834B0031
:100694000001530081815B00F8FF33000283BE0038
:1006A4001000A8000804440089844C00F6FF3900B7
:1006B400C639DD00830173000100320013002000FD
:1006C4008904D1000884D3000998A30005003200EE
:1006D4000800A7000600A8008904D1000884D300FC
:1006E4008B05E8008904D1000884D3000001EB00E5
:1006F4000281D2002800070001F0A1000CF0A7003D
:1007040003E0A8001D0037006420E1001F00320050
:100714000881BE000280BE00F7FF37006120E100BF
:100724001A0032006000B800F3FF37000000200018
:1007340001F82700F0FF37000084BE003C000700EA
:100744000083BE000485BE000280BE00380007009E
:10075400844F7500000006000280BE006450E10072
:10076400050036006420E100020036000968A30099
:1007740001003A000880BE0002C0A8004F067800BD
:100784004F05BE004F04BE0000000600F0FF2F001E
:10079400F1FF2700F9FF3700810020006180550038
:1007A4000B003D000B00200061FE2F000100E10062
:1007B4001D00340082817100610164008904D1004C
:1007C4000884D3000000E800FAFF3A00710020001A
:1007D4006100640003007000020060000900320040
:1007E40061044400E0844C000988A500050032003F
:1007F4008B05E8006808E10002003A008904D10092
:100804000884D300F20F20000258E10005003D00E7
:10081400C75DDD00F907B200898075000800880013
:10082400000006000BF827001B00880000000500EC
:10083400C70ADE00F107B200F50FB200080032006B
:10084400E1CF42000200320002E0A80024000500CB
:10085400810F700001003200040805004400050007
:10086400810F700002003A00140005008502E900BF
:100874000000400081C04800FCFF3B0002E0A800EB
:0C088400240005000080FA0000000600BF
:100890000000FA0002000700B0050400000000009C
:1008A000889FBE008A9FBE008C1F780059000700F9
:1008B000600033006450E1004F0032006420E1002A
:1008C0005200320003826C0007003B000905D00093
:1008D0000306D000820F54000C065D0002003900B0
:1008E0000200320039008800C3008800858255006C
:1008F00004003D000003FD008103FD008502EA00C5
:100900008B854200840F720002003B0060001000E3
:10091000E08018006011B8000005EB007A28E100C3
:100920000A00390006008800C75DDD00F707B20045
:10093000878075002D003700828171002A008800B1
:10094000610560008180D1000080D3008502E9004C
:10095000F9FF3B00060440008784480002003B008A
:1009600060041400E0841C000988A3000700320022
:100970008A81710082817100610164008904D10063
:100980000884D3008B05E800170037000978A3001E
:1009900013003A001600E200130034008B05E90052
:1009A0000804440089844C000A4474000978A300B8
:1009B0000D003A001600E200070034008B05E90044
:1009C0000804440089844C0001003A000B00200018
:1009D0000978A300F7FF32000001EB0002003700A6
:1009E000828171002A008800220007000CF0A70015
:1009F00003E0A800180037006420E10002003A007C
:100A0000838F6C00180033000881BE000280BE0096
:100A1000110037000084BE003C0007000083BE00C8
:100A20000485BE000280BE0038000700844F7500B8
:100A3000000006000280BE006450E10005003600A0
:100A40006420E100020036000968A30001003A00BA
:100A50000880BE0002C0A8004F0678004F05BE0007
:100A60004F04BE0000000600F0FF2F00F1FF27003A
:100A7000F9FF370081002000618055000B003D0028
:100A80000B00200061FE2F000100E1001D0034007A
:100A900082817100610164008904D1000884D3005F
:100AA0000000E800FAFF3A007100200061006400D5
:100AB000030070000200600009003200610444007D
:100AC000E0844C000988A500050032008B05E80091
:100AD0006808E10002003A008904D1000884D300CC
:100AE000F20F20000258E10005003D00C75DDD0067
:100AF000F907B20089807500080088000000060030
:100B00000BF827001B00880000000500C70ADE0064
:100B1000F107B200F50FB20008003200E1CF420049
:100B20000200320002E0A80024000500810F7000DE
:100B3000010032000408050044000500810F700028
:100B400002003A00140005008502E90000004000A0
:100B500081C04800FCFF3B0002E0A8002400050023
:080B60000080FA00000006000D
:100E40000000FA0002000700D207040000000000C2
:100E50000400E20006003A000005EB000200E20098
:100E60000F003E000000E200270032000C003700B7
:100E7000A10088000200E2000400350008003C00E8
:100E80000000E20020003200050037006000100082
:100E9000E080180002003B0001F02C001A0037002F
:100EA0000084BE006011B8006B0920000982CF00E9
:100EB000020039000882CF000441B00069425200AC
:100EC0000E00320008003B00828171006101640065
:100ED0008904D1000884D3008B05E8000442E800AF
:100EE000F9FF3A00050037000804440089844C00EB
:100EF0008B05E9000442E900FBFF3A00030007000C
:100F00000AF0A70003E0A80000000600810020000E
:100F1000618055000B003D000B00200061FE2F009A
:100F20000100E1001D003400828171006101640054
:100F30008904D1000884D3000000E800FAFF3A00D9
:100F40007100200061006400030070000200600076
:100F50000900320061044400E0844C000988A500C7
:100F6000050032008B05E8006808E10002003A0045
:100F70008904D1000884D300F20F20000258E10058
:100F800005003D00C75DDD00F907B20089807500EE
:100F900008008800000006000BF827001B008800EE
:0C0FA000000005000080FA0000000600C0
:100C0C000000FA00020007001C07040000000000AE
:100C1C00889FBE008A9FBE008C1F780030000700A2
:100C2C003700330003866C006450E100240032006E
:100C3C006420E100270032006150E1002200320004
:100C4C006120E100210032008B854200EB07B100EE
:100C5C000134B800003AB8000804420089844A0004
:100C6C00013AB8000030B8008880400009014A0001
:100C7C00040033000000400081804800020149005C
:100C8C008B05E900C909DD00830170000100320009
:100C9C0013002000C814DE004814DD004709DE00F4
:100CAC001200B200C808DE0008847000240007009F
:100CBC0001F0A1000CF0A70003E0A8001900370018
:100CCC006120E1001B0032000881BE000280BE00E2
:100CDC00F7FF37006150E100FCFF3A0015003700C8
:100CEC000084BE003C0007000083BE000485BE00EB
:100CFC000280BE0038000700844F7500000006001B
:100D0C000280BE006450E100050036006420E10062
:100D1C00020036000968A30001003A000880BE00FA
:100D2C0002C0A8004F0678004F05BE004F04BE005D
:100D3C0000000600F0FF2F00F1FF2700F9FF37003D
:100D4C0081002000618055000B003D000B0020004D
:100D5C0061FE2F000100E1001D0034008281710052
:100D6C00610164008904D1000884D3000000E8000C
:100D7C00FAFF3A007100200061006400030070006B
:100D8C00020060000900320061044400E0844C0061
:100D9C000988A500050032008B05E8006808E10011
:100DAC0002003A008904D1000884D300F20F20001D
:100DBC000258E10005003D00C75DDD00F907B200F7
:100DCC008980750008008800000006000BF82700D9
:100DDC001B00880000000500C70ADE00F107B20006
:100DEC00F50FB20008003200E1CF420002003200E1
:100DFC0002E0A80024000500810F70000100320001
:100E0C000408050044000500810F700002003A0040
:100E1C00140005008502E9000000400081C0480074
:100E2C00FCFF3B0002E0A800240005000080FA0053
:040E3C0000000600AC
:101354000000FA0007E0AA004CFD07000080FA0034
:04136400000006007F
:101264000000FA0002000700A609040000000000C4
:101274000081BE001F0007000470A70003F0A10056
:101284006509B100160032000D0035006828E10040
:1012940006003500F0FF2F00F1FF27000600E200F2
:1012A40013003B000100280000000500000040007E
:1012B400818048008502E900FCFF3A0008003700FD
:1012C400F88F420002003C008000EB0000000500A3
:1012D4008100D1000080D3008502E800FCFF3A00C1
:1012E4000600E20002003B0060001000E0801800ED
:1012F40000000600C70ADE00F107B200F50FB200D5
:1013040008003200E1CF42000200320002E0A800EF
:1013140024000500810F700001003200040805005C
:1013240044000500810F700002003A00140005001B
:101334008502E9000000400081C04800FCFF3B003A
:1013440002E0A800240005000080FA000000060066
:0013540099
:101AFC000180200000D628000E000900B0187800E4
:041B0C0000000600CF
:101A3C003400F8003600F800801F780020002000E9
:101A4C000C000900B01F7800D1538000C012200098
:101A5C000008E1000A003100D0538000C100DD0015
:101A6C0020822000810040000083BF0080087800A5
:101A7C0011002000A0A720001088400005003700AE
:101A8C00E1A7200010C0B3008048780005E1A90050
:101A9C009460A90085A0A900A00120000C000900F9
:101AAC004F1078004F0078003600F9003400F90030
:041ABC0000400600E0
:10168C003400F8003600F800801F7800200020009D
:10169C000C000900B01F7800C482AA00E05380003F
:1016AC007400E10002003100CBC2AA000500370033
:1016BC00CBC2A90094E0A90005E1A8009460A800A1
:1016CC0095A0A80011002000C0A7200010884000A1
:1016DC0084E0A900A00120000C0009004F10780044
:1016EC004F0078003600F9003400F9000040060085
:0016FC00EE
:1016FC003400F8003600F800801F7800200020002D
:10170C000C000900B01F7800C422AA00E0A720003A
:10171C00104078006004E10001003A002023A90089
:10172C00E0A72000104078006104E10012003A00AC
:10173C0001418000C01220000008E1000A003100C5
:10174C0000418000C100DD0000A820000100400025
:10175C0010007800CCA2B7001100200000822000FD
:10176C001088400004003700E1A720000020EF00A3
:10177C00804878009460A9008460A900A001200032
:10178C000C0009004F1078004F0078003600F9006B
:08179C003400F90000400600D2
:041AC0000000000022
:081AC40000000000000000001A
:081ACC00000000000000000012
:081AD40000000000000000000A
:081ADC00000000000000000002
:081AE4000000000000000000FA
:041AEC0000000000F6
:081AF0000000000000000000EE
:041AF80000000000EA
:0200000401F009
:200000000F000000FFFF00000700000083000000A50000005F000000F7000000C30000008B
:00000001FF
