:10000000E0120400000000000000000000000000FA
:1000100000000000000000000000000000000000E0
:1000200000000000000000000000000000000000D0
:1000300000000000C01200000000000000000000EE
:10004000000000007C120000000000000000000022
:10005000000000000000000000000000B2130000DB
:100060000000000000000000000000000000000090
:100070000000000000000000000000000000000080
:100080000000000000000000000000000000000070
:100090000000000000000000000000000000000060
:1025C0000FB52000F0FF200020A0B7000000200081
:1025D00034A0B700400020004420B70026140200B9
:1025E000000000008A1F78008B1F78008C1F780085
:1025F000A3FD07000A5822000B00200008FC07007A
:1026000058012000B78525000E20ED00FEFF3A009E
:102610001020ED00FCFF3A000A802000A2FF070016
:102620000020EF000220EF00205988003159880077
:102630000020EF000220EF008059880091598800A7
:102640000020EF000220EF00A0598800B159880057
:102650000020EF000220EF006059880071598800C7
:1026600051B020000020EF008048780050B02000DA
:10267000104078006504E1000C003D0063FE070097
:10268000A2598000B3598000C0588000D158800002
:10269000B1F70700A0598800B159880011C0B300F4
:1026A00050B0200010C84000F0FF370002002000AA
:1026B000030A2400A0598000B159800000F90700E6
:1026C0006059880071598800F7FD07000000240058
:1026D000C149240040598800515988000200240053
:1026E000C349240060598000715980009AF707009F
:1026F000205988003159880002002400C369240051
:10270000EFF80700625880007358800044FA070011
:1027100080598800915988002C8320002A59800014
:102720003B5980003FFC07008C8320008A598000C1
:102730009B5980003BFC070038002000578D20008B
:102740000E20ED00FEFF3A001020ED00FCFF3A00E5
:10275000B3FF37004F067800CF0578004F057800AB
:04276000FFFF370040
:101C8000407420009040780000CEB30080C0600017
:101C900040742000014878006002200046A7B70089
:101CA0004074200090407800F0C3B30080C0600012
:101CB0004074200001487800E0FF2F002CA3B700FB
:101CC000C002A800C082A800C9C2A900C9E2A90038
:101CD000C8E2A8002143A90001198000F0CF2F001D
:101CE0000080600020A3B7002063A90021A3A90001
:101CF0002043A8000032200090407800F0C1B300DB
:101D000080C0600000322000014878001119800076
:101D1000F0FF21000080600022A3B70011198000AD
:101D2000F0CF2F000080600022A3B7002343A9005A
:101D3000203220009040780030CCB30080C060009A
:101D400020322000014878002223A9002203A900A4
:101D500025E3A90020C0B300804078004032200075
:101D600090C06800F0CFB30080C060004032200017
:101D700090C0680040322000014878000020200018
:101D800080007800403220009080680000F0210040
:101D90008080600040322000908068002119880017
:101DA0002823EF002623EF003023EF0021E3A800D3
:101DB0000000280004A1B7009460A9008460A90075
:101DC000800C200002A1B7000000280010A1B7007D
:101DD00094E0A90084E0A9008200A90000C6B30035
:101DE00080407800A00A200090C0680000C7B300BF
:101DF00080C06000A00A200090C06800A00A2000F7
:101E00000148780021058000000027000080700054
:101E1000A4A0B7000000250080007800600A200020
:101E2000908068000000270080806000600A200029
:101E3000908068003105880040C0B3008040780081
:101E4000400A200090C06800E7C06000400A2000FF
:101E500090C06800400A200001487800C0C0B3006C
:101E600080407800406A200090C06800FFC0600099
:101E7000406A200090C06800406A20000148780055
:101E80000030200080007800C06C20009080680046
:101E900000F0210080806000C06C2000908068000D
:081EA000613688000000060015
:101620000800FA00C027200010428800F0FF2F00B9
:1016300020428800F0FF2F0000428800F0FF2F00BA
:10164000F04188002022EF000000280022A2B7000D
:101650002062A9005DFF07000001BE00803E20005F
:1016600001002000FBFE07000001BE005AFF07003A
:101670004100DE0064004000800078006000470008
:101680000A88BE008100E900030035001018D00070
:101690001090D200FBFF3700829FBE008A9FBE00E1
:1016A0000200BE000E0190009E0190000002EB00BF
:1016B000F1FE07004F05BE004F01BE002007980055
:1016C000310798008A9FBE000200BE000E01900004
:1016D0009E0190000002EB0013FF07004F05BE00C3
:1016E0008001780001027800600047005001D100BD
:1016F000C080D300640047003008E1002090E10082
:101700000700310061804100E0004A00800278005B
:101710000103780005017800860178000200370097
:1017200003017800840178000280710033003A00E0
:1017300026FF07000001BE00803E200001002000BF
:10174000C4FE07000001BE0023FF07004100DE00C9
:1017500000A0EC0080007800600047000A88BE000E
:101760008100E900030035001018D0001090D2006D
:10177000FBFF3700829FBE000200BE000E019000FA
:101780009E0190000002EB00BBFE07004F01BE006F
:1017900020079800310798000200BE000E0190005B
:1017A0009E0190000002EB00DFFE07008001780040
:1017B00001027800600047005001D100C080D300D2
:1017C000640047003008E1002090E100070031008C
:1017D00061804100E0004A00800278000103780047
:1017E00005017800860178000200370003017800C7
:1017F000840178002062A8000000370061005100D9
:10180000E0805900401188002222A90021E2A800AE
:101810002342A800F2FE0700F1FE07000080FA0054
:0418200000000600BE
:0C13CC0000882300110020000000060033
:0813D8002000200000000600C7
:1013E00058012000B78525000E20ED00FEFF3A00D1
:0C13F0001020ED00FCFF3A000000060099
:101254000000FA00020AB800500088000200B8003A
:1012640081004200032AB800810042000080FA0095
:041274000000060070
:101278000000FA00020007009009040000000000C6
:101288000800E20002003A00100007000000060013
:10129800811F78000200E20002003D00600010009B
:1012A800E08018000600E20002003D006001110025
:1012B800E0811900050007004F00E00002003B0034
:1012C80060001000E080180000000600020007001F
:1012D8000480BE00000006006022B800060220005C
:1012E8000000D0008180D2000482D2008582D20022
:1012F8000000A8000202520083825A0003003B004B
:101308000202420083824A000000A1000603E900AD
:10131800F3FF3A00000006000080FA000000060013
:00132800C5
:101328000000FA0002000700E209040000000000C3
:101338000800E20002003A00100007000000060062
:10134800839F68000200E20002003D006000100078
:10135800E08018000600E20002003D006001110074
:10136800E0811900050007004F00E00002003B0083
:1013780060001000E0801800000006006022B8003D
:10138800060220000000D0008180D2000482D20032
:101398008582D2000000A8000202520083825A000F
:1013A80003003B000202420083824A000000A100C1
:1013B8000603E900F3FF3A00000006000080FA0087
:0413C800000006001B
:1024A8000200FA0000002000004798001A40780057
:1024B8006004E1000C0032008A1F78000085FB00F0
:1024C800CCFB07004F0578000E4090000060EC0040
:1024D800004798000080FB0000004500904078000D
:1024E80001407800F2FF37000080FA000000060083
:0024F800E4
:1013FC000000FA0010428000000001000080FA009A
:04140C0000000600D6
:1004F8000000FA002302AF0001003700FDFF3700BB
:0C0508002A1188000080FA0000000600A4
:10200C000C00FA000020EF0050588800CBC2A90049
:10201C0011E1A9001021EF000621EF00401F200064
:10202C000CA1B70094E0A80011E1A8000020EF007B
:10203C00A05888000020EF00B058880040B0200065
:10204C00104078006104E10001003200FBFF370012
:10205C0040B02000104078006104E10088003A0094
:10206C0060842000801F7800E0152000801F78001D
:10207C0080842000801F780054FD07006F00B100A1
:10208C008041880060B02000801F7800E01520009F
:10209C00801F780080842000801F7800D9FC070006
:1020AC006F00B10030418800018320001100100046
:1020BC004101DE0001832000A080200011081100E6
:1020CC000020EF004058880041588000E0152000A7
:1020DC000008E1006A00310040588000C100DD00BA
:1020EC00808420008101400013017800A180200031
:1020FC00A08120001108510093007800A0802000DE
:10210C001008E1000B00310040588000C100DD00D8
:10211C00808420008100400050408000110050005D
:10212C004100DD0011014000A1802000A0812000B1
:10213C0011085100D04080008000EB00C3FC070068
:10214C00604188007141880032408000434080002B
:10215C00FEF8070002482E0023B92300ADFB070050
:10216C00000798001107980090408000A140800063
:10217C0002482E0023C12300A6FB07000E0190008D
:10218C009E019000F1F80700200798003107980095
:10219C007040800081408000623C2A0063FE2B006E
:1021AC009CFB070000079800110798002E00900078
:1021BC00BE009000829FBE000E0190009E01900018
:1021CC00FDFC07004F01BE00200798003107980066
:1021DC00B0408000C1408000F2EA2D0013F52300CE
:1021EC008CFB070000079800110798002E00900048
:1021FC00BE009000829FBE000E0190009E019000D8
:10220C00EDFC07004F01BE004041880051418800A1
:10221C007240800083408000B2408800C340880038
:10222C00704088008140880092408000A34080006C
:10223C003240880043408800624180007341800036
:10224C0092408800A3408800C1F9070060408800D4
:10225C00415880004109DD008184200082804000CB
:10226C008008780041B0200020C0B300804878007E
:10227C001100200080B020001088400092FF370031
:10228C0040B02000104078006204E10081003A0068
:10229C000020EF000220EF00C0598800D1598800BF
:1022AC000020EF000220EF00E0598800F15988006F
:1022BC000020EF000220EF00405A8800515A88009D
:1022CC000020EF000220EF00605A8800715A88004D
:1022DC000020EF000220EF00205A8800315A8800BD
:1022EC0000B42000801F7800E0152000801F7800CB
:1022FC0080842000801F7800B4FC07006F00B100C0
:10230C008000EB0051FC0700400798005107980033
:10231C00E0598800F1598800005A8000105A880052
:10232C00005A8000E500500001598800005A8000D6
:10233C00650040000007980010598800C108DD00B6
:10234C008084200001014000120078008000EB0026
:10235C003EFC07002007980031079800C059880000
:10236C00D15988000E009000C100DD00808420004F
:10237C0001004000100078008000EB0033FC0700E7
:10238C000007980011079800809FBE000E00900077
:10239C009E009000405A8800515A88004F00BE00A1
:1023AC002E009000BE009000829FBE000E01900097
:1023BC009E01900080FC07004F01BE004E01900072
:1023CC00DE019000200798003107980000002000E3
:1023DC00010024000FFB070000079800110798006C
:1023EC00C0598000D1598000829FBE000E01900020
:1023FC009E01900070FC07004F01BE00425A800005
:10240C00535A800051F807000200200003002400FA
:10241C0000FB070000079800110798002E009000A1
:10242C00BE009000829FBE000E0190009E019000A5
:10243C00A0F907004F01BE00605A8800715A88004D
:10244C0002002000030A2400F2FA07000200200018
:10245C00030A2400EFFA0700205A8800315A88003A
:10246C00105A80008000EB00F8FB070002002000EF
:10247C00030A2400E7FA0700E0588800F1588800A6
:10248C00225A8000335A800030F80700C058880068
:0C249C00D15888000080FA000000060003
:1015D8000000FA002EB997003EB89700CEB89700E1
:1015E800B10278000009EB000002E90007003400AE
:1015F800B10178000328E10002003C005300880094
:10160800040950000402E900F9FF3C0005008800C5
:081618000080FA00000006004A
:101410000000FA002EB997003EB89700CEB89700AA
:10142000B10278000009EB000002E9000700340077
:10143000B10178000328E100020035005300880064
:10144000040950000402E900F9FF3C00050088008F
:081450000080FA000000060014
:101458000000FA0002000700DE0A04000000000095
:101468000400E20006003A000005EB000200E2007A
:101478000F003E000000E200270032000C00370099
:10148800A10088000200E2000400350008003C00CA
:101498000000E20020003200050037006000100064
:1014A800E080180002003B0001F02C001A00370011
:1014B8000084BE006011B8006B0920000982CF00CB
:1014C800020039000882CF000441B000694252008E
:1014D8000E00320008003B00828171006101640047
:1014E8008904D1000884D3008B05E8000442E80091
:1014F800F9FF3A00050037000804440089844C00CD
:101508008B05E9000442E900FBFF3A0003000700ED
:101518000AF0A70003E0A8000000060081002000F0
:10152800618055000B003D000B00200061FE2F007C
:101538000100E1001D003400828171006101640036
:101548008904D1000884D3000000E800FAFF3A00BB
:101558007100200061006400030070000200600058
:101568000900320061044400E0844C000988A500A9
:10157800050032008B05E8006808E10002003A0027
:101588008904D1000884D300F20F20000258E1003A
:1015980005003D00C75DDD00F907B20089807500D0
:1015A80008008800000006000BF827001B008800D0
:0C15B800000005000080FA0000000600A2
:1015C4000000FA0007E0AA00E2FB07000080FA002E
:0415D400000006000D
:100558000000FA0002000700140404000000000074
:10056800889FBE008A9FBE008C1F78005900070034
:10057800600033006450E1004F0032006420E10065
:100588005200320003826C0007003B000905D000CE
:100598000306D000820F54000C065D0002003900EB
:1005A8000200320039008800C300880085825500A7
:1005B80004003D000003FD008103FD008502EA0000
:1005C8008B854200840F720002003B00600010001F
:1005D800E08018006011B8000005EB007A28E100FF
:1005E8000A00390006008800C75DDD00F707B20081
:1005F800878075002D003700828171002A008800ED
:10060800610560008180D1000080D3008502E90087
:10061800F9FF3B00060440008784480002003B00C5
:1006280060041400E0841C000988A300070032005D
:100638008A81710082817100610164008904D1009E
:100648000884D3008B05E800170037000978A30059
:1006580013003A001600E200130034008B05E9008D
:100668000804440089844C000A4474000978A300F3
:100678000D003A001600E200070034008B05E9007F
:100688000804440089844C0001003A000B00200053
:100698000978A300F7FF32000001EB0002003700E1
:1006A800828171002A008800220007000CF0A70050
:1006B80003E0A800180037006420E10002003A00B7
:1006C800838F6C00180033000881BE000280BE00D2
:1006D800110037000084BE003C0007000083BE0004
:1006E8000485BE000280BE0038000700844F7500F4
:1006F800000006000280BE006450E10005003600DC
:100708006420E100020036000968A30001003A00F5
:100718000880BE0002C0A8004F0678004F05BE0042
:100728004F04BE0000000600F0FF2F00F1FF270075
:10073800F9FF370081002000618055000B003D0063
:100748000B00200061FE2F000100E1001D003400B5
:1007580082817100610164008904D1000884D3009A
:100768000000E800FAFF3A00710020006100640010
:1007780003007000020060000900320061044400B8
:10078800E0844C000988A500050032008B05E800CC
:100798006808E10002003A008904D1000884D30007
:1007A800F20F20000258E10005003D00C75DDD00A2
:1007B800F907B2008980750008008800000006006B
:1007C8000BF827001B00880000000500C70ADE00A0
:1007D800F107B200F50FB20008003200E1CF420085
:1007E8000200320002E0A80024000500810F70001A
:1007F800010032000408050044000500810F700064
:1008080002003A00140005008502E90000004000DB
:1008180081C04800FCFF3B0002E0A800240005005E
:080828000080FA000000060048
:101020000000FA000200070026090400000000008A
:10103000889FBE008A9FBE008C1F7800300007008A
:101040003700330003866C006450E1002400320056
:101050006420E100270032006150E10022003200EC
:101060006120E100210032008B854200EB07B100D6
:101070000134B800003AB8000804420089844A00EC
:10108000013AB8000030B8008880400009014A00E9
:101090000400330000004000818048000201490044
:1010A0008B05E900C909DD008301700001003200F1
:1010B00013002000C814DE004814DD004709DE00DC
:1010C0001200B200C808DE00088470002400070087
:1010D00001F0A1000CF0A70003E0A8001900370000
:1010E0006120E1001B0032000881BE000280BE00CA
:1010F000F7FF37006150E100FCFF3A0015003700B0
:101100000084BE003C0007000083BE000485BE00D2
:101110000280BE0038000700844F75000000060002
:101120000280BE006450E100050036006420E1004A
:10113000020036000968A30001003A000880BE00E2
:1011400002C0A8004F0678004F05BE004F04BE0045
:1011500000000600F0FF2F00F1FF2700F9FF370025
:1011600081002000618055000B003D000B00200035
:1011700061FE2F000100E1001D003400828171003A
:10118000610164008904D1000884D3000000E800F4
:10119000FAFF3A0071002000610064000300700053
:1011A000020060000900320061044400E0844C0049
:1011B0000988A500050032008B05E8006808E100F9
:1011C00002003A008904D1000884D300F20F200005
:1011D0000258E10005003D00C75DDD00F907B200DF
:1011E0008980750008008800000006000BF82700C1
:1011F0001B00880000000500C70ADE00F107B200EE
:10120000F50FB20008003200E1CF420002003200C8
:1012100002E0A80024000500810F700001003200E8
:101220000408050044000500810F700002003A0028
:10123000140005008502E9000000400081C048005C
:10124000FCFF3B0002E0A800240005000080FA003B
:041250000000060094
:100AC0000000FA0002000700920604000000000087
:100AD000889FBE008A9FBE008C1F78003E000700E2
:100AE0004500330003866C006450E1002E003200A4
:100AF0006420E100330032006150E1002F00320039
:100B00006120E1003100320085855500EB07B0001F
:100B100009002000080420000500370008044400F4
:100B200089844C000A0031000603430087834B0090
:100B30000001530081815B00F8FF33000283BE0097
:100B40001000A8000804440089844C00F6FF390016
:100B5000C639DD008301730001003200130020005C
:100B60008904D1000884D3000998A300050032004D
:100B70000800A7000600A8008904D1000884D3005B
:100B80008B05E8008904D1000884D3000001EB0044
:100B90000281D2002800070001F0A1000CF0A7009C
:100BA00003E0A8001D0037006420E1001F003200B0
:100BB0000881BE000280BE00F7FF37006120E1001F
:100BC0001A0032006000B800F3FF37000000200078
:100BD00001F82700F0FF37000084BE003C0007004A
:100BE0000083BE000485BE000280BE0038000700FE
:100BF000844F7500000006000280BE006450E100D2
:100C0000050036006420E100020036000968A300F8
:100C100001003A000880BE0002C0A8004F0678001C
:100C20004F05BE004F04BE0000000600F0FF2F007D
:100C3000F1FF2700F9FF3700810020006180550097
:100C40000B003D000B00200061FE2F000100E100C1
:100C50001D00340082817100610164008904D100AB
:100C60000884D3000000E800FAFF3A007100200079
:100C7000610064000300700002006000090032009F
:100C800061044400E0844C000988A500050032009E
:100C90008B05E8006808E10002003A008904D100F1
:100CA0000884D300F20F20000258E10005003D0047
:100CB000C75DDD00F907B200898075000800880073
:100CC000000006000BF827001B008800000005004C
:100CD000C70ADE00F107B200F50FB20008003200CB
:100CE000E1CF42000200320002E0A800240005002B
:100CF000810F700001003200040805004400050067
:100D0000810F700002003A00140005008502E9001E
:100D10000000400081C04800FCFF3B0002E0A8004A
:0C0D2000240005000080FA00000006001E
:10095C000000FA000200070022050400000000005D
:10096C000081BE001F0007000470A70003F0A10067
:10097C006509B100160032000D0035006828E10051
:10098C0006003500F0FF2F00F1FF27000600E20003
:10099C0013003B000100280000000500000040008F
:1009AC00818048008502E900FCFF3A00080037000E
:1009BC00F88F420002003C008000EB0000000500B4
:1009CC008100D1000080D3008502E800FCFF3A00D2
:1009DC000600E20002003B0060001000E0801800FE
:1009EC0000000600C70ADE00F107B200F50FB200E6
:1009FC0008003200E1CF42000200320002E0A80001
:100A0C0024000500810F700001003200040805006D
:100A1C0044000500810F700002003A00140005002C
:100A2C008502E9000000400081C04800FCFF3B004B
:100A3C0002E0A800240005000080FA000000060077
:000A4C00AA
:101EA8000400FA008A1F78008B1F78008C1F7800C6
:101EB8001B0020002A2C2000E2FA0700CCCCB3003B
:101EC8001B0020002A2C200008FC07004CC4B3008B
:101ED8001B0020002A2C200004FC07005753200078
:101EE8000E20ED00FEFF3A00000000001B0020005D
:101EF8002A2C2000D3FA0700CCCCB3001B0020000A
:101F08002A2C2000F9FB0700ECCBB3001B002000B3
:101F18002A2C2000F5FB0700575320000E20ED0067
:101F2800FEFF3A00000000001B0020002A2C2000C1
:101F38001BFC07008082FB001B0020002A2C2000CD
:101F480017FC07000080FB004800DD00050040008A
:101F58000001780001E0AE00020037000420EF0025
:101F6800000037004410DE0080017800EF006100B7
:101F7800102720000008B800831F78008000EB00BD
:101F880033FD070002002400C3612400CAFA0700D9
:101F9800CF01780000079800110798000300780027
:101FA8008000EB002AFD07000E0190009E019000C2
:101FB80067F90700805888009158880002002800B7
:101FC80083382400BCFA07000200200003F823002D
:101FD8005FF907000005BE0052FB0700A2992B001D
:101FE800533A24000CFC0700605888007158880098
:101FF8004F067800CF0578004F0578000080FA007A
:0420080000000600CE
:100A4C000000FA00100020000B00DD00000178000F
:100A5C008080EA0081017800620045001088600007
:100A6C006200550010886100B2FE0700620055005C
:100A7C00100871006BFF07001A0061006000E100B4
:100A8C000060EF00010032000060EC008080FB0091
:100A9C00A8FE0700010078000080FA0000000600A4
:000AAC004A
:10054000A7A021000E20ED00FEFF3A0000000000F1
:0805500000000000000006009D
:10083000A74220000E20ED00FEFF3A00000000005D
:080840000000000000000600AA
:100EF4000000FA00100020000B00DD000001780063
:100F04008080EA000620EF006718E10012003E002E
:100F14000C80FB000300DE000080FB006102600027
:100F2400620045001088600062005500108860006F
:100F34000800E2000200320062005500100871004F
:100F44003AFE0700620055001008710070FD0700AA
:100F54000620EC00ECFF370072FD070071FD07006E
:080F64000080FA000000060005
:10051400D70020000E20ED00FEFF3A00000000008E
:0405240000000600CD
:10052800A72920000E20ED00FEFF3A000000000081
:080538000000000000000600B5
:100FA8000000FA00100020000B00DD0000017800AE
:100FB8008080EA000820EF000620EF006718E100B3
:100FC80012003E0062004500108860006200550073
:100FD800108860004DFD0700620055001008710080
:100FE8004AFD07001A0061000400320010002000CA
:100FF8000300DD00000272000000370048FD070012
:1010080047FD07000620EC00ECFF3700044078009D
:081018000080FA000000060050
:100D2C000C00FA008C1F78008A9FBE000420EF0094
:100D3C000620EF000A00BE00E7FD07000000E000FF
:100D4C000060EF0001003C000060EC004F05BE00AD
:100D5C000040E200030032000020EF000220EF0010
:100D6C005E0037000A0798001B0798008A9FBE0098
:100D7C000200200003F823000A00BE00D6FD070085
:100D8C000000E0000060EF0001003D000060EC009E
:100D9C004F05BE000040E200090032008A9FBE00F1
:100DAC000E0190009E0190000000200001F823002D
:100DBC0040FF07004F05BE00000798001107980080
:100DCC006A0047008A9FBE00000678000E0590005E
:100DDC009E05900099FE07005E0190004191DE0097
:100DEC00020678000005BE00AAFE07004F05BE00F3
:100DFC0000079800110798008A9FBE00020020008F
:100E0C0003F823000A00BE00B3FD07000000E00059
:100E1C000060EF0001003D000060EC004F05BE00DB
:100E2C000040E200090032008A9FBE000E019000D3
:100E3C009E0190000000200001F823001DFF070018
:100E4C004F05BE00000798001107980040012000D4
:100E5C00400798008A9FBE000E0190009E019000F2
:100E6C000A00BE0013FF07000E0190009E019000C7
:100E7C00B6FD070002002000030024000DFF070050
:100E8C0020079800310798000E0190009E019000F9
:100E9C0091FD07000000E0000060EF0001003A0047
:100EAC000060EC004F05BE000040E2000100320083
:100EBC00080037002E009000BE009000000798003C
:100ECC00110798004E0090000020ED00400798009C
:100EDC00E0FF3A000E0090009E0090004F06780054
:080EEC000080FA00000006007E
:100848000400FA000A0798001B0798009E00900011
:1008580000F8270080806000C708DE00E00720005D
:1008680000805000000E780001F02300620047006D
:100878009080680000F827008080600062004700D0
:1008880090806800110798000E0090009E0090006C
:080898000080FA0000000600D8
:1008A0000400FA000A0798001B0798009E009000B9
:1008B00000F82700008060004700DE0000004600CE
:1008C000000678006000E10003003D000020EF001A
:1008D0000220EF001F003700F00F20000060E10051
:1008E000100034000420EF000620EF000A00BE00D4
:1008F000FCFE07000000E0000060EF0001003D008A
:100900000060EC000040E20003003200F0FF2F0026
:10091000F1F72F000F003700F0FF2F00F1F727004D
:100920000C00370070C0B3000000FB008060DD00E9
:10093000620047009080680000F827008080600017
:100940006200470090806800110798000E00900038
:0C0950009E0090000080FA0000000600ED
:1004E4000000FA0014002000C4FF07000080FA0096
:0404F40000000600FE
:100400000000FA00020007006E0204000000000075
:10041000841F7800140007004F007800110033009B
:10042000F0FF2F00838F6C0006003B000405650081
:100430000A00A7000800370009F0A60010002000FD
:1004400008003700820F5400838F5C0003003900DE
:100450001000200001003E000000200009F0A7006D
:100460000000EA00000006000084BE00060007004D
:100470000083BE000485BE000280BE0002000700AB
:10048000844F750000000600C70ADE00F107B200C5
:10049000F50FB20008003200E1CF42000200320046
:1004A00002E0A80024000500810F70000100320066
:1004B0000408050044000500810F700002003A00A6
:1004C000140005008502E9000000400081C04800DA
:1004D000FCFF3B0002E0A800240005000080FA00B9
:0404E0000000060012
:101824000600FA008A1F78008B1F78000000200051
:101834004047980000002000504798000A0798008D
:101844001B0798000E0190009E019000F0FF2F00EE
:10185400F1FF2F000010E1000198E10005003A00BB
:10186400EB8120000C057800BFFD070030C0B300F9
:10187400FE00370016C0B30060004700630040005C
:101884001040780000E0AE000D0037006000470013
:10189400630140009280FB00000820000080680083
:1018A40000497800E1404300D0C2B300004E780004
:1018B400610046000006780001427800010037000C
:1018C400064278000E0090009E0090006000E10047
:1018D4006088E10005003A00CB8120000C05780007
:1018E400A1FD07000020EF00E00037000E0190008A
:1018F4009E0190000000200001F827000010E10084
:101904000198E10005003A002B8220000C057800C4
:1019140095FD070004407800D40037008C1F780040
:101924008A9FBE000200200003F823000E009000EE
:101934009E009000EAFA07000000E0000060EF005B
:1019440001003D000060EC004F05BE004F0678002A
:101954000040E2000F0032008C1F78008A9FBE0016
:101964000E0090009E00900002002000031224004C
:10197400AAFD07004F05BE004F0678000007980037
:1019840011079800DE4090006500470061C85000D0
:10199400E2FF37008C1F78008A9FBE0002002000FF
:1019A400031224000E0090009E0090003EFC0700ED
:1019B4000000E0000060EF00010035000060EC0072
:1019C4004F05BE004F0678000040E2000F003200D1
:1019D4008C1F78008A9FBE000E0090009E0090002D
:1019E400D2CC2C00C3DC23008CFD07004F05BE00C5
:1019F4004F0678000007980011079800DE40900019
:101A04006500470061C84000E2FF370060014700FD
:101A14003200D000A280D20000079800110798007D
:101A2400600047006300400090407800F0C7B300B6
:101A340000C1500060004700E300400010C0B30044
:101A4400804878008281FB00600147001200BE00DC
:101A54008301E900030035000000D0008180D2003A
:101A6400FBFF37000007980011079800600047004B
:101A740063004000010320001080FB000080400050
:101A8400004E780061004600000678005E40900039
:101A94006104E100040035005E4090006604E1004A
:101AA40001003C0006003700E0C2B300004E78009D
:101AB400610046000006780010C0B300404798005B
:101AC40065C0B300602CE1002C00320060004700C8
:101AD400E30040000020EF008048780060004700E9
:101AE400B001D0002082D2008301D0000482D20051
:101AF4006001470032804100A2004A0000079800BC
:101B040011079800600147003200D000A280D20083
:101B14000007980011079800600047006300400028
:101B2400010320001080FB0000804000004E78007C
:101B340061004600000678004E4090006004E10019
:101B44000B003A005E4090000060ED0050479800A2
:101B54006004E10006003A00E0C2B300004E7800E1
:101B6400610046000006780010C0B30040479800AA
:101B740061C0520080427800D2FF3700F0FF2F008E
:101B8400000046009040780000C3B300000CE10060
:101B940003003A006100560000067800F7FF3700A2
:101BA400F0FF2F000000460090407800E0C2B30030
:101BB400000CE10002003A006100560000067800C3
:101BC4005E4090006004E1002500320050C6B3007E
:101BD400004E780061004600000678005E409000E8
:101BE4006004E10007003D00D0C2B300004E78005D
:101BF4006100460000067800DE4090006500470062
:101C040060C81000DE4190005E4090006904E1006D
:101C14000A0036000380FB00A20020001100090026
:101C24000200D8008000780000032000010040007A
:101C3400004E780061004600000678000380FB0037
:101C4400A2002000110009000200D80000032000B7
:101C540001004000004E7800610046000006780054
:101C64000020EF00004E78000020EF00CF05780040
:0C1C74004F0578000080FA000000060018
:100F6C000000FA000A00780000017800E10140005E
:100F7C008B0078006180450080057800114978006D
:100F8C001204E0000200320003007800F6FF370084
:0C0F9C000A0078000080FA000000060047
:100AAC000000FA00F4FF2F0052FE07000080FA004D
:040ABC000000060030
:10284C0001802000403F290018000900B0187800D2
:04285C000000060072
:102764003400F8003600F800801F780020002000B4
:102774000C000900B01F7800A1588000E01520006B
:102784000008E1000A003100A0588000C100DD000B
:1027940080842000810040000083BF00800878000E
:1027A4001100200040B120001088400005003700CF
:1027B40041B0200010C0B3008048780005E1A900B2
:1027C4009460A90085A0A900A00120000C000900C4
:1027D4004F1078004F0078003600F9003400F900FB
:0427E40000400600AB
:1024F8003400F8003600F800801F78002000200023
:102508000C000900B01F7800505880006A00E100F4
:1025180002003100CBC2AA000C003700CBC2A900D0
:1025280081062000A0B020001008E10007003A0052
:1025380094E0A90011E1A90095A0A8009460A80062
:102548000021EF008460A90005E1A8001100200027
:10255800A0B020001088400084E0A900A00120005D
:102568000C0009004F1078004F0078003600F90081
:082578003400F90000400600E8
:102580003400F8003600F800801F7800200020009A
:102590000C000900B01F7800CBE2AA002023A9009C
:1025A0008460A900A00120000C0009004F107800F1
:1025B0004F0078003600F9003400F90000400600B2
:0025C0001B
:0C27E800537400006172000074000000D7
:0827F4000000000000000000DD
:0427FC0000000000D9
:0428000000000000D4
:082804000000000000000000CC
:08280C000000000000000000C4
:082814000000000000000000BC
:04281C0000000000B8
:042820003000000084
:082824004E6100004E000000AF
:08282C00494E000046000000C7
:0428340000000000A0
:08283800000000000000000098
:08284000000000000000000090
:04284800000000008C
:0200000401F009
:200000000F000000FFFF00000700000083000000A50000005F000000F7000000C30000008B
:00000001FF
