:040000004BEF08F0CA
:1000080000C015F0E1CF16F0E2CF17F09EA231D074
:100018008372000E006E3A50005C02E139502B08E2
:100028001AE3441C006E00C044F000B002D0839074
:1000380001D08380000E3A1802E1190E391803E145
:10004800CD80CE6ACF6A000E3A1802E1160E391832
:10005800D8B4446A03D08390010E436E030E3A5C11
:1000680002E1200E395C02E3396A3A6A394A3A2ACF
:100078009E92F2A23CD03DC0E1FF3EC0E2FFCECF4F
:10008800E6FF010E3D24E16E000E3E20E26ECFCF6A
:10009800E6FF39C037F03AC038F04150395C456E58
:1000A80042503A58466E4350010A1CE1000E006E59
:1000B8003850005C02E137502B0814E246503818DB
:1000C80002E1375045180EE0000E461802E1020E14
:1000D800451808E03BC03FF03CC040F0CD903B6A7B
:1000E8003C6A436A39C041F03AC042F0F2929EB08D
:1000F8009E9015C000F016C0E1FF17C0E2FF110086
:100108000B820BAE8EEF00F003680268016800688E
:080118000A360232FF0E12004C
:0E012000026A016A006A086A036A000E120091
:10012E000B840BAEA2EF00F0010E036E026A016AA1
:0A013E00006A0A360232FF0E1200BA
:080148000AAE029E000E120037
:0601500000000000120097
:100156000F0E0C6E470E0D6E0D2EFED70C2EFCD715
:0601660000000000120081
:0A016C00210E0D6E0D2EFED71200BD
:100176000CB0FDEF00F00CA2A3EF01F00E6A000E2A
:10018600026414EF01F0F00E0214D8A4DFEF00F0C1
:10019600023A01380F0B02260138F00B016E0038C7
:1001A6000F0B01260038F00B006E08380F0B0026E7
:1001B6000838F00B086E0E84D89002BEF8EF00F0F7
:1001C60008360036013602360E2A02BEF8EF00F077
:1001D60008360036013602360E2A02BEF8EF00F067
:1001E60008360036013602360E2A0E50036499EFA1
:1001F60001F0035E0BBC08AE9EEF01F0D880800EC6
:1002060008640030000E002201220222D8A09EEFD0
:1002160001F0023201320032034AA3EF01F09EEFF1
:1002260001F001C002F000C001F008C000F0086A49
:10023600000E0E8602644BEF01F0F00E0214D8A4F5
:1002460033EF01F0023A01380F0B02260138F00BAA
:10025600016E00380F0B01260038F00B006E0E847D
:10026600D89002BEF8EF00F00036013602360E2AAC
:1002760002BEF8EF00F00036013602360E2A02BE44
:10028600F8EF00F00036013602360E2AF8EF00F0DD
:1002960001C002F000C001F0006A000E0E960E8842
:1002A600026478EF01F0F00E0214D8A463EF01F0B7
:1002B600023A01380F0B02260138F00B016E0E844C
:1002C600D89002BEF8EF00F0013602360E2A02BEC2
:1002D600F8EF00F0013602360E2A02BEF8EF00F003
:1002E600013602360E2AF8EF00F001C002F0016A6C
:1002F600000E0E860264A8EF01F0F00E0214D8A4D8
:1003060087EF01F0023A0E84D89002BEF8EF00F0B3
:1003160002360E2A02BEF8EF00F002360E2A02BEA0
:10032600F8EF00F002360E2AF8EF00F0010E0C6E20
:10033600FBDEABEF01F0020E0C6E03DFABEF01F05C
:10034600040E0C6EDEDEABEF01F0080E0C6EE5DE81
:02035600120093
:1003580059BE02D0839E01D0838E59BC02D0839CA3
:1003680001D0838C59BA02D0839A01D0838A59B8B4
:1003780002D0839801D0838836B002D0838401D01C
:1003880083948386E1DE839659B602D0839E01D09A
:10039800838E59B402D0839C01D0838C59B202D089
:1003A800839A01D0838A59B002D0839801D0838878
:1003B80036B002D0838401D083948386C5DE8396C9
:0C03C80036A002D0C4DE01D0CDDE120051
:1003D400086A096A000E076203646FEF02F00250B4
:1003E40006180A6E075003267E0ED8A000EF02F00E
:1003F400035ED8B073EF02F004EF02F0035ED8A0FE
:1004040077EF02F0028E068E02C00EF001C00BF0F0
:1004140000C00DF000500402F4CF0CF001500502AE
:10042400F4CF00F0F3CF08F00402F3500C26F4509C
:100434000822000E00220D500502F3500C26F45041
:100444000822000E002202500402F3500826F45041
:10045400002202500502016A000E0122F350002618
:10046400F45001220D500602F3500826F4500022E5
:10047400026A000E012202220B500602F3500026EB
:10048400F4500122000E02220E500602F3500126FF
:10049400F450022202BE57EF02F00836003601364D
:1004A40002360306D8B477EF02F06AEF02F0D88080
:1004B400800E08640030000E002201220222D8A01F
:1004C4006AEF02F0023201320032034A73EF02F0A3
:1004D4000AAE029E000E79EF02F0010E1FDE79EFE4
:1004E40002F0020E0FDE79EF02F0040E1EDE12009F
:1004F400086A080E0C6E003408360450085ED8B042
:0E05040002D00826D89000360C2EF5D7120033
:100512000A6A0350D8A40A800750D8A40A820A5053
:10052200D8B4ECEF02F0030AD8B4A5EF02F00AB097
:10053200A0EF02F006AEEAEF02F0E8EF02F002AE40
:10054200E8EF02F0EAEF02F00250800B0A6E029E20
:100552000650800B069E0A18D8B4B6EF02F00A5075
:10056200D8B4E8EF02F0EAEF02F00750035CD8B427
:10057200C0EF02F0D8A0DCEF02F0E2EF02F006508A
:10058200025CD8B4CAEF02F0D8A0DCEF02F0E2EFCE
:1005920002F00550015CD8B4D4EF02F0D8A0DCEF31
:1005A20002F0E2EF02F00450005CD8B4ECEF02F08B
:1005B200D8B0E2EF02F00A52D8B4EAEF02F0E8EF64
:1005C20002F00A52D8B4E8EF02F0EAEF02F0D88063
:0E05D2001200D8901200D880D88412001200B7
:1005E0000C6A0E6A0250D8A409EF03F001C002F0B1
:1005F00000C001F0006A0E860250D8A409EF03F093
:1006000001C002F0016A0E960E880250D8B41BEFAA
:1006100003F00E50035ED8A4D8A020EF03F0D890CA
:1006200002BE25EF03F0003601360236032E10EF2E
:1006300003F020EF03F0010E0C6E72DD28EF03F0E3
:10064000020E0C6E74DD28EF03F0040E0C6E7CDDE0
:02065000120096
:10065200025006180E6E086A096A0B6A0350076494
:100662001CEF04F006500A6E068E028E03500B6ECB
:100672000750036E000E0B646CEF03F00B50075E25
:10068200D8B40DEF04F0070E0764DBEF03F0075E4A
:1006920000C008F001C000F002C001F0026A074E7B
:1006A2000DEF04F00764B0EF03F0075E00C008F03E
:1006B20001C000F0016A074E0DEF04F007648EEFEF
:1006C20003F0075E00C008F0006A074E0DEF04F069
:1006D200076475EF03F00AC002F005C001F004C020
:1006E20000F0086A39EF05F0030E076480EF03F0AB
:1006F200075E08380F0B086E074E0DEF04F0D89016
:100702000832074E0DEF04F0D8900832074E0DEF75
:1007120004F0D89008320DEF04F0030E07649FEF47
:1007220003F0075E08380F0B086E0038F00B08263E
:1007320000380F0B006E074E0DEF04F0D890003218
:100742000832074E0DEF04F0D89000320832074EFF
:100752000DEF04F0D890003208320DEF04F0030ED2
:100762000764C7EF03F0075E08380F0B086E003806
:10077200F00B082600380F0B006E0138F00B002634
:1007820001380F0B016E074E0DEF04F0D8900132C5
:1007920000320832074E0DEF04F0D89001320032D9
:1007A2000832074E0DEF04F0D890013200320832C1
:1007B2000DEF04F0030E0764F8EF03F0075E08384C
:1007C2000F0B086E0038F00B082600380F0B006E76
:1007D2000138F00B002601380F0B016E0238F00BC6
:1007E200012602380F0B026E074E0DEF04F0D8906F
:1007F2000232013200320832074E0DEF04F0D89077
:100802000232013200320832074E0DEF04F0D89066
:100812000232013200320832096A000E0EAE01EFD6
:1008220005F0081E001E011E021E082A00220122D7
:10083200022201EF05F00750D8A422EF04F039EFAD
:1008420005F0096A02C00AF0028E068E0750035CA8
:10085200076ED8B4F4EF04F0070E0764C2EF04F099
:10086200075E0450096E0550046E0650056E066A56
:10087200074EF4EF04F0070E076497EF04F0075EEB
:100882000450096E0550046E056A074EF4EF04F039
:10089200070E076475EF04F0075E0450096E046AE0
:1008A200074EF4EF04F0070E07645CEF04F00AC091
:1008B20002F039EF05F0030E076467EF04F0075EFC
:1008C20009380F0B096E074EF4EF04F0D890093285
:1008D200074EF4EF04F0D8900932074EF4EF04F01B
:1008E200D8900932F4EF04F0030E076486EF04F0A7
:1008F200075E09380F0B096E0438F00B092604381D
:100902000F0B046E074EF4EF04F0D8900432093254
:10091200074EF4EF04F0D89004320932074EF4EF98
:1009220004F0D89004320932F4EF04F0030E0764A5
:10093200AEEF04F0075E09380F0B096E0438F00BB6
:10094200092604380F0B046E0538F00B042605380F
:100952000F0B056E074EF4EF04F0D8900532043207
:100962000932074EF4EF04F0D8900532043209320E
:10097200074EF4EF04F0D890053204320932F4EF56
:1009820004F0030E0764DFEF04F0075E09380F0B73
:10099200096E0438F00B092604380F0B046E053873
:1009A200F00B042605380F0B056E0638F00B0526F2
:1009B20006380F0B066E074EF4EF04F0D89006329D
:1009C200053204320932074EF4EF04F0D8900632B1
:1009D200053204320932074EF4EF04F0D8900632A1
:1009E200053204320932086A000E0EAE01EF05F03C
:1009F200091E041E051E061E092A042205220622BD
:100A020009500826045000220550012206500222F5
:100A12000EBE18EF05F0D8A027EF05F00232013222
:100A220000320832033E27EF05F033EF05F0D8B06D
:100A32002DEF05F0000E081E001E011E021E082AE0
:100A42000022012202220A7E2DEF05F0010E0C6E19
:100A5200BBEC00F03BEF05F0020E0C6EBBEC00F0BD
:100A62003BEF05F0040E0C6E84EC00F03BEF05F05A
:060A7200000E0C6E1200E4
:100A780055C004F056C005F004C002F005C003F0EC
:100A8800044A052A57C000F058C001F0574A582AAE
:100A980000C0E9FF01C0EAFF02C0E1FF03C0E2FFB6
:100AA800EECFE6FF02C0E9FF03C0EAFFEE5201E025
:0C0AB800E3D755C000F056C001F012005A
:0C0AC400369055C059F046DC3680120018
:100AD000959695949598959A959C959E83968394D2
:100AE000839E839C839A8398ABEC00F0ABEC00F080
:100AF000ABEC00F0838A83888386A8EC00F08396B1
:100B0000ABEC00F08386A8EC00F08396ABEC00F031
:100B10008386A8EC00F08396ABEC00F08398838684
:100B2000A8EC00F08396ABEC00F08386A8EC00F014
:100B30008396839A838E8386A8EC00F08396ABEC31
:100B400000F0839E83888386A8EC00F083968398C8
:100B50008386A8EC00F08396ABEC00F08386A8ECCB
:100B600000F0839683888386A8EC00F08396ABEC34
:100B700000F083988386A8EC00F08396838E838CA4
:100B8000838A83888386A8EC00F08396ABEC00F020
:040B90003680120099
:100B94000900F5CFE6FF0006FBE10106F9E11200CA
:100BA4000050086E0150006E016A026A036A0B6A03
:100BB4000C6A960E036E0A6A00C001F008C000F0C9
:080BC400086A026A0BDD120051
:100BCC000FD0800E476E19D0C00E476E16D0940E03
:100BDC00476E13D0D40E476E10D0800E476E0DD0DA
:100BEC004750010AEEE04750020AEEE04750030A74
:100BFC00EEE04750040AEEE0F0D74804006E475090
:100C0C00002600C047F000C059F0ACEC01F0369063
:100C1C004B6A4B504924E96E000E4A20EA6EEE52A4
:100C2C000BE04B504924E96E000E4A20EA6EEECFE1
:0C0C3C0055F042DF4B2AEDD73680120045
:100C4800536A546A47C04FF048C050F049C051F049
:100C58004AC052F05250FF0A08E15150FF0A05E11C
:100C68005050FF0A02E14F50FF0A0CE14BC055F00B
:100C78004CC056F01E0E576E000E586EF9DE030E6D
:100C8800006EEBD1010E4D6E51AE0ED0800E511894
:100C9800006E00C051F04D2A4BC0E1FF4CC0E2FF8E
:100CA8002D0EE66E4B4A4C2A000E006E521808E1D3
:100CB8000050511805E10050501802E14F50000A49
:100CC8000BE14BC055F04CC056F0260E576E000E87
:100CD800586ECEDE006AC1D15250FF0A08E1515069
:100CE800000A05E15050000A02E14F50000A0CE1E9
:100CF8004BC055F04CC056F0220E576E000E586E81
:100D0800B7DE4DC000F0A9D1000E046E000E056ECE
:100D1800000E066E7F0E076E4FC000F050C001F047
:100D280051C002F052C003F089EC02F0010ED8B0B5
:100D3800000E006E00521CE04FC000F050C001F0E1
:100D480051C002F052C003F0000E046E000E056E92
:100D5800200E066E820E076EEAEC01F000C04FF01E
:100D680001C050F002C051F003C052F05406CCD775
:100D7800000E046E000E056E200E066E820E076EC3
:100D88004FC000F050C001F051C002F052C003F053
:100D980089EC02F0000ED8B0010E006E00521CE083
:100DA8004FC000F050C001F051C002F052C003F033
:100DB800CD0E046ECC0E056E4C0E066E7B0E076EC5
:100DC800EAEC01F000C04FF001C050F002C051F051
:100DD80003C052F0542ACCD7FF0E4F14086EFF0EF2
:100DE8005014096E7F0E51140A6E000E52140B6EC9
:100DF80008C004F009C005F00AC006F00BC007F0EF
:100E080004360490053606360736000E4F14006E79
:100E1800000E5014016E000E5114026EFF0E521493
:100E2800036E00C04FF001C050F002C051F003C083
:100E380052F004504F10006E05505010016E0650CD
:100E48005110026E07505210036E00C04FF001C0DF
:100E580050F002C051F003C052F07F0E525C006E99
:100E680000C04EF0010E526E00C004F04FC000F0FA
:100E780050C001F051C002F052C003F0045007E026
:100E880000360090013602360336FF0FF8D700C04F
:100E98004FF001C050F002C051F003C052F04BC0F7
:100EA800E1FF4CC0E2FF5250300FE66E4B4A4C2A2D
:100EB800800E5418006E800E010A005C08E3800E54
:100EC800060A006E800E5418005C01E30AD04BC07D
:100ED800E1FF4CC0E2FF2E0EE66E4B4A4C2A010E93
:100EE800536E060E4E6E4E50000A54E0526A4FC0C2
:100EF80000F050C001F051C002F052C003F00036BB
:100F0800009001360236033600360090013602366C
:100F180003364F50002650500122515002225250A1
:100F2800032200C04FF001C050F002C051F003C0CE
:100F380052F04FC000F050C001F051C002F052C052
:100F480003F00036009001360236033600C04FF039
:100F580001C050F002C051F003C052F04BC0E1FF95
:100F68004CC0E2FF5250300FE66E4B4A4C2A5350A9
:100F7800000A0EE154065450000A0AE14BC0E1FF92
:100F88004CC0E2FF2E0EE66E4B4A4C2A010E536E01
:100F98004E06A9D7FF0E4B24E96EFF0E4C20EA6ED1
:100FA800EE50300A05E1010E4B5E000E4C5AF2D7A6
:100FB800FF0E4B24E96EFF0E4C20EA6EEE502E0A0F
:100FC80004E1010E4B5E000E4C5A5450000A3FE0FB
:100FD8004BC0E1FF4CC0E2FF650EE66E4B4A4C2A5F
:100FE800800E5418006E800E000A005C0BE24BC0A5
:100FF800E1FF4CC0E2FF2D0EE66E4B4A4C2A5450DE
:101008000008546E54C04EF0545009080FE20A0EFE
:10101800046E4EC000F07AEC02F04BC0E1FF4CC009
:10102800E2FF0050300FE66E4B4A4C2A0A0E046E5F
:101038004EC000F07AEC02F008C000F04BC0E1FFAF
:101048004CC0E2FF0050300FE66E4B4A4C2A4BC0B2
:0C105800E1FF4CC0E2FFE66A006A1200F3
:08106400067E29EC03F01200E6
:10106C00496A49504724E96E000E4820EA6EEE5258
:10107C000BE049504724E96E000E4820EA6EEECF93
:0A108C0055F01ADD492AEDD71200D5
:10109600CEEC08F0F28EF28CF288F18EF18C170EFF
:1010A600C16E070EB46ECD6A9D80040ECA6E9D8217
:1010B600950ECB6E95909592070E936E83908392C4
:1010C600816A3B0E3D6E000E3E6E396A3A6A3F6A91
:1010D600406A446A436A416A426A376A386A326ACF
:1010E600336A346A356AF1DC010E596EACEC01F0F4
:1010F6000C0E596EACEC01F03FC000F040C001F0A0
:101106004EDDCD0E046ECC0E056E4C0E066E7B0EBD
:10111600076EEAEC01F0290E046E5C0E056E1F0EDA
:10112600066E800E076E9BDF00C032F001C033F002
:1011360002C034F003C035F000C047F001C048F0EB
:1011460002C049F003C04AF0280E4B6E000E4C6EEA
:1011560078DD010E476E010E486E180E496E000EC0
:101166004A6E31DD280E476E000E486E7CDF030E98
:101176000C6E970E0D6E0D2EFED70C2EFCD70000B2
:061186000000BAD7FFD7FC
:10119C0010EE18F0100E006E010E016E8C0EF66E35
:0E11AC00110EF76E000EF86ECAEC05F0120080
:06118C00544F463A20001A
:041192004E614E005C
:04119600494E460078
:02119A00300023
:020000040030CA
:0E000000210E1F1EFF8381FF0FC00FE00F4077
:00000001FF
