:040000003CEF05F0DC
:1000080000C015F0E1CF16F0E2CF17F09EA244D061
:100018008372000E006E4650005C02E145504008B5
:1000280027E3501C006E00C050F000B002D083904F
:1000380001D08380000E461802E1190E451803E12D
:10004800CD80CE6ACF6A000E461802E10F0E451821
:100058000DE0000E461802E1200E451807E0000EDC
:10006800461802E1310E451801E001D0501E03D0B8
:100078008390010E4F6E030E465C02E1200E455C34
:1000880008E3456A466A4D6A4E6A436A446A526A98
:10009800536A454A462A9E92F2A23CD049C0E1FFE3
:1000A8004AC0E2FFCECFE6FF010E4924E16E000E02
:1000B8004A20E26ECFCFE6FF45C043F046C044F089
:1000C8004D50455C526E4E504658536E4F50010A83
:1000D8001CE1000E006E4450005C02E143502B0806
:1000E80014E25350441802E1435052180EE0000E37
:1000F800531802E1020E521808E047C04BF048C0FE
:100108004CF0CD90476A486A4F6A45C04DF046C0EA
:100118004EF0F2929EB09E9015C000F016C0E1FF1E
:0601280017C0E2FF110008
:06012E00000000001200B9
:100134000F0E0C6E470E0D6E0D2EFED70C2EFCD737
:06014400000000001200A3
:0A014A00210E0D6E0D2EFED71200DF
:100154000B840BAEB5EF00F0010E036E026A016A68
:0A016400006A0A360232FF0E120094
:08016E000AAE029E000E120011
:0E017600026A016A006A086A036A000E12003B
:100184000B820BAECCEF00F00368026801680068D4
:080194000A360232FF0E1200D0
:10019C00000166BF02D0839E01D0838E66BD02D063
:1001AC00839C01D0838C66BB02D0839A01D0838A56
:1001BC0066B902D0839801D0838851B002D0838471
:1001CC0001D083948386ADDF839666B702D0839E7D
:1001DC0001D0838E66B502D0839C01D0838C66B32C
:1001EC0002D0839A01D0838A66B102D0839801D061
:1001FC00838851B002D0838401D08394838691DFAD
:0E020C00839651A002D090DF01D099DF12003E
:10021A00086A080E0C6E003408360450085ED8B01E
:0E022A0002D00826D89000360C2EF5D7120010
:10023800086A096A000E07620364A1EF01F0025020
:1002480006180A6E075003267E0ED8A032EF01F07A
:10025800035ED8B0A5EF01F036EF01F0035ED8A039
:10026800A9EF01F0028E068E02C00EF001C00BF05D
:1002780000C00DF000500402F4CF0CF0015005024C
:10028800F4CF00F0F3CF08F00402F3500C26F4503A
:100298000822000E00220D500502F3500C26F450DF
:1002A8000822000E002202500402F3500826F450DF
:1002B800002202500502016A000E0122F3500026B6
:1002C800F45001220D500602F3500826F450002283
:1002D800026A000E012202220B500602F350002689
:1002E800F4500122000E02220E500602F35001269D
:1002F800F450022202BE89EF01F0083600360136BA
:1003080002360306D8B4A9EF01F09CEF01F0D880BB
:10031800800E08640030000E002201220222D8A0BC
:100328009CEF01F0023201320032034AA5EF01F0DE
:100338000AAE029E000EABEF01F0010E18DFABEF24
:1003480001F0020E1BDFABEF01F0040EFFDE12001E
:1003580062C004F063C005F004C002F005C003F0F9
:10036800044A052A64C000F065C001F00001644B2E
:10037800652B00C0E9FF01C0EAFF02C0E1FF03C02E
:10038800E2FFEECFE6FF02C0E9FF03C0EAFFEE524C
:0E03980001E0E2D762C000F063C001F0120085
:1003A6000A6A0350D8A40A800750D8A40A820A50C1
:1003B600D8B436EF02F0030AD8B4EFEF01F00AB072
:1003C600EAEF01F006AE34EF02F032EF02F002AED1
:1003D60032EF02F034EF02F00250800B0A6E029EFA
:1003E6000650800B069E0A18D8B400EF02F00A5099
:1003F600D8B432EF02F034EF02F00750035CD8B401
:100406000AEF02F0D8A026EF02F02CEF02F0065019
:10041600025CD8B414EF02F0D8A026EF02F02CEF5D
:1004260002F00550015CD8B41EEF02F0D8A026EF0A
:1004360002F02CEF02F00450005CD8B436EF02F064
:10044600D8B02CEF02F00A52D8B434EF02F032EFF3
:1004560002F00A52D8B432EF02F034EF02F0D8803C
:0E0466001200D8901200D880D8841200120024
:100474000C6A0E6A0250D8A453EF02F001C002F0D5
:1004840000C001F0006A0E860250D8A453EF02F0B7
:1004940001C002F0016A0E960E880250D8B465EFCE
:1004A40002F00E50035ED8A4D8A06AEF02F0D890F0
:1004B40002BE6FEF02F0003601360236032E5AEF09
:1004C40002F06AEF02F0010E0C6E53DE72EF02F0DE
:1004D400020E0C6E3DDE72EF02F0040E0C6E45DE71
:0204E400120004
:0C04E600519062C066F057DE5180120099
:1004F2000FD0800E546E19D0C00E546E16D0940ECA
:10050200546E13D0D40E546E10D0800E546E0DD093
:100512005450010AEEE05450020AEEE05450030A2D
:10052200EEE05450040AEEE0F0D75504006E545049
:10053200002600C054F000C066F02FDE5190586AC9
:1005420058505624E96E000E5720EA6EEE520BE028
:1005520058505624E96E000E5720EA6EEECF62F034
:0A056200C1DF582AEDD751801200C6
:10056C00959695949598959A959C959E839683943B
:10057C00839E839C839A8398D7DDD6DDD5DD838AD1
:10058C0083888386CEDD8396CFDD8386CADD839612
:10059C00CBDD8386C6DD8396C7DD83988386C1DD7C
:1005AC008396C2DD8386BDDD8396839A838E838694
:1005BC00B8DD8396B9DD839E83888386B2DD83960E
:1005CC0083988386AEDD8396AFDD8386AADD839622
:1005DC0083888386A6DD8396A7DD83988386A1DD39
:1005EC008396838E838C838A838883869ADD839615
:0605FC009BDD518012009E
:100602000900F5CFE6FF0006FBE10106F9E1120061
:100612000050086E0150006E016A026A036A0B6A9A
:100622000C6A960E036E0A6A00C001F008C000F060
:08063200086A026A1EDF1200D3
:10063A000001606B616B54C05CF055C05DF056C040
:10064A005EF057C05FF05F50FF0A08E15E50FF0A94
:10065A0005E15D50FF0A02E15C50FF0A0CE158C057
:10066A0062F059C063F0310E646F000E656F6FDE81
:10067A00030E006EE6D1010E5A6E5EAE0ED0800EEB
:10068A005E18006E00C05EF05A2A58C0E1FF59C0D9
:10069A00E2FF2D0EE66E584A592A000E006E5F18C8
:1006AA0008E100505E1805E100505D1802E15C5057
:1006BA00000A0BE158C062F059C063F02F0E646F54
:1006CA00000E656F44DE006ABCD15F50FF0A08E184
:1006DA005E50000A05E15D50000A02E15C50000A22
:1006EA000CE158C062F059C063F02B0E646F000E23
:1006FA00656F2DDE5AC000F0A4D1000E046E000E04
:10070A00056E000E066E7F0E076E5CC000F05DC0BF
:10071A0001F05EC002F05FC003F040DE010ED8B007
:10072A00000E006E00521BE05CC000F05DC001F0DC
:10073A005EC002F05FC003F0000E046E000E056E8C
:10074A00200E066E820E076E72DD00C05CF001C0DC
:10075A005DF002C05EF003C05FF06107CED7000E05
:10076A00046E000E056E200E066E820E076E5CC0C9
:10077A0000F05DC001F05EC002F05FC003F00EDE63
:10078A00000ED8B0010E006E00521BE05CC000F0F3
:10079A005DC001F05EC002F05FC003F0CD0E046ED2
:1007AA00CC0E056E4C0E066E7B0E076E40DD00C049
:1007BA005CF001C05DF002C05EF003C05FF0612B27
:1007CA00CED7FF0E5C14086EFF0E5D14096E7F0E05
:1007DA005E140A6E000E5F140B6E08C004F009C0A6
:1007EA0005F00AC006F00BC007F00436049005367F
:1007FA0006360736000E5C14006E000E5D14016E9C
:10080A00000E5E14026EFF0E5F14036E00C05CF0F1
:10081A0001C05DF002C05EF003C05FF004505C10DE
:10082A00006E05505D10016E06505E10026E075094
:10083A005F10036E00C05CF001C05DF002C05EF0A4
:10084A0003C05FF07F0E5F5C006E00C05BF0010EBC
:10085A005F6E00C004F05CC000F05DC001F05EC0D5
:10086A0002F05FC003F0045007E000360090013642
:10087A0002360336FF0FF8D700C05CF001C05DF006
:10088A0002C05EF003C05FF058C0E1FF59C0E2FF4A
:10089A005F50300FE66E584A592A800E6119006E71
:1008AA00800E010A005C08E3800E060A006E800EC4
:1008BA006119005C01E30AD058C0E1FF59C0E2FFA8
:1008CA002E0EE66E584A592A010E606F060E5B6EAE
:1008DA005B50000A54E05F6A5CC000F05DC001F042
:1008EA005EC002F05FC003F00036009001360236A7
:1008FA000336003600900136023603365C50002675
:10090A005D5001225E5002225F50032200C05CF05B
:10091A0001C05DF002C05EF003C05FF05CC000F091
:10092A005DC001F05EC002F05FC003F000360090C7
:10093A0001360236033600C05CF001C05DF002C029
:10094A005EF003C05FF058C0E1FF59C0E2FF5F509C
:10095A00300FE66E584A592A6051000A0EE16107C3
:10096A006151000A0AE158C0E1FF59C0E2FF2E0EA8
:10097A00E66E584A592A010E606F5B06A9D7FF0E28
:10098A005824E96EFF0E5920EA6EEE50300A05E14E
:10099A00010E585E000E595AF2D7FF0E5824E96E1E
:1009AA00FF0E5920EA6EEE502E0A04E1010E585E3F
:1009BA00000E595A6151000A3EE058C0E1FF59C081
:1009CA00E2FF650EE66E584A592A800E6119006EDA
:1009DA00800E000A005C0BE258C0E1FF59C0E2FF3A
:1009EA002D0EE66E584A592A61510008616F61C09E
:1009FA005BF0615109080EE20A0E046E5BC000F05A
:100A0A0007DC58C0E1FF59C0E2FF0050300FE66E24
:100A1A00584A592A0A0E046E5BC000F00DEC01F028
:100A2A0008C000F058C0E1FF59C0E2FF0050300F83
:100A3A00E66E584A592A58C0E1FF59C0E2FFE66AF1
:040A4A00006A12002C
:100A4E00566A56505424E96E000E5520EA6EEE5248
:100A5E000BE056505424E96E000E5520EA6EEECF90
:0A0A6E0062F03ADD562AEDD71200BF
:100A7800C6EC05F0F28EF28CF288F18EF18C170E2E
:100A8800C16E070EB46ECD6A9D80040ECA6E9D823B
:100A9800950ECB6E95909592070E936E83908392E8
:100AA800816A470E496E000E4A6E456A466A4B6A6D
:100AB8004C6A506A4F6A4D6A4E6A436A446A3F6A92
:100AC800406A416A426A4EDD010E546E010E556E4F
:100AD800180E566E000E576E08DD010E666FCEECCE
:100AE80000F00C0E666FCEEC00F04BC000F04CC06E
:100AF80001F08BDDAB0E046EAA0E056E2A0E066E93
:100B08007B0E076E1CEC01F000C03FF001C040F006
:100B180002C041F003C042F000C054F001C055F0DB
:100B280002C056F003C057F0350E586E000E596ECD
:100B380080DD010E546E010E556E250E566E000EA8
:100B4800576ED3DC350E546E000E556E7CDF030EE7
:100B58000C6E970E0D6E0D2EFED70C2EFCD70000D6
:060B68000000C3D7FFD717
:100B8C0010EE18F01D0E006E010E016E6E0EF66E5C
:0E0B9C000B0EF76E000EF86E01EC03F0120067
:0D0B6E00494E494349414E444F2E2E2E0062
:060B7B00544F463A200031
:040B8100494E460093
:020B850030003E
:040B87004E614E006D
:020000040030CA
:0E000000210E1F1EFF8381FF0FC00FE00F4077
:00000001FF
