:0400000044EF0DF0CC
:1000080000C015F0E1CF16F0E2CF17F09EA238D06D
:10001800000E006E00017751005C02E176512B085A
:100028001BE3541C006E00C054F000B002D0839053
:1000380001D08380000E771902E1190E761903E1C9
:10004800CD80CE6ACF6A000E771902E1160E7619B6
:1000580002E1546A838203D08390010E556E030E29
:10006800775D02E1200E765D08E3766B776B506A68
:10007800516A526A536A856B866B764B772B9E92D0
:10008800F2A23AD000016AC0E1FF6BC0E2FFCECF16
:10009800E6FF010E6A25E16E000E6B21E26ECFCFFE
:1000A800E6FF76C052F077C053F05050765D856F0A
:1000B80051507759866F000E006E7751005C02E14F
:1000C80076512B0814E28651531802E152508519D3
:1000D8000EE0000E861902E1020E851908E078C0CC
:1000E80064F079C065F0CD90786B796B839276C0B7
:1000F80050F077C051F0F2929EB09E9015C000F07B
:0A01080016C0E1FF17C0E2FF11006E
:100112000B840BAE94EF00F0010E036E026A016ACB
:0A012200006A0A360232FF0E1200D6
:0E012C00026A016A006A086A036A000E120085
:10013A000B820BAEA7EF00F0036802680168006843
:08014A000A360232FF0E12001A
:080152000AAE029E000E12002D
:10015A000CB0EFEF00F00CA295EF01F00E6A000E62
:10016A00026406EF01F0F00E0214D8A4D1EF00F0F9
:10017A00023A01380F0B02260138F00B016E0038E3
:10018A000F0B01260038F00B006E08380F0B002603
:10019A000838F00B086E0E84D89002BEEAEF00F021
:1001AA0008360036013602360E2A02BEEAEF00F0A1
:1001BA0008360036013602360E2A02BEEAEF00F091
:1001CA0008360036013602360E2A0E5003648BEFCB
:1001DA0001F0035E0BBC08AE90EF01F0D880800EF0
:1001EA0008640030000E002201220222D8A090EFFB
:1001FA0001F0023201320032034A95EF01F090EF2A
:10020A0001F001C002F000C001F008C000F0086A65
:10021A00000E0E8602643DEF01F0F00E0214D8A41F
:10022A0025EF01F0023A01380F0B02260138F00BD4
:10023A00016E00380F0B01260038F00B006E0E8499
:10024A00D89002BEEAEF00F00036013602360E2AD6
:10025A0002BEEAEF00F00036013602360E2A02BE6E
:10026A00EAEF00F00036013602360E2AEAEF00F015
:10027A0001C002F000C001F0006A000E0E960E885E
:10028A0002646AEF01F0F00E0214D8A455EF01F0EF
:10029A00023A01380F0B02260138F00B016E0E8468
:1002AA00D89002BEEAEF00F0013602360E2A02BEEC
:1002BA00EAEF00F0013602360E2A02BEEAEF00F03B
:1002CA00013602360E2AEAEF00F001C002F0016A96
:1002DA00000E0E8602649AEF01F0F00E0214D8A402
:1002EA0079EF01F0023A0E84D89002BEEAEF00F0EC
:1002FA0002360E2A02BEEAEF00F002360E2A02BECB
:10030A00EAEF00F002360E2AEAEF00F0010E0C6E58
:10031A00FBDE9DEF01F0020E0C6E16DF9DEF01F081
:10032A00040E0C6E05DF9DEF01F0080E0C6EF9DE6F
:02033A001200AF
:08033C000B6A0B86FF0E120094
:100344000A6A0350D8A40A800750D8A40A820A5023
:10035400D8B405EF02F0030AD8B4BEEF01F00AB036
:10036400B9EF01F006AE03EF02F001EF02F002AEC6
:1003740001EF02F003EF02F00250800B0A6E029EBE
:100384000650800B069E0A18D8B4CFEF01F00A502D
:10039400D8B401EF02F003EF02F00750035CD8B4C5
:1003A400D9EF01F0D8A0F5EF01F0FBEF01F0065012
:1003B400025CD8B4E3EF01F0D8A0F5EF01F0FBEF55
:1003C40001F00550015CD8B4EDEF01F0D8A0F5EFD1
:1003D40001F0FBEF01F00450005CD8B405EF02F02B
:1003E400D8B0FBEF01F00A52D8B403EF02F001EFEA
:1003F40002F00A52D8B401EF02F003EF02F0D88001
:0E0404001200D8901200D880D8841200120086
:10041200080E0C6EC10E0D6E0D2EFED70C2EFCD7E3
:06042200000000001200C2
:0E042800030E0D6E0D2EFED700000000120018
:100436000C6A0E6A0250D8A434EF02F001C002F032
:1004460000C001F0006A0E860250D8A434EF02F014
:1004560001C002F0016A0E960E880250D8B446EF2B
:1004660002F00E50035ED8A4D8A04BEF02F0D8904D
:1004760002BE50EF02F0003601360236032E3BEF85
:1004860002F04BEF02F0010E0C6E4DDE53EF02F060
:10049600020E0C6E3BDE53EF02F0040E0C6E56DEBF
:0204A600120042
:1004A800020E0C6E350E0D6E0D2EFED70C2EFCD7DF
:0604B8000000000012002C
:0E04BE00C70E0D6E0D2EFED7000000001200BE
:1004CC00560E0C6EB50E0D6E0D2EFED70C2EFCD7E7
:0604DC0000000000120008
:1004E20003500718D8A485EF02F002500618D8A4CA
:1004F20085EF02F001500518D8A485EF02F00050F4
:0E0502000418D8B4D8841200D8941200120045
:10051000C3C001F0010E006E015004E000360090EF
:10052000FF0FFBD700C0C7F0001E00C0C6F0C1C05F
:10053000E9FFC2C0EAFF0050EF16120EE9260001E3
:10054000C56BC551070815E3C5C000F0C4C001F074
:10055000005004E00132019EFF0FFBD7C651EF1699
:1005600001A002D0C751EF129FDFC751EF12C52B78
:0C057000E8D7120EE95EA3DFA2DF120044
:10057C000450000A12E10550000A0FE10650000A6F
:10058C000CE10750000A09E1FF0E006EFF0E016E30
:10059C007F0E026EFF0E036EA4D0086A096A075024
:1005AC00D8B469EF03F00350D8B46DEF03F00250E8
:1005BC0006180A6E028E068E0E6A02C008F001C082
:1005CC000CF000C00DF004500D5E0550D8A0053C99
:1005DC000C5E0650D8A0063C085E086A0C6A0D6AD0
:1005EC00D8A000EF03F0D89002320132003208326A
:1005FC00010E0E6E0750035ED8A00DEF03F07E0EB9
:10060C000E240326D8B071EF03F013EF03F07E0E27
:10061C000E240326D8A075EF03F0180E0B6E0D36C2
:10062C000C3608360036013602360E360450005EA3
:10063C000550D8A0053C015E0650D8A0063C025ED1
:10064C0006340E120EA02EEF03F00D8039EF03F0DE
:10065C00045000260550D8B0053C01260650D8B0F1
:10066C00062802260D900B2E15EF03F05FEF03F01A
:10067C00D8900036013602360E360450005E055016
:10068C00D8A0053C015E0650D8A0063C025E06349C
:10069C000E10010B0D26D8B00C2AD8B4082AD8A4F9
:1006AC005FEF03F008320C320D32032AD8B471EF2D
:1006BC0003F00AAE089E0850026E0C50016E0D50ED
:1006CC00006E77EF03F0010E33DE77EF03F0020ECE
:1006DC0027DD77EF03F0040E2ADD77EF03F0080E29
:0406EC0012DD120009
:1006F000025006180E6E086A096A0B6A03500764F6
:100700006BEF04F006500A6E068E028E03500B6EDD
:100710000750036E000E0B64BBEF03F00B50075E37
:10072000D8B45CEF04F0070E07642AEF04F0075E0C
:1007300000C008F001C000F002C001F0026A074EDC
:100740005CEF04F00764FFEF03F0075E00C008F001
:1007500001C000F0016A074E5CEF04F00764DDEFB2
:1007600003F0075E00C008F0006A074E5CEF04F07B
:100770000764C4EF03F00AC002F005C001F004C032
:1007800000F0086A88EF05F0030E0764CFEF03F06E
:10079000075E08380F0B086E074E5CEF04F0D89028
:1007A0000832074E5CEF04F0D8900832074E5CEF39
:1007B00004F0D89008325CEF04F0030E0764EEEF0B
:1007C00003F0075E08380F0B086E0038F00B0826A0
:1007D00000380F0B006E074E5CEF04F0D89000322B
:1007E0000832074E5CEF04F0D89000320832074E12
:1007F0005CEF04F0D890003208325CEF04F0030E96
:10080000076416EF04F0075E08380F0B086E003817
:10081000F00B082600380F0B006E0138F00B002695
:1008200001380F0B016E074E5CEF04F0D8900132D7
:1008300000320832074E5CEF04F0D89001320032EB
:100840000832074E5CEF04F0D890013200320832D3
:100850005CEF04F0030E076447EF04F0075E08380E
:100860000F0B086E0038F00B082600380F0B006ED7
:100870000138F00B002601380F0B016E0238F00B27
:10088000012602380F0B026E074E5CEF04F0D89081
:100890000232013200320832074E5CEF04F0D89089
:1008A0000232013200320832074E5CEF04F0D89079
:1008B0000232013200320832096A000E0EAE50EFE9
:1008C00005F0081E001E011E021E082A0022012239
:1008D000022250EF05F00750D8A471EF04F088EF22
:1008E00005F0096A02C00AF0028E068E0750035C0A
:1008F000076ED8B443EF05F0070E076411EF05F05B
:10090000075E0450096E0550046E0650056E066AB7
:10091000074E43EF05F0070E0764E6EF04F0075EAD
:100920000450096E0550046E056A074E43EF05F04A
:10093000070E0764C4EF04F0075E0450096E046AF2
:10094000074E43EF05F0070E0764ABEF04F00AC053
:1009500002F088EF05F0030E0764B6EF04F0075EBF
:1009600009380F0B096E074E43EF05F0D890093296
:10097000074E43EF05F0D8900932074E43EF05F0DC
:10098000D890093243EF05F0030E0764D5EF04F069
:10099000075E09380F0B096E0438F00B092604387E
:1009A0000F0B046E074E43EF05F0D8900432093266
:1009B000074E43EF05F0D89004320932074E43EF5B
:1009C00005F0D8900432093243EF05F0030E0764B6
:1009D000FDEF04F0075E09380F0B096E0438F00BC9
:1009E000092604380F0B046E0538F00B0426053871
:1009F0000F0B056E074E43EF05F0D8900532043219
:100A00000932074E43EF05F0D8900532043209321F
:100A1000074E43EF05F0D89005320432093243EF18
:100A200005F0030E07642EEF05F0075E09380F0B83
:100A3000096E0438F00B092604380F0B046E0538D4
:100A4000F00B042605380F0B056E0638F00B052653
:100A500006380F0B066E074E43EF05F0D8900632AE
:100A6000053204320932074E43EF05F0D8900632C2
:100A7000053204320932074E43EF05F0D8900632B2
:100A8000053204320932086A000E0EAE50EF05F04E
:100A9000091E041E051E061E092A0422052206221E
:100AA0000950082604500022055001220650022257
:100AB0000EBE67EF05F0D8A076EF05F002320132E6
:100AC00000320832033E76EF05F082EF05F0D8B031
:100AD0007CEF05F0000E081E001E011E021E082AF3
:100AE0000022012202220A7E7CEF05F0010E0C6E2C
:100AF000ADEC00F08AEF05F0020E0C6EADEC00F0EC
:100B00008AEF05F0040E0C6E9DEC00F08AEF05F004
:060B1000000E0C6E120045
:100B1600C10E046E000E056E030E0424E96E000E6F
:100B26000520EA6E7E0EEE5C006E016A000E015A2A
:100B3600C5C0E1FFC6C0E2FF00C0E6FF01C0E6FF98
:100B4600030E0424E16E000E0520E26E7E0EE66EB4
:100B5600C1C000F0C2C001F0C3C002F0C4C003F0BF
:020B660012007B
:100B6800C3C001F0010E006E015004E00036009091
:100B7800FF0FFBD700C0C7F0001C0001C66FC56B94
:100B8800C1C0E9FFC2C0EAFFC46BC451070820E333
:100B9800C651EF16120EE926C651EF1641DCC751B1
:100BA800EF123EDC120EE95EC751EF14006E0CE046
:100BB800C4C001F0010E006E015004E00036009040
:100BC800FF0FFBD70050C51376DC75DCC42BDDD7CF
:060BD800C5C000F0120090
:100BDE00C10E0001C76F000EC86F030EC725D96E78
:100BEE00000EC821DA6EDE50C525016E000EC6213C
:100BFE00026E01C0C5F002C0C6F0800E0218006E73
:100C0E00800E005C02E1000E015C05E2006A016AE2
:100C1E00026A036A3FD0800E006E800EC619005C19
:100C2E0002E1C551FF0826E2046A056A066A076AF0
:100C3E00C1C000F0C2C001F0C3C002F0C4C003F0D6
:100C4E00A2EC01F0010ED8B0000E006E005209E0C9
:100C5E00FF0E006EFF0E016EFF0E026EFF0E036E94
:100C6E0019D0FF0E006EFF0E016E7F0E026EFF0E8C
:100C7E00036E10D0030EC725E16E000EC821E26E82
:100C8E00C5C0E6FFC1C000F0C2C001F0C3C002F093
:060C9E00C4C003F01200C7
:100CA4000B6A0A6A096A00500402F4CF09F0F3CF10
:100CB40008F001500502F4CF0BF0F3CF0AF0005016
:100CC4000502F3500926F4500A22E86A0B22015067
:100CD4000402F3500926F4500A22E86A0B2208C0E1
:100CE40000F009C001F00AC002F00BC003F01200CA
:100CF4000001C1BF02D0839E01D0838EC1BD02D04A
:100D0400839C01D0838CC1BB02D0839A01D0838A97
:100D1400C1B902D0839801D083887CB102D0838486
:100D240001D08394838614EC02F08396C1B702D079
:100D3400839E01D0838EC1B502D0839C01D0838C65
:100D4400C1B302D0839A01D0838AC1B102D08398FF
:100D540001D083887CB102D0838401D083948386BC
:100D640014EC02F083967CA103D066EC02F002D06E
:060D74005FEC02F012002A
:100D7A00C3C001F0010E006E015004E0003600907D
:100D8A00FF0FFBD700C0C5F0001EC1C0E9FFC2C0FB
:100D9A00EAFF0050EF16120EE9260050EF1609EC92
:100DAA0002F00001C551EF12120EE95E54EC02F096
:100DBA00C551EF14C46FC451000A000ED8A4010E25
:0C0DCA00C46F09EC02F0C4C000F012007D
:100DD6000050086E0150006E016A026A036A0B6ACF
:100DE6000C6A960E036E0A6A00C001F008C000F095
:0A0DF600086A026A1BEC02F012000A
:100E0000B2C004F0B3C005F004C002F005C003F0A6
:100E1000044A052AB4C000F0B5C001F00001B44B8B
:100E2000B52B00C0E9FF01C0EAFF02C0E1FF03C02B
:100E3000E2FFEECFE6FF02C0E9FF03C0EAFFEE5299
:0E0E400001E0E2D7B2C000F0B3C001F0120032
:100E4E00B2C004F0B3C005F0B4C006F0B5C007F0F0
:100E5E00006A016A026A036AA2EC01F0000ED8B0C1
:100E6E00010E006E005205E0006A016A026A036A12
:100E7E00F2D0B2C0B6F0B3C0B7F0B4C0B8F0B5C0DF
:100E8E00B9F0000E046E000E056E000E066E7F0E9B
:100E9E00076EB2C000F0B3C001F0B4C002F0B5C02E
:100EAE0003F0A2EC01F0010ED8B0000E006E00525D
:100EBE001AE0B6C004F0B7C005F0B8C006F0B9C06D
:100ECE0007F0000E006E000E016E000E026E7F0E19
:100EDE00036EBEEC02F000C0B6F001C0B7F002C067
:100EEE00B8F003C0B9F0B6C0C1F0B7C0C2F0B8C018
:100EFE00C3F0B9C0C4F0BF0E0001C56F000EC66FBF
:100F0E0003DE00C0B6F001C0B7F002C0B8F003C0F7
:100F1E00B9F000C0C1F001C0C2F002C0C3F003C0FE
:100F2E00C4F0BFC0C5F0C0C0C6F0C633C533C69F3F
:100F3E00C6BDC68F4DDE00C0B6F001C0B7F002C010
:100F4E00B8F003C0B9F0000E046E000E056E000E70
:100F5E00066E7F0E076EB2C000F0B3C001F0B4C0D3
:100F6E0002F0B5C003F0A2EC01F0010ED8B0000EF5
:100F7E00006E00521AE0B6C004F0B7C005F0B8C05B
:100F8E0006F0B9C007F0000E006E000E016E000EE6
:100F9E00026E7F0E036EBEEC02F000C0B6F001C012
:100FAE00B7F002C0B8F003C0B9F0140E0001BE6F66
:100FBE00B6C004F0B7C005F0B8C006F0B9C007F06F
:100FCE00B2C000F0B3C001F0B4C002F0B5C003F07F
:100FDE00BEEC02F0B6C004F0B7C005F0B8C006F023
:100FEE00B9C007F078EC03F0000E046E000E056E2B
:100FFE00000E066E800E076EBEEC02F000C0BAF058
:10100E0001C0BBF002C0BCF003C0BDF0B6C004F01E
:10101E00B7C005F0B8C006F0B9C007F071EC02F029
:10102E00010ED8A4000E006E005201E00CD0BAC022
:10103E00B6F0BBC0B7F0BCC0B8F0BDC0B9F000018F
:10104E00BE07BE53B5E1B6C000F0B7C001F0B8C0E0
:08105E0002F0B9C003F012001A
:10106600086A096A000E07620364B8EF08F00250C6
:1010760006180A6E075003267E0ED8A049EF08F020
:10108600035ED8B0BDEF08F04DEF08F0035ED8A0C0
:10109600C2EF08F0028E068E02C00EF001C00BF001
:1010A60000C00DF000500402F4CF0CF00150050210
:1010B600F4CF00F0F3CF08F00402F3500C26F450FE
:1010C6000822000E00220D500502F3500C26F450A3
:1010D6000822000E002202500402F3500826F450A3
:1010E600002202500502016A000E0122F35000267A
:1010F600F45001220D500602F3500826F450002247
:10110600026A000E012202220B500602F35000264C
:10111600F4500122000E02220E500602F350012660
:10112600F450022202BEA0EF08F00836003601365F
:1011360002360306D8B4C2EF08F0B3EF08F0D88041
:10114600800E08640030000E002201220222D8A080
:10115600B3EF08F0023201320032034ABDEF08F065
:101166000AAE029E000EC5EF08F0010E96EC00F0E6
:10117600C5EF08F0020E9DEC00F0C5EF08F0040E76
:0611860089EC00F01200EC
:10118C00840E0001C16F0F0EC26F020EC36FEFDD34
:10119C00840EC16F0F0EC26F020EC36FCC0EC46FE4
:1011AC0088EC02F0840EC16F0F0EC26F020EC36F7B
:1011BC00440EC46F88EC02F0020E0C6EDD0E0D6E48
:1011CC000D2EFED70C2EFCD700000000840EC16F34
:1011DC000F0EC26F020EC36FCADD840EC16F0F0EED
:1011EC00C26F020EC36FCC0EC46F88EC02F0840E7B
:1011FC00C16F0F0EC26F020EC36FBE0EC46F88ECB0
:10120C0002F0840EC16F0F0EC26F020EC36FA6DC0C
:10121C0000C0B2F0000EB36F840EC16F0F0EC26F20
:10122C00020EC36F9BDC00C005F0046AB2510424AB
:10123C00026EB3510520036E02C0B2F003C0B3F0CE
:10124C0003AE02D0B26BB36BB2C0B8F0B3C0B9F09E
:10125C00B933B833B99FB933B833B99FB933B8334D
:10126C00B99FB933B833B99F0F0EB215006EB3C026
:10127C0001F0000E0116710E046E020E056E0CDDEF
:10128C00A4DD000E046E400E056E1C0E066E8C0E58
:10129C00076EBEEC02F000C0B4F001C0B5F002C0A5
:1012AC00B6F003C0B7F0B8C000F0B9C001F08DDDE6
:1012BC00B4C004F0B5C005F0B6C006F0B7C007F076
:1012CC0078EC03F000C070F001C071F002C072F055
:0612DC0003C073F01200D4
:0E12E20000017C91B2C0C1F004DD7C811200DD
:1012F0000B800BAE84EF09F0026A0AAEFF0E026E9D
:0C130000016E006E0A360232FF0E120071
:10130C00086A080E0C6E003408360450085ED8B01B
:0E131C0002D00826D89000360C2EF5D712000D
:10132A0030DF70C06CF071C06DF072C06EF073C0C7
:10133A006FF0000E046E800E056E080E066E870EA4
:10134A00076E70C000F071C001F072C002F073C085
:10135A0003F0BEEC02F0000E046E000E056E000EE5
:10136A00066E7F0E076E78EC03F000C0B2F001C083
:10137A00B3F002C0B4F003C0B5F064DD9A0E046E97
:10138A00B90E056E250E066E870E076E67DE00C063
:10139A0066F001C067F002C068F003C069F012008D
:1013AA007A0E00017D6F1A0E7E6FA40E7F6F000EFB
:1013BA00806FFF0E876FFF0E886F000E896F000E19
:1013CA008A6FFF0E8B6FFF0E8C6F000E8D6F000EF3
:1013DA008E6FFF0E816FFF0E826F000E836F000EFD
:1013EA00846FAC8A900EAB6E948E949C9EAA03D0A6
:0813FA00AECF00F0FBD712009A
:10140200959695949598959A959C959E8396839496
:10141200839E839C839A839866EC02F066EC02F0CA
:1014220066EC02F0838A8388838614EC02F083964A
:1014320066EC02F0838614EC02F0839666EC02F00E
:10144200838614EC02F0839666EC02F0839883861E
:1014520014EC02F0839666EC02F0838614EC02F040
:101462008396839A838E838614EC02F0839666ECCD
:1014720002F0839E8388838614EC02F0839683981D
:10148200838614EC02F0839666EC02F0838614ECF9
:1014920002F083968388838614EC02F0839666ECCE
:1014A20002F08398838614EC02F08396838E838CF9
:1014B200838A8388838614EC02F0839666EC02F0BA
:0614C20000017C81120014
:1014C8000900F5CFE6FF0006FBE10106F9E112008D
:1014D8000B6A0C6A0A6A0350D8B4B6EF0AF0028E97
:1014E8008E0E035E03BE7EEF0AF0D8B47EEF0AF0DC
:1014F800BAEF0AF0036C080E035CD8A095EF0AF067
:10150800036E013602C001F0026A080E035CD8A01F
:1015180095EF0AF00136016A0350D8A4D8909FEFDE
:101528000AF00350D8B49FEF0AF0D8900232013283
:10153800032E99EF0AF00BBC01A0ACEF0AF0D8A07B
:10154800ACEF0AF0012AD8B4022A02BEC9EF0AF0A9
:101558000AAECEEF0AF0021E011E012AD8B4022AF2
:10156800CEEF0AF0026A016ACEEF0AF00B800BAEEA
:10157800D2EF0AF0026A0AAED2EF0AF0FF0E026E4C
:10158800016E0A360232D2EF0AF0010E0C6EACDEA2
:10159800D4EF0AF0000E0C6ED4EF0AF0FF0E0C6EBA
:0A15A8000150006E0250016E1200A7
:1015B20010D0800E0001A46F1AD0C00EA46F17D0F5
:1015C200940EA46F14D0D40EA46F11D0800EA46F09
:1015D2000ED00001A451010AECE0A451020AEDE090
:1015E200A451030AEDE0A451040AEDE0EFD7A505EA
:1015F200006EA451002600C0A4F000C0C1F07AEC35
:1016020006F07C91A86BA851A625E96E000EA721D1
:10161200EA6EEE520BE0A851A625E96E000EA72154
:10162200EA6EEECFB2F05CDEA82BEDD77C81120021
:101632000001A66BA651A425E96E000EA521EA6E53
:10164200EE520BE0A651A425E96E000EA521EA6E2A
:0C165200EECFB2F045DEA62BEDD7120063
:10165E000001B06BB16BA4C0ACF0A5C0ADF0A6C0DC
:10166E00AEF0A7C0AFF0AF51FF0A08E1AE51FF0ACE
:10167E0005E1AD51FF0A02E1AC51FF0A0DE1A8C030
:10168E00B2F0A9C0B3F01E0EB46F000EB56F00EC31
:10169E0007F0030E006EE9D1010EAA6FAEAF0ED0A9
:1016AE00800EAE19006E00C0AEF0AA2BA8C0E1FFEE
:1016BE00A9C0E2FF2D0EE66EA84BA92B000E006E00
:1016CE00AF1908E10050AE1905E10050AD1902E165
:1016DE00AC51000A0CE1A8C0B2F0A9C0B3F0180ECC
:1016EE00B46F000EB56F00EC07F0006ABED1AF51BB
:1016FE00FF0A08E1AE51000A05E1AD51000A02E110
:10170E00AC51000A0DE1A8C0B2F0A9C0B3F01A0E98
:10171E00B46F000EB56F00EC07F0AAC000F0A5D1B3
:10172E00000E046E000E056E000E066E7F0E076E26
:10173E00ACC000F0ADC001F0AEC002F0AFC003F01F
:10174E00A2EC01F0010ED8B0000E006E00521BE0AC
:10175E00ACC000F0ADC001F0AEC002F0AFC003F0FF
:10176E00000E046E000E056E200E066E820E076EC3
:10177E0073DC00C0ACF001C0ADF002C0AEF003C02F
:10178E00AFF0B107CDD7000E046E000E056E200E21
:10179E00066E820E076EACC000F0ADC001F0AEC09A
:1017AE0002F0AFC003F0A2EC01F0000ED8B0010EB3
:1017BE00006E00521BE0ACC000F0ADC001F0AEC038
:1017CE0002F0AFC003F0CD0E046ECC0E056E4C0EC3
:1017DE00066E7B0E076E40DC00C0ACF001C0ADF0B3
:1017EE0002C0AEF003C0AFF0B12BCDD7FF0EAC15DB
:1017FE00086EFF0EAD15096E7F0EAE150A6E000E49
:10180E00AF150B6E08C004F009C005F00AC006F053
:10181E000BC007F004360490053606360736000E68
:10182E00AC15006E000EAD15016E000EAE15026EFB
:10183E00FF0EAF15036E00C0ACF001C0ADF002C0DC
:10184E00AEF003C0AFF00450AC11006E0550AD11F8
:10185E00016E0650AE11026E0750AF11036E00C03E
:10186E00ACF001C0ADF002C0AEF003C0AFF07F0E21
:10187E00AF5D006E00C0ABF0010EAF6F00C004F0A4
:10188E00ACC000F0ADC001F0AEC002F0AFC003F0CE
:10189E00045007E000360090013602360336FF0F83
:1018AE00F8D700C0ACF001C0ADF002C0AEF003C07E
:1018BE00AFF0A8C0E1FFA9C0E2FFAF51300FE66E56
:1018CE00A84BA92B800EB119006E800E010A005C88
:1018DE0008E3800E060A006E800EB119005C01E36B
:1018EE000AD0A8C0E1FFA9C0E2FF2E0EE66EA84BFB
:1018FE00A92B010EB06F060EAB6FAB51000A54E070
:10190E00AF6BACC000F0ADC001F0AEC002F0AFC026
:10191E0003F0003600900136023603360036009092
:10192E00013602360336AC510026AD510122AE51BE
:10193E000222AF51032200C0ACF001C0ADF002C0D4
:10194E00AEF003C0AFF0ACC000F0ADC001F0AEC061
:10195E0002F0AFC003F000360090013602360336B7
:10196E0000C0ACF001C0ADF002C0AEF003C0AFF0ED
:10197E00A8C0E1FFA9C0E2FFAF51300FE66EA84B41
:10198E00A92BB051000A0EE1B107B151000A0AE1CC
:10199E00A8C0E1FFA9C0E2FF2E0EE66EA84BA92B50
:1019AE00010EB06FAB07A9D7FF0EA825E96EFF0E8B
:1019BE00A921EA6EEE50300A05E1010EA85F000E75
:1019CE00A95BF2D7FF0EA825E96EFF0EA921EA6EDC
:1019DE00EE502E0A04E1010EA85F000EA95BB15174
:1019EE00000A3DE0A8C0E1FFA9C0E2FF650EE66E69
:1019FE00A84BA92B800EB119006E800E000A005C58
:101A0E000BE2A8C0E1FFA9C0E2FF2D0EE66EA84BC7
:101A1E00A92BB1510008B16FB1C0ABF0B15109089B
:101A2E000EE20A0E046EABC000F069DCA8C0E1FF46
:101A3E00A9C0E2FF0050300FE66EA84BA92B0A0E8C
:101A4E00046EABC000F05BDC08C000F0A8C0E1FF84
:101A5E00A9C0E2FF0050300FE66EA84BA92BA8C01C
:0C1A6E00E1FFA9C0E2FFE66A006A120076
:0E1A7A00ACB202D00000FCD7A4C0ADFF120039
:101A8800ADEC0EF0F28EF28CF288F18EF18C0F0E26
:101A9800C16E070EB46ECD6A9D80040ECA6E9D821B
:101AA800950ECB6E95909592070E936E83908392C8
:101AB800816A780E00016A6F000E6B6F740E7A6F80
:101AC800000E7B6F766B776B646B656B546A556A37
:101AD800506A516A526A536A5B6A5C6A5D6A5E6AF6
:101AE800746B756B200E5F6E310E606F0D0E636F39
:101AF80084DC010EC16F7AEC06F00C0EC16F7AEC33
:101B080006F0B886040EB06EE10EAF6EAC8449DC08
:101B1800070E0B6E170E0C6E6A0E0D6E0D2EFED78D
:101B28000C2EFCD70B2EFAD7000095EC09F064C0F8
:101B380000F065C001F0EBEC06F0AB0E046EAA0EE7
:101B4800056E2A0E066E7B0E076E33EC08F000C099
:101B58005BF001C05CF002C05DF003C05EF066C0DF
:101B680004F067C005F068C006F069C007F033EC00
:101B780008F0000E046E000E056E7A0E066E890ED1
:101B8800076EBEEC02F000C056F001C057F002C06C
:101B980058F003C059F0000E046E000E056E200EBA
:101BA800066E820E076E33EC08F092DC00C074F00B
:101BB80001C075F0020E5A6E040E5A5C13E25F0EF5
:101BC800E16E000EE26E5A50E126D8B0E22A7AC0E1
:101BD800E9FF7BC0EAFFEECFE6FF00017A4B7B2BE3
:101BE8005A2AEAD700016CC0A4F06DC0A5F06EC0F7
:101BF800A6F06FC0A7F0930EA86F000EA96F2BDD9B
:101C080066C0A4F067C0A5F068C0A6F069C0A7F0D8
:101C18009B0EA86F000EA96F1EDD9251630A08E1A2
:101C28009151630A05E19051630A02E18F51630AF9
:101C380009E1010EA46F010EA56F220EA66F000E1A
:101C4800A76FB3DC9251580A08E19151580A05E18F
:101C58009051580A02E18F51580A0EE1010EC16FE6
:101C68007AEC06F0010EA46F010EA56F390EA66F6F
:101C7800000EA76F9ADC26D09251630A08E19151B1
:101C8800630A05E19051630A02E18F51630A1AE081
:101C98009251580A08E19151580A05E19051580AA1
:101CA80002E18F51580A0EE0010EA46F010EA56FD4
:101CB8004A0EA66F000EA76F78DC930EA46F000E75
:101CC800A56FB3DC020EA46F010EA56F330EA66FCD
:101CD800000EA76F6ADC9B0EA46F000EA56FA5DC33
:101CE800A36BA35104080EE35F0EE96E000EEA6EC3
:101CF800A351E926D8B0EA2AEECFA4F0BADE000153
:101D0800A32BEFD7100E0C6E940E0D6E0D2EFED772
:0A1D18000C2EFCD7000009D7FFD7FE
:101D5A0010EE18F0380E006E010E016E220EF66EAD
:0E1D6A001D0EF76E000EF86E64EC0AF012000B
:021D220030008F
:041D2400494E4600DE
:041D28004E614E00BA
:101D2C0020204E6F20726573706F6E7365202020BB
:011D3C0000A6
:061D3D0056656C3A20001F
:101D4300436865636B2073756D206572726F7220D3
:011D5300008F
:061D5400546D703A2000FE
:020000040030CA
:0E000000210E3F1EFF8381FF0FC00FE00F4057
:00000001FF
