:0400000016EF0EF0F9
:1000080000C015F0E1CF16F0E2CF17F09EA238D06D
:10001800000E006E00016451005C02E163512B0880
:100028001BE3511C006E00C051F000B002D0839059
:1000380001D08380000E641902E1190E631903E1EF
:10004800CD80CE6ACF6A000E641902E1160E6319DC
:1000580002E1516A838203D08390010E346E030E4D
:10006800645D02E1200E635D08E3636B646B356ACF
:10007800366A2E6A2F6A796B7A6B634B642B9E9271
:10008800F2A23AD0000156C0E1FF57C0E2FFCECF3E
:10009800E6FF010E5624E16E000E5720E26ECFCF28
:1000A800E6FF63C02EF064C02FF03550635D796FB2
:1000B800365064597A6F000E006E6451005C02E19C
:1000C80063512B0814E27A512F1802E12E50791946
:1000D8000EE0000E7A1902E1020E791908E061C0FB
:1000E80065F062C066F0CD90616B626B839263C00D
:1000F80035F064C036F0F2929EB09E9015C000F0C4
:0A01080016C0E1FF17C0E2FF11006E
:100112000B820BAE93EF00F003680268016800687F
:080122000A360232FF0E120042
:0E012A00026A016A006A086A036A000E120087
:100138000B840BAEA7EF00F0010E036E026A016A92
:0A014800006A0A360232FF0E1200B0
:080152000AAE029E000E12002D
:10015A000CB0EFEF00F00CA295EF01F00E6A000E62
:10016A00026406EF01F0F00E0214D8A4D1EF00F0F9
:10017A00023A01380F0B02260138F00B016E0038E3
:10018A000F0B01260038F00B006E08380F0B002603
:10019A000838F00B086E0E84D89002BEEAEF00F021
:1001AA0008360036013602360E2A02BEEAEF00F0A1
:1001BA0008360036013602360E2A02BEEAEF00F091
:1001CA0008360036013602360E2A0E5003648BEFCB
:1001DA0001F0035E0BBC08AE90EF01F0D880800EF0
:1001EA0008640030000E002201220222D8A090EFFB
:1001FA0001F0023201320032034A95EF01F090EF2A
:10020A0001F001C002F000C001F008C000F0086A65
:10021A00000E0E8602643DEF01F0F00E0214D8A41F
:10022A0025EF01F0023A01380F0B02260138F00BD4
:10023A00016E00380F0B01260038F00B006E0E8499
:10024A00D89002BEEAEF00F00036013602360E2AD6
:10025A0002BEEAEF00F00036013602360E2A02BE6E
:10026A00EAEF00F00036013602360E2AEAEF00F015
:10027A0001C002F000C001F0006A000E0E960E885E
:10028A0002646AEF01F0F00E0214D8A455EF01F0EF
:10029A00023A01380F0B02260138F00B016E0E8468
:1002AA00D89002BEEAEF00F0013602360E2A02BEEC
:1002BA00EAEF00F0013602360E2A02BEEAEF00F03B
:1002CA00013602360E2AEAEF00F001C002F0016A96
:1002DA00000E0E8602649AEF01F0F00E0214D8A402
:1002EA0079EF01F0023A0E84D89002BEEAEF00F0EC
:1002FA0002360E2A02BEEAEF00F002360E2A02BECB
:10030A00EAEF00F002360E2AEAEF00F0010E0C6E58
:10031A000EDF9DEF01F0020E0C6E16DF9DEF01F06D
:10032A00040E0C6EF1DE9DEF01F0080E0C6EF8DE85
:02033A001200AF
:10033C000A6A0350D8A40A800750D8A40A820A502B
:10034C00D8B401EF02F0030AD8B4BAEF01F00AB046
:10035C00B5EF01F006AEFFEF01F0FDEF01F002AEDC
:10036C00FDEF01F0FFEF01F00250800B0A6E029ED0
:10037C000650800B069E0A18D8B4CBEF01F00A5039
:10038C00D8B4FDEF01F0FFEF01F00750035CD8B4D7
:10039C00D5EF01F0D8A0F1EF01F0F7EF01F0065026
:1003AC00025CD8B4DFEF01F0D8A0F1EF01F0F7EF69
:1003BC0001F00550015CD8B4E9EF01F0D8A0F1EFE1
:1003CC0001F0F7EF01F00450005CD8B401EF02F03B
:1003DC00D8B0F7EF01F00A52D8B4FFEF01F0FDEFFF
:1003EC0001F00A52D8B4FDEF01F0FFEF01F0D88014
:0E03FC001200D8901200D880D884120012008F
:10040A00560E0C6EB50E0D6E0D2EFED70C2EFCD7A9
:06041A00000000001200CA
:0E042000C70E0D6E0D2EFED70000000012005C
:08042E000B6A0B86FF0E1200A1
:0E043600030E0D6E0D2EFED70000000012000A
:10044400A90E0001AF6F000EB06F030EAF25D96E79
:10045400000EB021DA6EDE50AD25016E000EAE2125
:10046400026E01C0ADF002C0AEF0800E0218006E44
:10047400800E005C02E1000E015C05E2006A016A84
:10048400026A036A3ED0800E006E800EAE19005CD4
:1004940002E1AD51FF0825E2046A056A066A076AAB
:1004A400A9C000F0AAC001F0ABC002F0ACC003F0D8
:1004B40043DF010ED8B0000E006E005209E0FF0EBB
:1004C400006EFF0E016EFF0E026EFF0E036E19D05A
:1004D400FF0E006EFF0E016E7F0E026EFF0E036EA6
:1004E40010D0030EAF25E16E000EB021E26EADC058
:1004F400E6FFA9C000F0AAC001F0ABC002F0ACC096
:0405040003F01200EE
:1005080003500718D8A498EF02F002500618D8A490
:1005180098EF02F001500518D8A498EF02F00050A7
:0E0528000418D8B4D8841200D894120012001F
:100536000450000A12E10550000A0FE10650000AB5
:100546000CE10750000A09E1FF0E006EFF0E016E76
:100556007F0E026EFF0E036EA4D0086A096A07506A
:10056600D8B446EF03F00350D8B44AEF03F0025074
:1005760006180A6E028E068E0E6A02C008F001C0C8
:100586000CF000C00DF004500D5E0550D8A0053CDF
:100596000C5E0650D8A0063C085E086A0C6A0D6A16
:1005A600D8A0DDEF02F0D8900232013200320832D4
:1005B600010E0E6E0750035ED8A0EAEF02F07E0E23
:1005C6000E240326D8B04EEF03F0F0EF02F07E0EB5
:1005D6000E240326D8A052EF03F0180E0B6E0D362C
:1005E6000C3608360036013602360E360450005EEA
:1005F6000550D8A0053C015E0650D8A0063C025E18
:1006060006340E120EA00BEF03F00D8016EF03F06A
:10061600045000260550D8B0053C01260650D8B037
:10062600062802260D900B2EF2EF02F03CEF03F0A7
:10063600D8900036013602360E360450005E05505C
:10064600D8A0053C015E0650D8A0063C025E0634E2
:100656000E10010B0D26D8B00C2AD8B4082AD8A43F
:100666003CEF03F008320C320D32032AD8B44EEFB9
:1006760003F00AAE089E0850026E0C50016E0D5033
:10068600006E54EF03F0010ECFDE54EF03F0020EBE
:1006960049DD54EF03F0040E39DD54EF03F0080E84
:0406A60048DD120019
:1006AA00025006180E6E086A096A0B6A035007643C
:1006BA0048EF04F006500A6E068E028E03500B6E47
:1006CA000750036E000E0B6498EF03F00B50075EA1
:1006DA00D8B439EF04F0070E076407EF04F0075E99
:1006EA0000C008F001C000F002C001F0026A074E23
:1006FA0039EF04F00764DCEF03F0075E00C008F08E
:10070A0001C000F0016A074E39EF04F00764BAEF3E
:10071A0003F0075E00C008F0006A074E39EF04F0E4
:10072A000764A1EF03F00AC002F005C001F004C09B
:10073A0000F0086A65EF05F0030E0764ACEF03F0FA
:10074A00075E08380F0B086E074E39EF04F0D89091
:10075A000832074E39EF04F0D8900832074E39EFC5
:10076A0004F0D890083239EF04F0030E0764CBEF97
:10077A0003F0075E08380F0B086E0038F00B0826E6
:10078A0000380F0B006E074E39EF04F0D890003294
:10079A000832074E39EF04F0D89000320832074E7B
:1007AA0039EF04F0D8900032083239EF04F0030E22
:1007BA000764F3EF03F0075E08380F0B086E003882
:1007CA00F00B082600380F0B006E0138F00B0026DC
:1007DA0001380F0B016E074E39EF04F0D890013241
:1007EA0000320832074E39EF04F0D8900132003255
:1007FA000832074E39EF04F0D8900132003208323D
:10080A0039EF04F0030E076424EF04F0075E08389A
:10081A000F0B086E0038F00B082600380F0B006E1D
:10082A000138F00B002601380F0B016E0238F00B6D
:10083A00012602380F0B026E074E39EF04F0D890EA
:10084A000232013200320832074E39EF04F0D890F2
:10085A000232013200320832074E39EF04F0D890E2
:10086A000232013200320832096A000E0EAE2DEF52
:10087A0005F0081E001E011E021E082A002201227F
:10088A0002222DEF05F00750D8A44EEF04F065EFD1
:10089A0005F0096A02C00AF0028E068E0750035C50
:1008AA00076ED8B420EF05F0070E0764EEEF04F0E8
:1008BA00075E0450096E0550046E0650056E066AFE
:1008CA00074E20EF05F0070E0764C3EF04F0075E3A
:1008DA000450096E0550046E056A074E20EF05F0B4
:1008EA00070E0764A1EF04F0075E0450096E046A5C
:1008FA00074E20EF05F0070E076488EF04F00AC0E0
:10090A0002F065EF05F0030E076493EF04F0075E4B
:10091A0009380F0B096E074E20EF05F0D8900932FF
:10092A00074E20EF05F0D8900932074E20EF05F068
:10093A00D890093220EF05F0030E0764B2EF04F0F5
:10094A00075E09380F0B096E0438F00B09260438C4
:10095A000F0B046E074E20EF05F0D89004320932CF
:10096A00074E20EF05F0D89004320932074E20EFE7
:10097A0005F0D8900432093220EF05F0030E07641F
:10098A00DAEF04F0075E09380F0B096E0438F00B32
:10099A00092604380F0B046E0538F00B04260538B7
:1009AA000F0B056E074E20EF05F0D8900532043282
:1009BA000932074E20EF05F0D89005320432093289
:1009CA00074E20EF05F0D89005320432093220EFA5
:1009DA0005F0030E07640BEF05F0075E09380F0BED
:1009EA00096E0438F00B092604380F0B046E05381B
:1009FA00F00B042605380F0B056E0638F00B05269A
:100A0A0006380F0B066E074E20EF05F0D890063217
:100A1A00053204320932074E20EF05F0D89006322B
:100A2A00053204320932074E20EF05F0D89006321B
:100A3A00053204320932086A000E0EAE2DEF05F0B7
:100A4A00091E041E051E061E092A04220522062264
:100A5A00095008260450002205500122065002229D
:100A6A000EBE44EF05F0D8A053EF05F00232013272
:100A7A0000320832033E53EF05F05FEF05F0D8B0BD
:100A8A0059EF05F0000E081E001E011E021E082A5C
:100A9A000022012202220A7E59EF05F0010E0C6E95
:100AAA00ADEC00F067EF05F0020E0C6EADEC00F055
:100ABA0067EF05F0040E0C6E89EC00F067EF05F0A5
:060ACA00000E0C6E12008C
:100AD000A90E046E000E056E030E0424E96E000ECE
:100AE0000520EA6E7E0EEE5C006E016A000E015A71
:100AF000ADC0E1FFAEC0E2FF00C0E6FF01C0E6FF0F
:100B0000030E0424E16E000E0520E26E7E0EE66EFA
:100B1000A9C000F0AAC001F0ABC002F0ACC003F065
:020B20001200C1
:100B22000001A9BF02D0839E01D0838EA9BD02D04D
:100B3200839C01D0838CA9BB02D0839A01D0838A83
:100B4200A9B902D0839801D0838860B102D083848E
:100B520001D0839483866EDC8396A9B702D0839EEC
:100B620001D0838EA9B502D0839C01D0838CA9B316
:100B720002D0839A01D0838AA9B102D0839801D08E
:100B8200838860B102D0838401D08394838652DC4F
:0E0B9200839660A102D038DC01D041DC120055
:100BA0009AC004F09BC005F09CC006F09DC007F001
:100BB000006A016A026A036A9EEC01F0000ED8B076
:100BC000010E006E005205E0006A016A026A036AC3
:100BD000EFD09AC09EF09BC09FF09CC0A0F09DC03B
:100BE000A1F0000E046E000E056E000E066E7F0E64
:100BF000076E9AC000F09BC001F09CC002F09DC03F
:100C000003F09EEC01F0010ED8B0000E006E005211
:100C100019E09EC004F09FC005F0A0C006F0A1C07E
:100C200007F0000E006E000E016E000E026E7F0EC9
:100C3000036E81DC00C09EF001C09FF002C0A0F0F6
:100C400003C0A1F09EC0A9F09FC0AAF0A0C0ABF065
:100C5000A1C0ACF0A70E0001AD6F000EAE6F38DF83
:100C600000C09EF001C09FF002C0A0F003C0A1F040
:100C700000C0A9F001C0AAF002C0ABF003C0ACF004
:100C8000A7C0ADF0A8C0AEF0AE33AD33AE9FAEBDE1
:100C9000AE8F22EC02F000C09EF001C09FF002C0B7
:100CA000A0F003C0A1F0000E046E000E056E000E51
:100CB000066E7F0E076E9AC000F09BC001F09CC0CC
:100CC00002F09DC003F09EEC01F0010ED8B0000EC2
:100CD000006E005219E09EC004F09FC005F0A0C055
:100CE00006F0A1C007F0000E006E000E016E000EAF
:100CF000026E7F0E036E1FDC00C09EF001C09FF0ED
:100D000002C0A0F003C0A1F0140E0001A66F9EC0A7
:100D100004F09FC005F0A0C006F0A1C007F09AC083
:100D200000F09BC001F09CC002F09DC003F003DC0A
:100D30009EC004F09FC005F0A0C006F0A1C007F05F
:100D4000B4DC000E046E000E056E000E066E800E02
:100D5000076E9BEC02F000C0A2F001C0A3F002C03D
:100D6000A4F003C0A5F09EC004F09FC005F0A0C091
:100D700006F0A1C007F084EC02F0010ED8A4000E2A
:100D8000006E005201E00CD0A2C09EF0A3C09FF004
:100D9000A4C0A0F0A5C0A1F00001A607A653B7E12A
:100DA0009EC000F09FC001F0A0C002F0A1C003F0FF
:020DB00012002F
:100DB200086A096A000E076203645EEF07F00250D8
:100DC20006180A6E075003267E0ED8A0EFEF06F033
:100DD200035ED8B063EF07F0F3EF06F0035ED8A02E
:100DE20068EF07F0028E068E02C00EF001C00BF013
:100DF20000C00DF000500402F4CF0CF001500502C7
:100E0200F4CF00F0F3CF08F00402F3500C26F450B4
:100E12000822000E00220D500502F3500C26F45059
:100E22000822000E002202500402F3500826F45059
:100E3200002202500502016A000E0122F350002630
:100E4200F45001220D500602F3500826F4500022FD
:100E5200026A000E012202220B500602F350002603
:100E6200F4500122000E02220E500602F350012617
:100E7200F450022202BE46EF07F008360036013671
:100E820002360306D8B468EF07F059EF07F0D880AE
:100E9200800E08640030000E002201220222D8A037
:100EA20059EF07F0023201320032034A63EF07F0D2
:100EB2000AAE029E000E6BEF07F0010E95EC00F0F9
:100EC2006BEF07F0020E89EC00F06BEF07F0040EF7
:060ED2009CEC00F0120090
:100ED8000B800BAE78EF07F0026A0AAEFF0E026EC7
:0C0EE800016E006E0A360232FF0E12008E
:100EF4009AC004F09BC005F004C002F005C003F0E2
:100F0400044A052A9CC000F09DC001F000019C4BDE
:100F14009D2B00C0E9FF01C0EAFF02C0E1FF03C04E
:100F2400E2FFEECFE6FF02C0E9FF03C0EAFFEE52A4
:0E0F340001E0E2D79AC000F09BC001F012006D
:100F4200086A080E0C6E003408360450085ED8B0E9
:0E0F520002D00826D89000360C2EF5D71200DB
:0E0F6000000160919AC0A9F0DCDD60811200F2
:100F6E000C6A0E6A0250D8A4D0EF07F001C002F04E
:100F7E0000C001F0006A0E860250D8A4D0EF07F030
:100F8E0001C002F0016A0E960E880250D8B4E2EF4C
:100F9E0007F00E50035ED8A4D8A0E8EF07F0D89063
:100FAE0002BEEEEF07F0003601360236032ED7EF03
:100FBE0007F0E8EF07F0010E0C6E95EC00F0F2EF83
:100FCE0007F0020E0C6E9CEC00F0F2EF07F0040E30
:080FDE000C6EA9EC00F01200FA
:100FE60094948294020E0B6E190E0C6E810E0D6E89
:100FF6000D2EFED70C2EFCD70B2EFAD700000000C4
:101006008284770E0D6E0D2EFED7000000009484AC
:101016000001876B9F0E0D6E0D2EFED7000000009F
:1010260082B414D0020E0C6E3D0E0D6E0D2EFED740
:101036000C2EFCD70000000082A402D0010E876FA0
:101046009F0E0D6E0D2EFED7000000008751010A7F
:10105600D8A48FD10A6A080E0A5C30E282B401D0A5
:10106600FDD7770E0D6E0D2EFED70000000082B460
:1010760011D00A500708006E00C001F0010E006E84
:10108600015004E000360090FF0FFBD7001E005011
:10109600091612D00A500708006E00C001F0010EB2
:1010A600006E015004E000360090FF0FFBD70050A1
:1010B600091282A401D0FDD70A2ACDD709C085F02E
:1010C6000A6A080E0A5C30E282B401D0FDD7770EB8
:1010D6000D6E0D2EFED70000000082B411D00A500E
:1010E6000708006E00C001F0010E006E015004E01A
:1010F60000360090FF0FFBD7001E0050091612D0D5
:101106000A500708006E00C001F0010E006E015083
:1011160004E000360090FF0FFBD70050091282A4AE
:1011260001D0FDD70A2ACDD709C086F00A6A080E73
:101136000A5C30E282B401D0FDD7770E0D6E0D2E1B
:10114600FED70000000082B411D00A500708006ED6
:1011560000C001F0010E006E015004E00036009060
:10116600FF0FFBD7001E0050091612D00A500708C1
:10117600006E00C001F0010E006E015004E0003662
:101186000090FF0FFBD70050091282A401D0FDD7B3
:101196000A2ACDD709C083F00A6A080E0A5C30E233
:1011A60082B401D0FDD7770E0D6E0D2EFED700004E
:1011B600000082B411D00A500708006E00C001F08A
:1011C600010E006E015004E000360090FF0FFBD7C1
:1011D600001E0050091612D00A500708006E00C003
:1011E60001F0010E006E015004E000360090FF0F82
:1011F600FBD70050091282A401D0FDD70A2ACDD709
:1012060009C06FF00A6A080E0A5C30E282B401D0A7
:10121600FDD7770E0D6E0D2EFED70000000082B4AE
:1012260011D00A500708006E00C001F0010E006ED2
:10123600015004E000360090FF0FFBD7001E00505F
:10124600091612D00A500708006E00C001F0010E00
:10125600006E015004E000360090FF0FFBD70050EF
:10126600091282A401D0FDD70A2ACDD7000109C0F0
:1012760070F086518525006E016A000E01228351A9
:101286000026000E01226F510026000E0122FF0EDD
:101296000014026E01C003F0000E0316000E0318C0
:1012A60002E10250091854E185C06BF0000E6C6F24
:1012B6006D6F6E6F6DC003F06CC002F06BC001F015
:1012C600006A86510010056E01C006F002C007F0E4
:1012D60003C008F0000E06120712081205C06BF0D4
:1012E60006C06CF007C06DF008C06EF007C003F0D2
:1012F60006C002F005C001F0006A83510010056EB9
:1013060001C006F002C007F003C008F0000E061286
:101316000712081205C06BF006C06CF007C06DF02E
:1013260008C06EF007C003F006C002F005C001F069
:10133600006A6F510012000E01120212031200C061
:101346006BF001C06CF002C06DF003C06EF021D0EE
:10135600580E6B6F580E6C6F580E6D6F580E6E6F81
:10136600580E006E580E016E580E026E580E036E21
:1013760010D0630E6B6F630E6C6F630E6D6F630E32
:101386006E6F630E006E630E016E630E026E630E69
:04139600036E1200D0
:10139A000050086E0150006E0250016E0350026E3A
:1013AA00036A0B6A0C6A9E0E036E0A6A020E0C6EC0
:0613BA00ADEC00F0120092
:1013C0000900F5CFE6FF0006FBE10106F9E1120096
:1013D0000ADE00C088F001C089F002C08AF003C0B4
:1013E0008BF00350630A08E10250630A05E10150E3
:1013F000630A02E10050630AD8B494D08B51580AB2
:1014000008E18A51580A05E18951580A02E18851D8
:10141000580AD8B487D0FF0E8815006EFF0E8915C4
:10142000016E8AC002F08BC003F0000E0216031694
:10143000B4DF000E046E000E056E200E066E820EE6
:10144000076E9BEC02F000C08CF001C08DF002C072
:101450008EF003C08FF08CC058F08DC059F08EC054
:101460005AF08FC05BF08AC000F08BC001F0026AB6
:10147000036A00C088F001C089F002C08AF003C08E
:101480008BF0FF0E0016FF0E0116000E021603165B
:1014900084DF000E046E000E056E200E066E820EB6
:1014A000076E9BEC02F000C05CF001C05DF002C072
:1014B0005EF003C05FF0000E046E800E056E080E35
:1014C000066E870E076E8CC000F08DC001F08EC0D6
:1014D00002F08FC003F09BEC02F0000E046E000ED1
:1014E000056E000E066E7F0E076E55EC03F000C011
:1014F0009AF001C09BF002C09CF003C09DF0D0ECBC
:1015000005F09A0E046EB90E056E250E066E870E56
:10151000076E4FDC00C052F001C053F002C054F01F
:0615200003C055F01200AB
:10152600C60E0001716F1B0E726F8C0E736F000E6C
:10153600746FFF0E7B6FFF0E7C6F000E7D6F000ECB
:101546007E6FFF0E7F6FFF0E806F000E816F000EA5
:10155600826FFF0E756FFF0E766F000E776F000EAF
:10156600786FAC8A900EAB6E948E949C9EAA03D034
:08157600AECF00F0FBD712001C
:10157E00959695949598959A959C959E8396839419
:10158E00839E839C839A839805EC02F005EC02F00F
:10159E0005EC02F0838A838883861BEC02F0839627
:1015AE0005EC02F083861BEC02F0839605EC02F04C
:1015BE0083861BEC02F0839605EC02F083988386FB
:1015CE001BEC02F0839605EC02F083861BEC02F016
:1015DE008396839A838E83861BEC02F0839605ECAA
:1015EE0002F0839E838883861BEC02F08396839899
:1015FE0083861BEC02F0839605EC02F083861BECCF
:10160E0002F08396838883861BEC02F0839605ECAA
:10161E0002F0839883861BEC02F08396838E838C74
:10162E00838A838883861BEC02F0839605EC02F096
:06163E00000160811200B2
:101644000B6A0C6A0A6A0350D8B46CEF0BF0028E72
:101654008E0E035E03BE34EF0BF0D8B434EF0BF000
:1016640070EF0BF0036C080E035CD8A04BEF0BF08B
:10167400036E013602C001F0026A080E035CD8A0B2
:101684004BEF0BF00136016A0350D8A4D89055EF04
:101694000BF00350D8B455EF0BF0D890023201325E
:1016A400032E4FEF0BF00BBC01A062EF0BF0D8A0A0
:1016B40062EF0BF0012AD8B4022A02BE7FEF0BF0CE
:1016C4000AAE85EF0BF0021E011E012AD8B4022ACD
:1016D40085EF0BF0026A016A85EF0BF00B800BAE0D
:1016E40089EF0BF0026A0AAE89EF0BF0FF0E026E6F
:1016F400016E0A36023289EF0BF0010E0C6E6CECAF
:1017040007F08BEF0BF0000E0C6E8BEF0BF0FF0E5F
:0C1714000C6E0150006E0250016E1200BD
:101720000001986B996B8CC094F08DC095F08EC0C1
:1017300096F08FC097F09751FF0A08E19651FF0A83
:1017400005E19551FF0A02E19451FF0A0DE190C0B5
:101750009AF091C09BF0180E9C6F000E9D6F7AEC72
:1017600007F0030E006EEDD1010E926F96AF0ED012
:10177000800E9619006E00C096F0922B90C0E1FF8B
:1017800091C0E2FF2D0EE66E904B912B000E006E85
:10179000971908E10050961905E10050951902E1EA
:1017A0009451000A0CE190C09AF091C09BF0280E71
:1017B0009C6F000E9D6F7AEC07F0006AC2D19751C2
:1017C000FF0A08E19651000A05E19551000A02E17D
:1017D0009451000A0DE190C09AF091C09BF02A0E3E
:1017E0009C6F000E9D6F7AEC07F092C000F0A9D1BB
:1017F000000E046E000E056E000E066E7F0E076E64
:1018000094C000F095C001F096C002F097C003F0BC
:101810009EEC01F0010ED8B0000E006E00521CE0EC
:1018200094C000F095C001F096C002F097C003F09C
:10183000000E046E000E056E200E066E820E076E00
:10184000D9EC06F000C094F001C095F002C096F00B
:1018500003C097F09907CCD7000E046E000E056EFA
:10186000200E066E820E076E94C000F095C001F047
:1018700096C002F097C003F09EEC01F0000ED8B0C5
:10188000010E006E00521CE094C000F095C001F003
:1018900096C002F097C003F0CD0E046ECC0E056E1C
:1018A0004C0E066E7B0E076ED9EC06F000C094F06D
:1018B00001C095F002C096F003C097F0992BCCD7E9
:1018C000FF0E9415086EFF0E9515096E7F0E961586
:1018D0000A6E000E97150B6E08C004F009C005F0E3
:1018E0000AC006F00BC007F0043604900536063631
:1018F0000736000E9415006E000E9515016E000E51
:101900009615026EFF0E9715036E00C094F001C08D
:1019100095F002C096F003C097F004509411006E49
:1019200005509511016E06509611026E07509711E1
:10193000036E00C094F001C095F002C096F003C0A1
:1019400097F07F0E975D006E00C093F0010E976FC9
:1019500000C004F094C000F095C001F096C002F001
:1019600097C003F0045007E00036009001360236BD
:101970000336FF0FF8D700C094F001C095F002C005
:1019800096F003C097F090C0E1FF91C0E2FF97513D
:10199000300FE66E904B912B800E9919006E800EE1
:1019A000010A005C08E3800E060A006E800E991999
:1019B000005C01E30AD090C0E1FF91C0E2FF2E0E6F
:1019C000E66E904B912B010E986F060E936F93511C
:1019D000000A54E0976B94C000F095C001F096C0E7
:1019E00002F097C003F0003600900136023603364D
:1019F0000036009001360236033694510026955188
:101A00000122965102229751032200C094F001C096
:101A100095F002C096F003C097F094C000F095C016
:101A200001F096C002F097C003F000360090013636
:101A30000236033600C094F001C095F002C096F063
:101A400003C097F090C0E1FF91C0E2FF9751300FC3
:101A5000E66E904B912B9851000A0EE1990799512F
:101A6000000A0AE190C0E1FF91C0E2FF2E0EE66E8F
:101A7000904B912B010E986F9307A9D7FF0E9025DD
:101A8000E96EFF0E9121EA6EEE50300A05E1010E7B
:101A9000905F000E915BF2D7FF0E9025E96EFF0E6E
:101AA0009121EA6EEE502E0A04E1010E905F000EC5
:101AB000915B9951000A3FE090C0E1FF91C0E2FFC5
:101AC000650EE66E904B912B800E9919006E800E7C
:101AD000000A005C0BE290C0E1FF91C0E2FF2D0E16
:101AE000E66E904B912B99510008996F99C093F035
:101AF000995109080FE20A0E046E93C000F0A1ECA0
:101B000007F090C0E1FF91C0E2FF0050300FE66E99
:101B1000904B912B0A0E046E93C000F0A1EC07F0DD
:101B200008C000F090C0E1FF91C0E2FF0050300F0C
:101B3000E66E904B912B90C0E1FF91C0E2FFE66A08
:041B4000006A120025
:101B440010D0800E00018C6F1AD0C00E8C6F17D08D
:101B5400940E8C6F14D0D40E8C6F11D0800E8C6FB9
:101B64000ED000018C51010AECE08C51020AEDE028
:101B74008C51030AEDE08C51040AEDE0EFD78D059A
:101B8400006E8C51002600C08CF000C0A9F091ECCE
:101B940005F06091906B90518E25E96E000E8F21B7
:101BA400EA6EEE520CE090518E25E96E000E8F2104
:101BB400EA6EEECF9AF0B0EC07F0902BECD7608190
:021BC40012000D
:0E1BC600ACB202D00000FCD78CC0ADFF120004
:101BD40000018E6B8E518C25E96E000E8D21EA6E0C
:101BE400EE520CE08E518C25E96E000E8D21EA6ECA
:0E1BF400EECF9AF0B0EC07F08E2BECD712007B
:101C02000050086E0150006E016A026A036A0B6A94
:101C12000C6A960E036E0A6A00C001F008C000F05A
:0A1C2200086A026AB7EC07F012002E
:101C2C0026EC0FF0F28EF28CF288F18EF18C170EFE
:101C3C00C16E070EB46ECD6A9D80040ECA6E9D8275
:101C4C00950ECB6E95909592070E936E8390839222
:101C5C00816A610E566E000E576E690E0001676F39
:101C6C00000E686F636B646B656B666B516A346AEC
:101C7C00356A366A2E6A2F6A306A316A326A336A7A
:101C8C00696B6A6B200E376E310E386E0D0E3B6E23
:101C9C0070DC010EA96F91EC05F00C0EA96F91ECA4
:101CAC0005F0B886040EB06EE10EAF6EAC8435DC78
:101CBC00070E0B6E170E0C6E6A0E0D6E0D2EFED7E8
:101CCC000C2EFCD70B2EFAD70000E8EC09F065C0FF
:101CDC0000F066C001F08FDFAB0E046EAA0E056E2D
:101CEC002A0E066E7B0E076ED9EC06F000C030F0A3
:101CFC0001C031F002C032F003C033F052C004F026
:101D0C0053C005F054C006F055C007F0D9EC06F0EE
:101D1C00000E046E000E056E7A0E066E890E076EAE
:101D2C009BEC02F000C04CF001C04DF002C04EF034
:101D3C0003C04FF0000E046E000E056E200E066EF2
:101D4C00820E076ED9EC06F077DC00C069F001C09A
:101D5C006AF0020E506E040E505C13E2370EE16E08
:101D6C00000EE26E5050E126D8B0E22A67C0E9FFBF
:101D7C0068C0EAFFEECFE6FF0001674B682B502AE4
:101D8C00EAD7000152C08CF053C08DF054C08EF0D5
:101D9C0055C08FF03C0E906F000E916FBBDC4CC0A9
:101DAC008CF04DC08DF04EC08EF04FC08FF0440EB5
:101DBC00906F000E916FAEDC010E8C6F010E8D6F6B
:101DCC001C0E8E6F000E8F6FB7DE3C0E8C6F000EEC
:101DDC008D6FFADE020E8C6F010E8D6F220E8E6FE0
:101DEC00000E8F6FA9DE440E8C6F000E8D6FECDE33
:101DFC00846B845104080EE3370EE96E000EEA6E14
:101E0C008451E926D8B0EA2AEECF8CF0D6DE000158
:101E1C00842BEFD7100E0C6E940E0D6E0D2EFED77C
:0A1E2C000C2EFCD7000051D7FFD7A1
:101E4C0010EE18F0160E006E010E016E360EF66EC8
:0E1E5C001E0EF76E000EF86EE0EC09F012009C
:041E36004E614E00AB
:061E3A0056656C3A200021
:061E40004469733A200022
:021E460030006A
:041E4800494E4600B9
:020000040030CA
:0E000000210E3F1EFF8381FF0FC00FE00F4057
:00000001FF
