:04000000B7EF0DF059
:1000080000C018F001C017F002C016F003C015F0C8
:10001800E1CF1BF0E2CF1CF0F3CF19F0F4CF1AF0C8
:100028009EA21AD0000E006E5B50005C02E15A508E
:1000380014080AE3541C006E00C054F000B002D04B
:10004800839001D0838005D0CA948390CD80CE6AF6
:10005800CF6A5A4A5B2A9E92F2A2BED04AC0E1FFFA
:100068004BC0E2FFCECFE6FF010E4A24E16E000E40
:100078004B20E26ECFCFE6FF46C037F047C038F0DE
:100088004450465C0001716F45504758726F3450B8
:10009800030825E32D502C08016E000E026E010E98
:1000A80002567251025C02E17151015C17E22C0E9A
:1000B800016E010E026E2D500126D8B0022A0250A0
:1000C800725D02E10150715D09E2342A3450030A7D
:1000D80004E137C05DF0010E436E01D0346A43502D
:1000E800010A37E1352A5D50375C026E02C05EF0C6
:1000F80035C000F0003600900006960E0002F3CFDF
:1001080003F003C03FF02D50025C016E026A000E3E
:10011800025A800E0218006E800E005C02E1035045
:10012800015C17E22D505E24016E026A000E022265
:10013800800E006E800E0218005C02E101503F5CE8
:1001480008E2848237C05EF0010E406E000E416EF8
:10015800436A000E411802E1010E401838E1422AB4
:100168005E50375C026E02C088F042C000F0003674
:1001780000900006960E0002F3CF03F003C05FF074
:100188002D50025C016E026A000E025A800E02189F
:10019800006E800E005C02E10350015C18E2000171
:1001A8002D508825016E026A000E0222800E006E14
:1001B800800E0218005C02E101505F5C08E2849244
:1001C80037C088F0406A416ACD90466A476A46C09F
:1001D80044F047C045F0F2929EB09E9019C0F3FFDC
:1001E8001AC0F4FF18C000F017C001F016C002F0E2
:0E01F80015C003F01BC0E1FF1CC0E2FF1100A8
:080206000AAE029E000E120078
:10020E000B820BAE11EF01F0036802680168006803
:08021E000A360232FF0E120045
:0E022600026A016A006A086A036A000E12008A
:100234000B840BAE25EF01F0010E036E026A016A16
:0A024400006A0A360232FF0E1200B3
:08024E000B6A0B86FF0E120083
:100256000A6A0350D8A40A800750D8A40A820A5012
:10026600D8B48EEF01F0030AD8B447EF01F00AB014
:1002760042EF01F006AE8CEF01F08AEF01F002AE1C
:100286008AEF01F08CEF01F00250800B0A6E029E9D
:100296000650800B069E0A18D8B458EF01F00A5093
:1002A600D8B48AEF01F08CEF01F00750035CD8B4A4
:1002B60062EF01F0D8A07EEF01F084EF01F0065066
:1002C600025CD8B46CEF01F0D8A07EEF01F084EFA9
:1002D60001F00550015CD8B476EF01F0D8A07EEFAE
:1002E60001F084EF01F00450005CD8B48EEF01F009
:1002F600D8B084EF01F00A52D8B48CEF01F08AEF3F
:1003060001F00A52D8B48AEF01F08CEF01F0D880E0
:0E0316001200D8901200D880D8841200120075
:100324000CB0D4EF01F00CA27AEF02F00E6A000ECA
:100334000264EBEF01F0F00E0214D8A4B6EF01F062
:10034400023A01380F0B02260138F00B016E003817
:100354000F0B01260038F00B006E08380F0B002637
:100364000838F00B086E0E84D89002BECFEF01F06F
:1003740008360036013602360E2A02BECFEF01F0EF
:1003840008360036013602360E2A02BECFEF01F0DF
:1003940008360036013602360E2A0E50036470EF1A
:1003A40002F0035E0BBC08AE75EF02F0D880800E3D
:1003B40008640030000E002201220222D8A075EF4A
:1003C40002F0023201320032034A7AEF02F075EF92
:1003D40002F001C002F000C001F008C000F0086A99
:1003E400000E0E86026422EF02F0F00E0214D8A46E
:1003F4000AEF02F0023A01380F0B02260138F00B23
:10040400016E00380F0B01260038F00B006E0E84CD
:10041400D89002BECFEF01F00036013602360E2A24
:1004240002BECFEF01F00036013602360E2A02BEBC
:10043400CFEF01F00036013602360E2ACFEF01F07D
:1004440001C002F000C001F0006A000E0E960E8892
:1004540002644FEF02F0F00E0214D8A43AEF02F057
:10046400023A01380F0B02260138F00B016E0E849C
:10047400D89002BECFEF01F0013602360E2A02BE3A
:10048400CFEF01F0013602360E2A02BECFEF01F0A3
:10049400013602360E2ACFEF01F001C002F0016AE4
:1004A400000E0E8602647FEF02F0F00E0214D8A450
:1004B4005EEF02F0023A0E84D89002BECFEF01F054
:1004C40002360E2A02BECFEF01F002360E2A02BE19
:1004D400CFEF01F002360E2ACFEF01F0010E0C6EC1
:1004E400A7DE82EF02F0020E0C6E8BDE82EF02F0CA
:1004F400040E0C6E8ADE82EF02F0080E0C6E91DEA2
:020504001200E3
:0E050600030E0D6E0D2EFED700000000120039
:10051400560E0C6EB50E0D6E0D2EFED70C2EFCD79E
:06052400000000001200BF
:0E052A00C70E0D6E0D2EFED700000000120051
:10053800AA0E046E000E056E030E0424E96E000E6A
:100548000520EA6E7E0EEE5C006E016A000E015A0E
:10055800AEC0E1FFAFC0E2FF00C0E6FF01C0E6FFAA
:10056800030E0424E16E000E0520E26E7E0EE66E98
:10057800AAC000F0ABC001F0ACC002F0ADC003F0FF
:0205880012005F
:10058A00AA0E0001B06F000EB16F030EB025D96E2E
:10059A00000EB121DA6EDE50AE25016E000EAF21DB
:1005AA00026E01C0AEF002C0AFF0800E0218006EFB
:1005BA00800E005C02E1000E015C05E2006A016A3D
:1005CA00026A036A3ED0800E006E800EAF19005C8C
:1005DA0002E1AE51FF0825E2046A056A066A076A63
:1005EA00AAC000F0ABC001F0ACC002F0ADC003F08D
:1005FA002DDE010ED8B0000E006E005209E0FF0E8B
:10060A00006EFF0E016EFF0E026EFF0E036E19D012
:10061A00FF0E006EFF0E016E7F0E026EFF0E036E5E
:10062A0010D0030EB025E16E000EB121E26EAEC00D
:10063A00E6FFAAC000F0ABC001F0ACC002F0ADC04A
:04064A0003F01200A7
:10064E00025006180E6E086A096A0B6A0350076498
:10065E001AEF04F006500A6E068E028E03500B6ED1
:10066E000750036E000E0B646AEF03F00B50075E2B
:10067E00D8B40BEF04F0070E0764D9EF03F0075E52
:10068E0000C008F001C000F002C001F0026A074E7F
:10069E000BEF04F00764AEEF03F0075E00C008F046
:1006AE0001C000F0016A074E0BEF04F007648CEFF7
:1006BE0003F0075E00C008F0006A074E0BEF04F06F
:1006CE00076473EF03F00AC002F005C001F004C026
:1006DE0000F0086A35EF05F0030E07647EEF03F0B5
:1006EE00075E08380F0B086E074E0BEF04F0D8901C
:1006FE000832074E0BEF04F0D8900832074E0BEF7E
:10070E0004F0D89008320BEF04F0030E07649DEF4F
:10071E0003F0075E08380F0B086E0038F00B082642
:10072E0000380F0B006E074E0BEF04F0D89000321E
:10073E000832074E0BEF04F0D89000320832074E05
:10074E000BEF04F0D890003208320BEF04F0030EDA
:10075E000764C5EF03F0075E08380F0B086E00380C
:10076E00F00B082600380F0B006E0138F00B002638
:10077E0001380F0B016E074E0BEF04F0D8900132CB
:10078E0000320832074E0BEF04F0D89001320032DF
:10079E000832074E0BEF04F0D890013200320832C7
:1007AE000BEF04F0030E0764F6EF03F0075E083854
:1007BE000F0B086E0038F00B082600380F0B006E7A
:1007CE000138F00B002601380F0B016E0238F00BCA
:1007DE00012602380F0B026E074E0BEF04F0D89075
:1007EE000232013200320832074E0BEF04F0D8907D
:1007FE000232013200320832074E0BEF04F0D8906D
:10080E000232013200320832096A000E0EAEFFEFDC
:10081E0004F0081E001E011E021E082A00220122DC
:10082E000222FFEF04F00750D8A420EF04F035EFBA
:10083E0005F0096A02C00AF0028E068E0750035CAC
:10084E00076ED8B4F2EF04F0070E0764C0EF04F0A1
:10085E00075E0450096E0550046E0650056E066A5A
:10086E00074EF2EF04F0070E076495EF04F0075EF3
:10087E000450096E0550046E056A074EF2EF04F03F
:10088E00070E076473EF04F0075E0450096E046AE6
:10089E00074EF2EF04F0070E07645AEF04F00AC099
:1008AE0002F035EF05F0030E076465EF04F0075E06
:1008BE0009380F0B096E074EF2EF04F0D89009328B
:1008CE00074EF2EF04F0D8900932074EF2EF04F023
:1008DE00D8900932F2EF04F0030E076484EF04F0AF
:1008EE00075E09380F0B096E0438F00B0926043821
:1008FE000F0B046E074EF2EF04F0D890043209325B
:10090E00074EF2EF04F0D89004320932074EF2EFA0
:10091E0004F0D89004320932F2EF04F0030E0764AB
:10092E00ACEF04F0075E09380F0B096E0438F00BBC
:10093E00092604380F0B046E0538F00B0426053813
:10094E000F0B056E074EF2EF04F0D890053204320D
:10095E000932074EF2EF04F0D89005320432093214
:10096E00074EF2EF04F0D890053204320932F2EF5E
:10097E0004F0030E0764DDEF04F0075E09380F0B79
:10098E00096E0438F00B092604380F0B046E053877
:10099E00F00B042605380F0B056E0638F00B0526F6
:1009AE0006380F0B066E074EF2EF04F0D8900632A3
:1009BE00053204320932074EF2EF04F0D8900632B7
:1009CE00053204320932074EF2EF04F0D8900632A7
:1009DE00053204320932086A000E0EAEFFEF04F043
:1009EE00091E041E051E061E092A042205220622C1
:1009FE0009500826045000220550012206500222FA
:100A0E000EBE16EF05F0D8A025EF05F0023201322A
:100A1E0000320832033E25EF05F02FEF05F0D8B077
:100A2E002AEF05F0000E081E001E011E021E082AE7
:100A3E000022012202220A7E2AEF05F0010E0C6E20
:100A4E006ADC37EF05F0020E0C6E65DC37EF05F051
:100A5E00040E0C6E07EC01F037EF05F0000E0C6E75
:020A6E00120074
:100A70000450000A12E10550000A0FE10650000A76
:100A80000CE10750000A09E1FF0E006EFF0E016E37
:100A90007F0E026EFF0E036EA8D0086A096A075027
:100AA000D8B4E3EF05F00350D8B4E8EF05F00250F6
:100AB00006180A6E028E068E0E6A02C008F001C089
:100AC0000CF000C00DF004500D5E0550D8A0053CA0
:100AD0000C5E0650D8A0063C085E086A0C6A0D6AD7
:100AE000D8A07AEF05F0D8900232013200320832F5
:100AF000010E0E6E0750035ED8A087EF05F07E0E44
:100B00000E240326D8B0EDEF05F08DEF05F07E0E34
:100B10000E240326D8A0F2EF05F0180E0B6E0D364A
:100B20000C3608360036013602360E360450005EAA
:100B30000550D8A0053C015E0650D8A0063C025ED8
:100B400006340E120EA0A8EF05F00D80B3EF05F0ED
:100B5000045000260550D8B0053C01260650D8B0F8
:100B6000062802260D900B2E8FEF05F0D9EF05F029
:100B7000D8900036013602360E360450005E05501D
:100B8000D8A0053C015E0650D8A0063C025E0634A3
:100B90000E10010B0D26D8B00C2AD8B4082AD8A400
:100BA000D9EF05F008320C320D32032AD8B4EDEF3C
:100BB00005F00AAE089E0850026E0C50016E0D50F2
:100BC000006EF5EF05F0010E27EC01F0F5EF05F0F2
:100BD000020E13EC01F0F5EF05F0040E07EC01F046
:0C0BE000F5EF05F0080E1AEC01F0120011
:100BEC00080E0C6EC10E0D6E0D2EFED70C2EFCD702
:060BFC00000000001200E1
:100C0200020E0C6E350E0D6E0D2EFED70C2EFCD77D
:060C1200000000001200CA
:100C18000C6A0E6A0250D8A425EF06F001C002F053
:100C280000C001F0006A0E860250D8A425EF06F035
:100C380001C002F0016A0E960E880250D8B437EF50
:100C480006F00E50035ED8A4D8A03DEF06F0D89069
:100C580002BE43EF06F0003601360236032E2CEFB3
:100C680006F03DEF06F0010E0C6E13EC01F047EFB5
:100C780006F0020E0C6E1AEC01F047EF06F0040EB7
:080C88000C6E03EC01F01200F8
:100C90000001AABF02D0839E01D0838EAABD02D0DC
:100CA000839C01D0838CAABB02D0839A01D0838A13
:100CB000AAB902D0839801D083885CB002D0838423
:100CC00001D0839483861FDC8396AAB702D0839ECB
:100CD00001D0838EAAB502D0839C01D0838CAAB3A5
:100CE00002D0839A01D0838AAAB102D0839801D01E
:100CF00083885CB002D0838401D08394838603DC34
:0E0D000083965CA002D006DC01D00FDC12004E
:100D0E0003500718D8A49BEF06F002500618D8A47B
:100D1E009BEF06F001500518D8A49BEF06F000508B
:0E0D2E000418D8B4D8841200D8941200120011
:0C0D3C005C909BC0AAF0A6DF5C80120057
:100D48000B6A0A6A096A00500402F4CF09F0F3CF6B
:100D580008F001500502F4CF0BF0F3CF0AF0005071
:100D68000502F3500926F4500A22E86A0B220150C2
:100D78000402F3500926F4500A22E86A0B2208C03C
:100D880000F009C001F00AC002F00BC003F0120025
:100D98000050086E0150006E016A026A036A0B6A0D
:100DA8000C6A960E036E0A6A00C001F008C000F0D3
:080DB800086A026A2DDF120037
:100DC000086A096A000E0762036465EF07F00250C3
:100DD00006180A6E075003267E0ED8A0F6EF06F01E
:100DE000035ED8B06AEF07F0FAEF06F0035ED8A012
:100DF0006FEF07F0028E068E02C00EF001C00BF0FE
:100E000000C00DF000500402F4CF0CF001500502B8
:100E1000F4CF00F0F3CF08F00402F3500C26F450A6
:100E20000822000E00220D500502F3500C26F4504B
:100E30000822000E002202500402F3500826F4504B
:100E4000002202500502016A000E0122F350002622
:100E5000F45001220D500602F3500826F4500022EF
:100E6000026A000E012202220B500602F3500026F5
:100E7000F4500122000E02220E500602F350012609
:100E8000F450022202BE4DEF07F00836003601365C
:100E900002360306D8B46FEF07F060EF07F0D88092
:100EA000800E08640030000E002201220222D8A029
:100EB00060EF07F0023201320032034A6AEF07F0B6
:100EC0000AAE029E000E72EF07F0010E13EC01F065
:100ED00072EF07F0020E07EC01F072EF07F0040E5C
:060EE0001AEC01F0120003
:100EE6000B800BAE7FEF07F0026A0AAEFF0E026EB2
:0C0EF600016E006E0A360232FF0E120080
:100F02009DC001F0010E006E015004E00036009019
:100F1200FF0FFBD700C09FF0001E9BC0E9FF9CC0E3
:100F2200EAFF0050EF16120EE9260050EF165DDEC2
:100F320000019F51EF12120EE95E62DE9F51EF1423
:100F42009E6F9E51000A000ED8A4010E9E6F4DDEC8
:060F52009EC000F0120039
:100F5800086A080E0C6E003408360450085ED8B0D3
:0E0F680002D00826D89000360C2EF5D71200C5
:100F76009DC001F0010E006E015004E000360090A5
:100F8600FF0FFBD700C0A1F0001E00C0A0F09BC061
:100F9600E9FF9CC0EAFF0050EF16120EE926000199
:100FA6009F6B9F51070815E39FC000F09EC001F09C
:100FB600005004E00132019EFF0FFBD7A051EF164F
:100FC60001A002D0A151EF1219DEA151EF129F2B01
:100FD600E8D7120EE95E95EC02F095EC02F01200ED
:100FE6009BC004F09CC005F09DC006F09EC007F0B3
:100FF600006A016A026A036A2BEC01F0000ED8B09F
:10100600010E006E005205E0006A016A026A036A78
:10101600EFD09BC09FF09CC0A0F09DC0A1F09EC0E9
:10102600A2F0000E046E000E056E000E066E7F0E18
:10103600076E9BC000F09CC001F09DC002F09EC0F0
:1010460003F02BEC01F0010ED8B0000E006E00523A
:1010560019E09FC004F0A0C005F0A1C006F0A2C030
:1010660007F0000E006E000E016E000E026E7F0E7F
:10107600036EFBDC00C09FF001C0A0F002C0A1F02F
:1010860003C0A2F09FC0AAF0A0C0ABF0A1C0ACF014
:10109600A2C0ADF0A80E0001AE6F000EAF6F9CECC3
:1010A60002F000C09FF001C0A0F002C0A1F003C092
:1010B600A2F000C0AAF001C0ABF002C0ACF003C0C1
:1010C600ADF0A8C0AEF0A9C0AFF0AF33AE33AF9F5E
:1010D600AFBDAF8FC5EC02F000C09FF001C0A0F01D
:1010E60002C0A1F003C0A2F0000E046E000E056E51
:1010F600000E066E7F0E076E9BC000F09CC001F0CE
:101106009DC002F09EC003F02BEC01F0010ED8B09A
:10111600000E006E005219E09FC004F0A0C005F05A
:10112600A1C006F0A2C007F0000E006E000E016E10
:10113600000E026E7F0E036E98DC00C09FF001C0A9
:10114600A0F002C0A1F003C0A2F0140E0001A76F28
:101156009FC004F0A0C005F0A1C006F0A2C007F031
:101166009BC000F09CC001F09DC002F09EC003F041
:101176007CDC9FC004F0A0C005F0A1C006F0A2C0B0
:1011860007F027EC03F0000E046E000E056E000E4D
:10119600066E800E076E69DC00C0A3F001C0A4F0E5
:1011A60002C0A5F003C0A6F09FC004F0A0C005F0E1
:1011B600A1C006F0A2C007F0A7DD010ED8A4000E5C
:1011C600006E005201E00CD0A3C09FF0A4C0A0F0B6
:1011D600A5C0A1F0A6C0A2F00001A707A753B8E1D9
:1011E6009FC000F0A0C001F0A1C002F0A2C003F0B1
:0211F6001200E5
:1011F8009DC001F0010E006E015004E00036009021
:10120800FF0FFBD700C0A1F0001C0001A06F9F6B6F
:101218009BC0E9FF9CC0EAFF9E6B9E51070824E330
:10122800A051EF16120EE926A051EF1683EC02F03A
:10123800A151EF1283EC02F0120EE95EA151EF14F6
:10124800006E0CE09EC001F0010E006E015004E03B
:1012580000360090FF0FFBD700509F1395EC02F06B
:0E12680095EC02F09E2BD9D79FC000F012002B
:101276009BC004F09CC005F004C002F005C003F05A
:10128600044A052A9DC000F09EC001F000019D4B56
:101296009E2B00C0E9FF01C0EAFF02C0E1FF03C0C8
:1012A600E2FFEECFE6FF02C0E9FF03C0EAFFEE521F
:0E12B60001E0E2D79BC000F09CC001F01200E6
:1012C4000900F5CFE6FF0006FBE10106F9E1120093
:1012D400F28EF28CF288F18EF18C0F0EC16E070E35
:1012E400B46ECD6A9D80CA6A9D82950ECB6E959030
:0C12F400959296909692070E936E120051
:10130000959695949598959A959C959E8396839499
:10131000839E839C839A83988AEC02F08AEC02F085
:101320008AEC02F0838A8388838683EC02F08396BA
:101330008AEC02F0838683EC02F083968AEC02F05A
:10134000838683EC02F083968AEC02F0839883868E
:1013500083EC02F083968AEC02F0838683EC02F041
:101360008396839A838E838683EC02F083968AEC3D
:1013700002F0839E8388838683EC02F083968398B1
:10138000838683EC02F083968AEC02F0838683ECFA
:1013900002F083968388838683EC02F083968AEC3E
:1013A00002F08398838683EC02F08396838E838C8D
:1013B000838A8388838683EC02F083968AEC02F02A
:0413C0005C8012003B
:1013C400FF0E0001696FFF0E6A6FFF0E6B6FFF0E59
:1013D4006C6FFF0E6D6FFF0E6E6F000E6F6F000E61
:1013E400706FFF0E656FFF0E666F000E676F000E65
:1013F400686FFF0E616FFF0E626F000E636F000E69
:10140400646FAC8A900EAB6E948E949C9EAA03D0AB
:08141400AECF00F0FBD712007F
:10141C00840E00019B6F0F0E9C6F020E9D6F6BDD97
:10142C00840E9B6F0F0E9C6F020E9D6FCC0E9E6FE9
:10143C009CDD840E9B6F0F0E9C6F020E9D6F440EF5
:10144C009E6F93DD020E0C6EDD0E0D6E0D2EFED713
:10145C000C2EFCD700000000840E9B6F0F0E9C6FAF
:10146C00020E9D6F48DD840E9B6F0F0E9C6F020E5B
:10147C009D6FCC0E9E6F79DD840E9B6F0F0E9C6F53
:10148C00020E9D6FBE0E9E6F70DD840E9B6F0F0E55
:10149C009C6F020E9D6FAADE00C08DF0000E8E6F49
:1014AC00840E9B6F0F0E9C6F020E9D6F9FDE00C013
:1014BC0005F0046A8D510424026E8E510520036ED2
:1014CC0002C08DF003C08EF003AE02D08D6B8E6B1C
:1014DC008DC093F08EC094F094339333949F9433D7
:1014EC009333949F94339333949F94339333949F77
:1014FC000F0E8D15006E8EC001F0000E0116710ED0
:10150C00046E020E056E1ADC41DC000E046E400EF9
:10151C00056E1C0E066E8C0E076E38EC05F000C0C6
:10152C008FF001C090F002C091F003C092F093C014
:10153C0000F094C001F02ADC8FC004F090C005F0DC
:10154C0091C006F092C007F027EC03F000C04CF0FD
:10155C0001C04DF002C04EF003C04FF0000E046EFF
:10156C00800E056E080E066E870E076E38EC05F0C1
:10157C00000E046E000E056E000E066E7F0E076EDA
:10158C0027EC03F000C09BF001C09CF002C09DF062
:10159C0003C09EF022DD9A0E046EB90E056E250E68
:1015AC00066E870E076E06DC00C050F001C051F0CD
:0A15BC0002C052F003C053F0120009
:1015C6000B6A0C6A0A6A0350D8B42DEF0BF0028E30
:1015D6008E0E035E03BEF5EF0AF0D8B4F5EF0AF0FF
:1015E60031EF0BF0036C080E035CD8A00CEF0BF088
:1015F600036E013602C001F0026A080E035CD8A031
:101606000CEF0BF00136016A0350D8A4D89016EF00
:101616000BF00350D8B416EF0BF0D890023201321B
:10162600032E10EF0BF00BBC01A023EF0BF0D8A09C
:1016360023EF0BF0012AD8B4022A02BE40EF0BF0CA
:101646000AAE45EF0BF0021E011E012AD8B4022A8B
:1016560045EF0BF0026A016A45EF0BF00B800BAE0B
:1016660049EF0BF0026A0AAE49EF0BF0FF0E026E6D
:10167600016E0A36023249EF0BF0010E0C6E30DCB9
:101686004BEF0BF0000E0C6E4BEF0BF0FF0E0C6EDB
:0A1696000150006E0250016E1200B8
:1016A0000001996B9A6B8DC095F08EC096F08FC03B
:1016B00097F090C098F09851FF0A08E19751FF0AFF
:1016C00005E19651FF0A02E19551FF0A0CE191C034
:1016D0009BF092C09CF0290E9D6F000E9E6FCBDD9B
:1016E000030E006EEBD1010E936F97AF0ED0800EFC
:1016F0009719006E00C097F0932B91C0E1FF92C044
:10170000E2FF2D0EE66E914B922B000E006E9819A3
:1017100008E10050971905E10050961902E1955132
:10172000000A0BE191C09BF092C09CF0210E9D6FCE
:10173000000E9E6FA0DD006AC1D19851FF0A08E13A
:101740009751000A05E19651000A02E19551000AFD
:101750000CE191C09BF092C09CF01D0E9D6F000E9D
:101760009E6F89DD93C000F0A9D1000E046E000EBB
:10177000056E000E066E7F0E076E95C000F096C0D7
:1017800001F097C002F098C003F02BEC01F0010EBD
:10179000D8B0000E006E00521CE095C000F096C05C
:1017A00001F097C002F098C003F0000E046E000E26
:1017B000056E200E066E820E076EE0EC06F000C08D
:1017C00095F001C096F002C097F003C098F09A0718
:1017D000CCD7000E046E000E056E200E066E820E33
:1017E000076E95C000F096C001F097C002F098C057
:1017F00003F02BEC01F0000ED8B0010E006E005289
:101800001CE095C000F096C001F097C002F098C0AF
:1018100003F0CD0E046ECC0E056E4C0E066E7B0EE4
:10182000076EE0EC06F000C095F001C096F002C033
:1018300097F003C098F09A2BCCD7FF0E9515086E41
:10184000FF0E9615096E7F0E97150A6E000E9815FD
:101850000B6E08C004F009C005F00AC006F00BC00A
:1018600007F004360490053606360736000E951547
:10187000006E000E9615016E000E9715026EFF0E9B
:101880009815036E00C095F001C096F002C097F065
:1018900003C098F004509511006E05509611016E2A
:1018A00006509711026E07509811036E00C095F014
:1018B00001C096F002C097F003C098F07F0E985DCB
:1018C000006E00C094F0010E986F00C004F095C047
:1018D00000F096C001F097C002F098C003F00450E9
:1018E00007E000360090013602360336FF0FF8D7C6
:1018F00000C095F001C096F002C097F003C098F0C8
:1019000091C0E1FF92C0E2FF9851300FE66E914B1B
:10191000922B800E9A19006E800E010A005C08E37B
:10192000800E060A006E800E9A19005C01E30AD050
:1019300091C0E1FF92C0E2FF2E0EE66E914B922B1A
:10194000010E996F060E946F9451000A54E0986B43
:1019500095C000F096C001F097C002F098C003F067
:10196000003600900136023603360036009001360C
:1019700002360336955100269651012297510222D4
:101980009851032200C095F001C096F002C097F074
:1019900003C098F095C000F096C001F097C002F027
:1019A00098C003F00036009001360236033600C0BE
:1019B00095F001C096F002C097F003C098F091C076
:1019C000E1FF92C0E2FF9851300FE66E914B922BEF
:1019D0009951000A0EE19A079A51000A0AE191C052
:1019E000E1FF92C0E2FF2E0EE66E914B922B010EAC
:1019F000996F9407A9D7FF0E9125E96EFF0E9221EA
:101A0000EA6EEE50300A05E1010E915F000E925B26
:101A1000F2D7FF0E9125E96EFF0E9221EA6EEE508D
:101A20002E0A04E1010E915F000E925B9A51000AAA
:101A30003FE091C0E1FF92C0E2FF650EE66E914B80
:101A4000922B800E9A19006E800E000A005C0BE249
:101A500091C0E1FF92C0E2FF2D0EE66E914B922BFA
:101A60009A5100089A6F9AC094F09A5109080FE2AF
:101A70000A0E046E94C000F0ACEC07F091C0E1FFD8
:101A800092C0E2FF0050300FE66E914B922B0A0E8F
:101A9000046E94C000F0ACEC07F008C000F091C0F8
:101AA000E1FF92C0E2FF0050300FE66E914B922BA7
:0E1AB00091C0E1FF92C0E2FFE66A006A1200F8
:101ABE0000018F6B8F518D25E96E000E8E21EA6E1F
:101ACE00EE520CE08F518D25E96E000E8E21EA6EDE
:0E1ADE00EECF9BF09EEC06F08F2BECD71200A3
:101AEC0010D0800E00018D6F1AD0C00E8D6F17D0E4
:101AFC00940E8D6F14D0D40E8D6F11D0800E8D6F0F
:101B0C000ED000018D51010AECE08D51020AEDE07E
:101B1C008D51030AEDE08D51040AEDE0EFD78E05EF
:101B2C00006E8D51002600C08DF000C0AAF048EC6C
:101B3C0006F05C90916B91518F25E96E000E90210F
:101B4C00EA6EEE520CE091518F25E96E000E902159
:101B5C00EA6EEECF9BF09EEC06F0912BECD75C80FE
:021B6C00120065
:101B6E00CAEC0EF06AEC09F0839083828492816A4B
:101B7E00460E4A6E000E4B6E580E486E000E496EA3
:101B8E005A6A5B6A566A576A546A556A446A456A63
:101B9E00376A386A396A3A6A3B6A3C6A586A596ADD
:101BAE00366A346A356A426A436A406A416A3D6AF5
:101BBE003E6A3F6A5F6A200E0001736F310E746FCA
:101BCE000D0E776F80EC09F0010EAA6F48EC06F04F
:101BDE000C0EAA6F48EC06F0B886040EB06EE10E3D
:101BEE00AF6EAC84E2EC09F0070E0B6E170E0C6EA6
:101BFE006A0E0D6E0D2EFED70C2EFCD70B2EFAD7BD
:101C0E00000005DC546A5A6A5B6A466A476A446A8F
:101C1E00456A376A386A0001716B726B346A356ACD
:101C2E00426A436A406A416A3D6A3E6A5D6A5E6A1A
:101C3E00886B3F6A5F6ACA8456C000F057C001F0D5
:101C4E00CCEC06F0AB0E046EAA0E056E2A0E066ED6
:101C5E007B0E076EE0EC06F000C039F001C03AF0E2
:101C6E0002C03BF003C03CF050C004F051C005F080
:101C7E0052C006F053C007F0E0EC06F0000E046E02
:101C8E00000E056E7A0E066E890E076E38EC05F0A4
:101C9E0000C089F001C08AF002C08BF003C08CF046
:101CAE00000E046E000E056E200E066E820E076E7E
:101CBE00E0EC06F081DC00C058F001C059F0020ED5
:101CCE000001606F040E605D12E2730EE16E000E95
:101CDE00E26E6051E126D8B0E22A48C0E9FF49C061
:101CEE00EAFFEECFE6FF484A492A602BEBD739C010
:101CFE008DF03AC08EF03BC08FF03CC090F0780E65
:101D0E00916F000E926FC5DC89C08DF08AC08EF087
:101D1E008BC08FF08CC090F0800E916F000E926F82
:101D2E00B8DC010E8D6F010E8E6F2E0E8F6F000EB2
:101D3E00906FD5DE780E8D6F000E8E6FB9DE020EAF
:101D4E008D6F010E8E6F230E8F6F000E906FC7DE9C
:101D5E00800E8D6F000E8E6FABDEEA0E0C6EC30E14
:0E1D6E000D6E0D2EFED70C2EFCD74BD7FFD7D7
:101D940010EE1DF0170E006E010E016E7C0EF66E35
:0E1DA4001D0EF76E000EF86E62EC09F01200D4
:041D7C00494E460086
:021D8000300031
:061D82004473743A2000D6
:041D88004E614E005A
:011D8C00084E
:061D8D00544F463A20000D
:020000040030CA
:0E000000210E3F1EFF8381FF0FC00FE00F4057
:00000001FF
