:04000000FDEF04F01C
:1000080000C015F0E1CF16F0E2CF17F09EA245D060
:100018008372000E006E4A50005C02E149502B08C2
:100028001AE3551C006E00C055F000B002D0839052
:1000380001D08380000E4A1802E1010E491803E13D
:10004800CD80CE6ACF6A000E4A1802E1160E491812
:10005800D8B4556A17D083904DC0E1FF4EC0E2FF77
:10006800CECFE6FF010E4D24E16E000E4E20E26E6B
:10007800CFCFE6FF4FC04BF050C04CF0CD904F6A49
:10008800506AF292030E4A5C02E1200E495C02E3D8
:10009800496A4A6A494A4A2A9E9215C000F016C01F
:0800A800E1FF17C0E2FF1100A7
:0600B00000000000120038
:1000B6000F0E0C6E470E0D6E0D2EFED70C2EFCD7B6
:0600C60000000000120022
:0A00CC00210E0D6E0D2EFED712005E
:1000D6000B840BAE76EF00F0010E036E026A016A26
:0A00E600006A0A360232FF0E120013
:0800F0000AAE029E000E120090
:0E00F800026A016A006A086A036A000E1200BA
:100106000B820BAE8DEF00F0036802680168006891
:080116000A360232FF0E12004E
:10011E00000169BF02D0839E01D0838E69BD02D0DB
:10012E00839C01D0838C69BB02D0839A01D0838AD1
:10013E0069B902D0839801D0838848B002D08384F5
:10014E0001D083948386ADDF839669B702D0839EF8
:10015E0001D0838E69B502D0839C01D0838C69B3A4
:10016E0002D0839A01D0838A69B102D0839801D0DC
:10017E00838848B002D0838401D08394838691DF34
:0E018E00839648A002D090DF01D099DF1200C6
:10019C00086A080E0C6E003408360450085ED8B09D
:0E01AC0002D00826D89000360C2EF5D712008F
:1001BA00086A096A000E0762036462EF01F00250DE
:1001CA0006180A6E075003267E0ED8A0F3EF00F039
:1001DA00035ED8B066EF01F0F7EF00F0035ED8A037
:1001EA006AEF01F0028E068E02C00EF001C00BF01B
:1001FA0000C00DF000500402F4CF0CF001500502CB
:10020A00F4CF00F0F3CF08F00402F3500C26F450B8
:10021A000822000E00220D500502F3500C26F4505D
:10022A000822000E002202500402F3500826F4505D
:10023A00002202500502016A000E0122F350002634
:10024A00F45001220D500602F3500826F450002201
:10025A00026A000E012202220B500602F350002607
:10026A00F4500122000E02220E500602F35001261B
:10027A00F450022202BE4AEF01F008360036013677
:10028A0002360306D8B46AEF01F05DEF01F0D880B8
:10029A00800E08640030000E002201220222D8A03B
:1002AA005DEF01F0023201320032034A66EF01F0DB
:1002BA000AAE029E000E6CEF01F0010E18DF6CEF21
:1002CA0001F0020E1BDF6CEF01F0040EFFDE1200DC
:1002DA0065C004F066C005F004C002F005C003F072
:1002EA00044A052A67C000F068C001F00001674BA4
:1002FA00682B00C0E9FF01C0EAFF02C0E1FF03C0AA
:10030A00E2FFEECFE6FF02C0E9FF03C0EAFFEE52CA
:0E031A0001E0E2D765C000F066C001F01200FD
:100328000A6A0350D8A40A800750D8A40A820A503F
:10033800D8B4F7EF01F0030AD8B4B0EF01F00AB06F
:10034800ABEF01F006AEF5EF01F0F3EF01F002AE0E
:10035800F3EF01F0F5EF01F00250800B0A6E029EF8
:100368000650800B069E0A18D8B4C1EF01F00A5057
:10037800D8B4F3EF01F0F5EF01F00750035CD8B4FF
:10038800CBEF01F0D8A0E7EF01F0EDEF01F0065058
:10039800025CD8B4D5EF01F0D8A0E7EF01F0EDEF9B
:1003A80001F00550015CD8B4DFEF01F0D8A0E7EF09
:1003B80001F0EDEF01F00450005CD8B4F7EF01F064
:1003C800D8B0EDEF01F00A52D8B4F5EF01F0F3EF31
:1003D80001F00A52D8B4F3EF01F0F5EF01F0D8803C
:0E03E8001200D8901200D880D88412001200A3
:1003F6000C6A0E6A0250D8A414EF02F001C002F093
:1004060000C001F0006A0E860250D8A414EF02F074
:1004160001C002F0016A0E960E880250D8B426EF8B
:1004260002F00E50035ED8A4D8A02BEF02F0D890AD
:1004360002BE30EF02F0003601360236032E1BEF05
:1004460002F02BEF02F0010E0C6E53DE33EF02F0DA
:10045600020E0C6E3DDE33EF02F0040E0C6E45DE2E
:02046600120082
:0C046800489065C069F057DE4880120023
:100474000FD0800E576E19D0C00E576E16D0940E42
:10048400576E13D0D40E576E10D0800E576E0DD009
:100494005750010AEEE05750020AEEE05750030AA3
:1004A400EEE05750040AEEE0F0D75804006E5750BF
:1004B400002600C057F000C069F02FDE48905B6A48
:1004C4005B505924E96E000E5A20EA6EEE520BE09E
:1004D4005B505924E96E000E5A20EA6EEECF65F0A7
:0A04E400C1DF5B2AEDD7488012004B
:1004EE00959695949598959A959C959E83968394BA
:1004FE00839E839C839A8398D7DDD6DDD5DD838A50
:10050E0083888386CEDD8396CFDD8386CADD839690
:10051E00CBDD8386C6DD8396C7DD83988386C1DDFA
:10052E008396C2DD8386BDDD8396839A838E838612
:10053E00B8DD8396B9DD839E83888386B2DD83968C
:10054E0083988386AEDD8396AFDD8386AADD8396A0
:10055E0083888386A6DD8396A7DD83988386A1DDB7
:10056E008396838E838C838A838883869ADD839693
:06057E009BDD4880120025
:100584000900F5CFE6FF0006FBE10106F9E11200E0
:100594000050086E0150006E016A026A036A0B6A19
:1005A4000C6A960E036E0A6A00C001F008C000F0DF
:0805B400086A026A1EDF120052
:1005BC000001636B646B57C05FF058C060F059C0AA
:1005CC0061F05AC062F06251FF0A08E16151FF0A02
:1005DC0005E16051FF0A02E15F50FF0A0CE15BC0CC
:1005EC0065F05CC066F0340E676F000E686F6FDEEE
:1005FC00030E006EE6D1010E5D6E61AF0ED0800E63
:10060C006119006E00C061F05D2A5BC0E1FF5CC047
:10061C00E2FF2D0EE66E5B4A5C2A000E006E62193C
:10062C0008E10050611905E10050601902E15F50CA
:10063C00000A0BE15BC065F05CC066F0380E676FBA
:10064C00000E686F44DE006ABCD16251FF0A08E1FB
:10065C006151000A05E16051000A02E15F50000A95
:10066C000CE15BC065F05CC066F0300E676F000E8D
:10067C00686F2DDE5DC000F0A4D1000E046E000E7C
:10068C00056E000E066E7F0E076E5FC000F060C038
:10069C0001F061C002F062C003F040DE010ED8B080
:1006AC00000E006E00521BE05FC000F060C001F055
:1006BC0061C002F062C003F0000E046E000E056E05
:1006CC00200E066E820E076E72DD00C05FF001C058
:1006DC0060F002C061F003C062F06407CED7000E78
:1006EC00046E000E056E200E066E820E076E5FC045
:1006FC0000F060C001F061C002F062C003F00EDED9
:10070C00000ED8B0010E006E00521BE05FC000F06E
:10071C0060C001F061C002F062C003F0CD0E046E47
:10072C00CC0E056E4C0E066E7B0E076E40DD00C0C7
:10073C005FF001C060F002C061F003C062F0642B96
:10074C00CED7FF0E5F14086EFF0E6015096E7F0E7C
:10075C0061150A6E000E62150B6E08C004F009C01C
:10076C0005F00AC006F00BC007F0043604900536FD
:10077C0006360736000E5F14006E000E6015016E13
:10078C00000E6115026EFF0E6215036E00C05FF065
:10079C0001C060F002C061F003C062F004505F1051
:1007AC00006E05506011016E06506111026E07500B
:1007BC006211036E00C05FF001C060F002C061F016
:1007CC0003C062F07F0E625D006E00C05EF0010E31
:1007DC00626F00C004F05FC000F060C001F061C047
:1007EC0002F062C003F0045007E0003600900136BE
:1007FC0002360336FF0FF8D700C05FF001C060F07F
:10080C0002C061F003C062F05BC0E1FF5CC0E2FFBC
:10081C006251300FE66E5B4A5C2A800E6419006EE2
:10082C00800E010A005C08E3800E060A006E800E42
:10083C006419005C01E30AD05BC0E1FF5CC0E2FF1D
:10084C002E0EE66E5B4A5C2A010E636F060E5E6E20
:10085C005E50000A54E0626B5FC000F060C001F0B3
:10086C0061C002F062C003F000360090013602361F
:10087C000336003600900136023603365F500026F0
:10088C0060510122615102226251032200C05FF0CB
:10089C0001C060F002C061F003C062F05FC000F004
:1008AC0060C001F061C002F062C003F0003600903D
:1008BC0001360236033600C05FF001C060F002C0A2
:1008CC0061F003C062F05BC0E1FF5CC0E2FF62510B
:1008DC00300FE66E5B4A5C2A6351000A0EE1640736
:1008EC006451000A0AE15BC0E1FF5CC0E2FF2E0E1E
:1008FC00E66E5B4A5C2A010E636F5E06A9D7FF0E9B
:10090C005B24E96EFF0E5C20EA6EEE50300A05E1C6
:10091C00010E5B5E000E5C5AF2D7FF0E5B24E96E93
:10092C00FF0E5C20EA6EEE502E0A04E1010E5B5EB7
:10093C00000E5C5A6451000A3EE05BC0E1FF5CC0F3
:10094C00E2FF650EE66E5B4A5C2A800E6419006E4F
:10095C00800E000A005C0BE25BC0E1FF5CC0E2FFB2
:10096C002D0EE66E5B4A5C2A64510008646F64C00D
:10097C005EF0645109080EE20A0E046E5EC000F0CF
:10098C0007DC5BC0E1FF5CC0E2FF0050300FE66E9D
:10099C005B4A5C2A0A0E046E5EC000F0CEEC00F0DE
:1009AC0008C000F05BC0E1FF5CC0E2FF0050300FFC
:1009BC00E66E5B4A5C2A5BC0E1FF5CC0E2FFE66A64
:0409CC00006A1200AB
:1009D000596A59505724E96E000E5820EA6EEE52BB
:1009E0000BE059505724E96E000E5820EA6EEECF06
:0A09F00065F03ADD592AEDD7120038
:1009FA0089EC05F0F28EF28CF288F18EF18C170EEA
:100A0A00C16E070EB46ECD6A9D80040ECA6E9D82B9
:100A1A00950ECB6E95909592070E936E8390839266
:100A2A00816A4F0E4D6E000E4E6E496A4A6A4B6AD3
:100A3A004C6A556A566A516A526A536A546A446AD7
:100A4A00456A466A476A4EDD010E576E010E586EB8
:100A5A00230E596E000E5A6E08DD010E696F8FEC77
:100A6A0000F00C0E696F8FEC00F04BC000F04CC028
:100A7A0001F08BDDAB0E046EAA0E056E2A0E066E11
:100A8A007B0E076EDDEC00F000C044F001C045F0BB
:100A9A0002C046F003C047F000C057F001C058F04A
:100AAA0002C059F003C05AF03A0E5B6E000E5C6E3B
:100ABA0080DD010E576E010E586E180E596E000E2B
:100ACA005A6ED3DC3A0E576E000E586E7CDF030E58
:100ADA000C6E970E0D6E0D2EFED70C2EFCD7000055
:060AEA000000C3D7FFD796
:100B120010EE18F0220E006E010E016EF00EF66E4F
:0E0B22000A0EF76E000EF86EC2EC02F0120022
:0B0AF0004475726163696F6E3A20006C
:0D0AFB00494E494349414E444F2E2E2E00D6
:040B0800494E46000C
:040B0C004E614E00E8
:020B10003000B3
:020000040030CA
:0E000000210E1F1EFF8381FF0FC00FE00F4077
:00000001FF
