:0400000079EF07F09D
:1000080000C015F0E1CF16F0E2CF17F09EA237D06E
:10001800000E006E4B50005C02E14A502B081BE3B7
:10002800471C006E00C047F000B002D0839001D09A
:100038008380000E4B1802E1190E4A1803E1CD80A7
:10004800CE6ACF6A000E4B1802E1160E4A1802E17A
:10005800476A838203D08390010E306E030E4B5C97
:1000680002E1200E4A5C08E34A6A4B6A2E6A2F6A4C
:100078002C6A2D6A556A566A4A4A4B2A9E92F2A2FF
:1000880039D043C0E1FF44C0E2FFCECFE6FF010E06
:100098004324E16E000E4420E26ECFCFE6FF4AC053
:1000A8002CF04BC02DF02E504A5C556E2F504B58FB
:1000B800566E000E006E4B50005C02E14A502B0851
:1000C80014E256502D1802E12C5055180EE0000E7F
:1000D800561802E1020E551808E041C048F042C027
:1000E80049F0CD90416A426A83924AC02EF04BC0D3
:1000F8002FF0F2929EB09E9015C000F016C0E1FF5E
:0601080017C0E2FF110028
:10010E00560E0C6EB50E0D6E0D2EFED70C2EFCD7A8
:06011E00000000001200C9
:0E012400030E0D6E0D2EFED70000000012001F
:0E013200C70E0D6E0D2EFED70000000012004D
:080140000AAE029E000E12003F
:100148000B820BAEAEEF00F003680268016800682E
:080158000A360232FF0E12000C
:10016000086A096A100E0C6E01340836093604500C
:10017000085E0550D8A0053C095ED8B007D00450F1
:1001800008260550D8B0053C0926D890003601361F
:060190000C2EEAD712005C
:100196000B840BAED6EF00F0010E036E026A016A05
:0A01A600006A0A360232FF0E120052
:0E01B000026A016A006A086A036A000E120001
:1001BE00000185BF02D0839E01D0838E85BD02D003
:1001CE00839C01D0838C85BB02D0839A01D0838A15
:1001DE0085B902D0839801D0838850B002D0838431
:1001EE0001D08394838697DF839685B702D0839E52
:1001FE0001D0838E85B502D0839C01D0838C85B3CC
:10020E0002D0839A01D0838A85B102D0839801D01F
:10021E00838850B002D0838401D0839483867BDFA1
:0E022E00839650A002D06CDF01D07CDF12005E
:10023C00086A080E0C6E003408360450085ED8B0FC
:0E024C0002D00826D89000360C2EF5D71200EE
:10025A000B800BAE39EF01F0026A0AAEFF0E026E96
:0C026A00016E006E0A360232FF0E120018
:100276000A6A0350D8A40A800750D8A40A820A50F2
:10028600D8B49EEF01F0030AD8B457EF01F00AB0D4
:1002960052EF01F006AE9CEF01F09AEF01F002AECC
:1002A6009AEF01F09CEF01F00250800B0A6E029E5D
:1002B6000650800B069E0A18D8B468EF01F00A5063
:1002C600D8B49AEF01F09CEF01F00750035CD8B464
:1002D60072EF01F0D8A08EEF01F094EF01F0065016
:1002E600025CD8B47CEF01F0D8A08EEF01F094EF59
:1002F60001F00550015CD8B486EF01F0D8A08EEF6E
:1003060001F094EF01F00450005CD8B49EEF01F0C8
:10031600D8B094EF01F00A52D8B49CEF01F09AEFEE
:1003260001F00A52D8B49AEF01F09CEF01F0D880A0
:0E0336001200D8901200D880D8841200120055
:0C03440050907EC085F039DF5080120020
:100350000001826B050E825D0AE282518025E16E0A
:10036000000E8121E26E200EE66E822BF3D78251C1
:100370008025E16E000E8121E26EE66A82078251DD
:100380008025836F000E8121846F0A0E046E000E9B
:10039000056E7EC000F07FC001F0E2DE08C000F014
:1003A00009C001F0300E002683C0E1FF84C0E2FFE7
:1003B00000C0E6FF0A0E046E000E056E7EC000F05F
:1003C0007FC001F0CDDE00C07EF001C07FF0000EE6
:1003D000011802E1000E001801E102D08207CFD718
:0203E000120009
:1003E200086A096A000E0762036476EF02F002509F
:1003F20006180A6E075003267E0ED8A007EF02F0F9
:10040200035ED8B07AEF02F00BEF02F0035ED8A0E1
:100412007EEF02F0028E068E02C00EF001C00BF0DB
:1004220000C00DF000500402F4CF0CF001500502A0
:10043200F4CF00F0F3CF08F00402F3500C26F4508E
:100442000822000E00220D500502F3500C26F45033
:100452000822000E002202500402F3500826F45033
:10046200002202500502016A000E0122F35000260A
:10047200F45001220D500602F3500826F4500022D7
:10048200026A000E012202220B500602F3500026DD
:10049200F4500122000E02220E500602F3500126F1
:1004A200F450022202BE5EEF02F008360036013638
:1004B20002360306D8B47EEF02F071EF02F0D88064
:1004C200800E08640030000E002201220222D8A011
:1004D20071EF02F0023201320032034A7AEF02F087
:1004E2000AAE029E000E80EF02F0010E60DE80EF87
:1004F20002F0020E28DE80EF02F0040E4BDE120044
:100502007EC004F07FC005F004C002F005C003F015
:10051200044A052A80C000F081C001F00001804B2E
:10052200812B00C0E9FF01C0EAFF02C0E1FF03C066
:10053200E2FFEECFE6FF02C0E9FF03C0EAFFEE52A0
:0E05420001E0E2D77EC000F07FC001F01200A1
:080550000B6A0B86FF0E12007E
:100558000C6A0E6A0250D8A4C5EF02F001C002F07E
:1005680000C001F0006A0E860250D8A4C5EF02F060
:1005780001C002F0016A0E960E880250D8B4D7EF77
:1005880002F00E50035ED8A4D8A0DCEF02F0D89099
:1005980002BEE1EF02F0003601360236032ECCEF40
:1005A80002F0DCEF02F0010E0C6EFEDDE4EF02F06B
:1005B800020E0C6EECDDE4EF02F0040E0C6EBCDDF6
:0205C80012001F
:0E05CA00ACB202D00000FCD770C0ADFF120032
:1005D8000900F5CFE6FF0006FBE10106F9E112008C
:1005E8000050086E0150006E016A026A036A0B6AC5
:1005F8000C6A960E036E0A6A00C001F008C000F08B
:08060800086A026AA5DF120076
:10061000CA0E4C6E050E4D6E700E4E6E000E4F6E75
:10062000FF0E516EFF0E526E000E536E000E546E92
:10063000FF0E5B6EFF0E5C6E000E5D6E000E5E6E5A
:10064000FF0E576EFF0E586E000E596E000E5A6E5A
:10065000AC8A900EAB6E948E949C9EAA03D0AECFC3
:0606600000F0FBD71200C0
:10066600959695949598959A959C959E8396839440
:10067600839E839C839A839847DD46DD45DD838A86
:10068600838883864CDD83963FDD838648DD8396AB
:100696003BDD838644DD839637DD839883863FDDA5
:1006A600839632DD83863BDD8396839A838E8386AB
:1006B60036DD839629DD839E8388838630DD8396A7
:1006C600839883862CDD83961FDD838628DD8396BB
:1006D6008388838624DD839617DD839883861FDDD2
:1006E6008396838E838C838A8388838618DD83969C
:0606F6000BDD5080120034
:1006FC000001726B72517025E96E000E7121EA6E69
:10070C00EE520BE072517025E96E000E7121EA6E0B
:0C071C00EECF7EF011DE722BEDD7120044
:100728000001766B776B70C078F071C079F0800E3D
:100738007119006E800E005C02E1000E705D0BE224
:10074800010E766F000E776F70510008786F71C0D8
:1007580079F0000E795778C07EF079C07FF072C0CA
:1007680080F073C081F0F0DD060E746F000E756FB7
:10077800000E006E7551005C02E17451000819E228
:1007880074517225E16E75517321E26E010E745D2C
:10079800006E000E7559016E00507225E96E015009
:1007A8007321EA6EEECFE6FF010E745F000E755BF3
:1007B800DFD772C0E1FF73C0E2FF200EE66E76510C
:1007C80077111AE0746B756B74517225E96E755167
:1007D8007321EA6EEE50200A03E1744B752BF4D7AF
:1007E800010E745F000E755B74517225E16E7551D0
:0A07F8007321E26E2D0EE66E120072
:1008020000017C6B7D6B70C078F071C079F072C0B2
:100812007AF073C07BF07B51FF0A08E17A51FF0A3C
:1008220005E17951FF0A02E17851FF0A0CE174C037
:100832007EF075C07FF0280E806F000E816F60DE43
:10084200030E006EE7D1010E766F7AAF0ED0800EE6
:100852007A19006E00C07AF0762B74C0E1FF75C081
:10086200E2FF2D0EE66E744B752B000E006E7B19A7
:1008720008E100507A1905E10050791902E1785136
:10088200000A0BE174C07EF075C07FF0260E806F07
:10089200000E816F35DE006ABDD17B51FF0A08E18F
:1008A2007A51000A05E17951000A02E17851000A01
:1008B2000CE174C07EF075C07FF0180E806F000EE0
:1008C200816F1EDE76C000F0A5D1000E046E000E10
:1008D200056E000E066E7F0E076E78C000F079C0BE
:1008E20001F07AC002F07BC003F0C4DC010ED8B084
:1008F200000E006E00521BE078C000F079C001F0DB
:100902007AC002F07BC003F0000E046E000E056E8A
:10091200200E066E820E076E63DD00C078F001C005
:1009220079F002C07AF003C07BF07D07CED7000ECB
:10093200046E000E056E200E066E820E076E78C0E3
:1009420000F079C001F07AC002F07BC003F092DCC3
:10095200000ED8B0010E006E00521BE078C000F00D
:1009620079C001F07AC002F07BC003F0CD0E046EB4
:10097200CC0E056E4C0E066E7B0E076E31DD00C08E
:1009820078F001C079F002C07AF003C07BF07D2BD1
:10099200CED7FF0E7815086EFF0E7915096E7F0E01
:1009A2007A150A6E000E7B150B6E08C004F009C0A2
:1009B20005F00AC006F00BC007F0043604900536B5
:1009C20006360736000E7815006E000E7915016E98
:1009D200000E7A15026EFF0E7B15036E00C078F0D2
:1009E20001C079F002C07AF003C07BF004507811A4
:1009F200006E05507911016E06507A11026E075091
:100A02007B11036E00C078F001C079F002C07AF069
:100A120003C07BF07F0E7B5D006E00C077F0010E9D
:100A22007B6F00C004F078C000F079C001F07AC09A
:100A320002F07BC003F0045007E00036009001365C
:100A420002360336FF0FF8D700C078F001C079F004
:100A520002C07AF003C07BF074C0E1FF75C0E2FF10
:100A62007B51300FE66E744B752B800E7D19006E34
:100A7200800E010A005C08E3800E060A006E800EFA
:100A82007D19005C01E30AD074C0E1FF75C0E2FF8A
:100A92002E0EE66E744B752B010E7C6F060E776F71
:100AA2007751000A54E07B6B78C000F079C001F006
:100AB2007AC002F07BC003F00036009001360236A5
:100AC200033600360090013602360336785100268E
:100AD200795101227A5102227B51032200C078F01F
:100AE20001C079F002C07AF003C07BF078C000F058
:100AF20079C001F07AC002F07BC003F000360090AA
:100B020001360236033600C078F001C079F002C027
:100B12007AF003C07BF074C0E1FF75C0E2FF7B5145
:100B2200300FE66E744B752B7C51000A0EE17D0787
:100B32007D51000A0AE174C0E1FF75C0E2FF2E0E8A
:100B4200E66E744B752B010E7C6F7707A9D7FF0EEB
:100B52007425E96EFF0E7521EA6EEE50300A05E14A
:100B6200010E745F000E755BF2D7FF0E7425E96EFD
:100B7200FF0E7521EA6EEE502E0A04E1010E745F3B
:100B8200000E755B7D51000A3FE074C0E1FF75C045
:100B9200E2FF650EE66E744B752B800E7D19006EBA
:100BA200800E000A005C0BE274C0E1FF75C0E2FF38
:100BB2002D0EE66E744B752B7D5100087D6F7DC046
:100BC20077F07D5109080FE20A0E046E77C000F03B
:100BD2001EEC01F074C0E1FF75C0E2FF0050300F5F
:100BE200E66E744B752B0A0E046E77C000F01EEC95
:100BF20001F008C000F074C0E1FF75C0E2FF0050D0
:100C0200300FE66E744B752B74C0E1FF75C0E2FFC6
:060C1200E66A006A120010
:100C18000B6A0C6A0A6A0350D8B456EF06F0028EC3
:100C28008E0E035E03BE1EEF06F0D8B41EEF06F06C
:100C38005AEF06F0036C080E035CD8A035EF06F0F7
:100C4800036E013602C001F0026A080E035CD8A0E8
:100C580035EF06F00136016A0350D8A4D8903FEF6B
:100C680006F00350D8B43FEF06F0D89002320132B4
:100C7800032E39EF06F00BBC01A04CEF06F0D8A00C
:100C88004CEF06F0012AD8B4022A02BE69EF06F03A
:100C98000AAE6FEF06F0021E011E012AD8B4022A1E
:100CA8006FEF06F0026A016A6FEF06F00B800BAE79
:100CB80073EF06F0026A0AAE73EF06F0FF0E026EDB
:100CC800016E0A36023273EF06F0010E0C6E2DEC3F
:100CD80001F075EF06F0000E0C6E75EF06F0FF0ED2
:0C0CE8000C6E0150006E0250016E1200F4
:100CF40010D0800E0001706F1AD0C00E706F17D024
:100D0400940E706F14D0D40E706F11D0800E706F6B
:100D14000ED000017051010AECE07051020AEDE0BE
:100D24007051030AEDE07051040AEDE0EFD771054C
:100D3400006E7051002600C070F000C085F0DFEC3A
:100D440000F05090746B74517225E96E000E73219B
:100D5400EA6EEE520CE074517225E96E000E7321B6
:100D6400EA6EEECF7EF0A2EC01F0742BECD750804B
:020D740012006B
:100D76000450000A12E10550000A0FE10650000A6D
:100D86000CE10750000A09E1FF0E006EFF0E016E2E
:100D96007F0E026EFF0E036EA8D0086A096A07501E
:100DA600D8B466EF07F00350D8B46BEF07F00250E3
:100DB60006180A6E028E068E0E6A02C008F001C080
:100DC6000CF000C00DF004500D5E0550D8A0053C97
:100DD6000C5E0650D8A0063C085E086A0C6A0D6ACE
:100DE600D8A0FDEF06F0D890023201320032083268
:100DF600010E0E6E0750035ED8A00AEF07F07E0EB6
:100E06000E240326D8B070EF07F010EF07F07E0E21
:100E16000E240326D8A075EF07F0180E0B6E0D36BC
:100E26000C3608360036013602360E360450005EA1
:100E36000550D8A0053C015E0650D8A0063C025ECF
:100E460006340E120EA02BEF07F00D8036EF07F0DA
:100E5600045000260550D8B0053C01260650D8B0EF
:100E6600062802260D900B2E12EF07F05CEF07F016
:100E7600D8900036013602360E360450005E055014
:100E8600D8A0053C015E0650D8A0063C025E06349A
:100E96000E10010B0D26D8B00C2AD8B4082AD8A4F7
:100EA6005CEF07F008320C320D32032AD8B470EF2B
:100EB60007F00AAE089E0850026E0C50016E0D50E7
:100EC600006E78EF07F0010EA8EC02F078EF07F05D
:100ED600020ED8EC00F078EF07F0040EA4EC00F058
:0C0EE60078EF07F0080ECBEC00F01200D3
:100EF20088EC08F0F28EF28CF288F18EF18C170EEB
:100F0200C16E070EB46ECD6A9D80040ECA6E9D82BC
:100F1200950ECB6E95909592070E936E8390839269
:100F2200816A410E436E000E446E450E3F6E000E06
:100F3200406E4A6A4B6A486A496A476A306A2E6A50
:100F42002F6A2C6A2D6A316A326A336A346A456AB8
:100F5200466A200E3A6E310E3B6E0D0E3E6E33EC3B
:100F620003F0010E0001856FDFEC00F00C0E856FBF
:100F7200DFEC00F0B886040EB06EE10EAF6EAC840A
:100F820008EC03F0070E0B6E170E0C6E6A0E0D6E58
:100F92000D2EFED70C2EFCD70B2EFAD7000048C020
:100FA20000F049C001F0F4EC02F0AB0E046EAA0EA0
:100FB200056E2A0E066E7B0E076EF1EC01F000C084
:100FC20031F001C032F002C033F003C034F0000E41
:100FD200046E800E056E2B0E066E870E076EF1EC08
:100FE20001F0000E046E000E056E7A0E066E890E7A
:100FF200076EC0DE00C036F001C037F002C038F024
:1010020003C039F0000E046E000E056E200E066E4F
:10101200820E076EF1EC01F0FEDD00C045F001C06A
:1010220046F0020E356E040E355C12E23A0EE16EA7
:10103200000EE26E3550E126D8B0E22A3FC0E9FF49
:1010420040C0EAFFEECFE6FF3F4A402A352AEBD7FF
:1010520036C070F037C071F038C072F039C073F02A
:10106200670E0001746F000E756F01EC04F045C04D
:1010720070F046C071F05F0E726F000E736F94ECE9
:1010820003F0010E706F010E716F1C0E726F000E75
:10109200736F2FDE670E706F000E716F7EEC03F0C0
:1010A200020E706F010E716F210E726F000E736F60
:1010B20020DE5F0E706F000E716F7EEC03F06F6BBF
:1010C2006F5104080FE33A0EE96E000EEA6E6F519B
:1010D200E926D8B0EA2AEECF70F0E5EC02F0000182
:1010E2006F2BEED7100E0C6E940E0D6E0D2EFED7DA
:0A10F2000C2EFCD7000053D7FFD7E7
:1011100010EE18F0140E006E010E016EFC0EF66E4D
:0E112000100EF76E000EF86EECEC02F01200EE
:0410FC00494E460013
:0511000044663A2000E6
:0511050044693A2000DE
:02110A003000B3
:04110C004E614E00E2
:020000040030CA
:0E000000210E3F1EFF8381FF0FC00FE00F4057
:00000001FF
