:04000000F3EF05F025
:1000080000C015F0E1CF16F0E2CF17F09EA23AD06B
:100018008372000E006E5650005C02E155502B08AA
:100028001CE30001601D006E00C060F000B002D04B
:10003800839001D08380000E561802E1190E5518DE
:1000480003E1CD80CE6ACF6A000E561802E1160E83
:10005800551802E10001606B03D08390010E5F6EBA
:10006800030E565C02E1200E555C09E30001556A57
:10007800566A5D6A5E6A536A546A626B636B554A74
:10008800562A9E92F2A239D0000159C0E1FF5AC007
:10009800E2FFCECFE6FF010E5924E16E000E5A2092
:1000A800E26ECFCFE6FF55C053F056C054F05D5016
:1000B800555C626F5E505658636F000E006E565066
:1000C800005C02E155502B0813E26351541802E119
:1000D800535062190DE0000E631902E1020E621915
:1000E80007E057C05BF058C05CF0CD90576A586A7B
:1000F80055C05DF056C05EF0F2929EB09E9015C05D
:0C01080000F016C0E1FF17C0E2FF11007C
:100114000F0E0C6E470E0D6E0D2EFED70C2EFCD757
:06012400000000001200C3
:0A012A00210E0D6E0D2EFED71200FF
:06013400000000001200B3
:10013A000B840BAEA8EF00F0010E036E026A016A8F
:0A014A00006A0A360232FF0E1200AE
:080154000AAE029E000E12002B
:10015C0000017ABF02D0839E01D0838E7ABD02D07B
:10016C00839C01D0838C7ABB02D0839A01D0838A82
:10017C007AB902D0839801D0838861B102D083848C
:10018C0001D083948386D0DF83967AB702D0839E86
:10019C0001D0838E7AB502D0839C01D0838C7AB344
:1001AC0002D0839A01D0838A7AB102D0839801D08D
:1001BC00838861B102D0838401D083948386B4DFB9
:0E01CC00839661A102D0A0DF01D0A9DF12004E
:0E01DA00026A016A006A086A036A000E1200D7
:1001E8000B820BAEFEEF00F003680268016800683E
:0801F8000A360232FF0E12006C
:100200000A6A0350D8A40A800750D8A40A820A5068
:10021000D8B463EF01F0030AD8B41CEF01F00AB0C0
:1002200017EF01F006AE61EF01F05FEF01F002AEF3
:100230005FEF01F061EF01F00250800B0A6E029E49
:100240000650800B069E0A18D8B42DEF01F00A5014
:10025000D8B45FEF01F061EF01F00750035CD8B450
:1002600037EF01F0D8A053EF01F059EF01F006503D
:10027000025CD8B441EF01F0D8A053EF01F059EF80
:1002800001F00550015CD8B44BEF01F0D8A053EF5A
:1002900001F059EF01F00450005CD8B463EF01F0B5
:1002A000D8B059EF01F00A52D8B461EF01F05FEF16
:1002B00001F00A52D8B45FEF01F061EF01F0D8808D
:0E02C0001200D8901200D880D88412001200CC
:1002CE0076C004F077C005F004C002F005C003F05C
:1002DE00044A052A78C000F079C001F00001784B7D
:1002EE00792B00C0E9FF01C0EAFF02C0E1FF03C0A5
:1002FE00E2FFEECFE6FF02C0E9FF03C0EAFFEE52D7
:0E030E0001E0E2D776C000F077C001F01200E7
:10031C000C6A0E6A0250D8A4A7EF01F001C002F0DB
:10032C0000C001F0006A0E860250D8A4A7EF01F0BD
:10033C0001C002F0016A0E960E880250D8B4B9EFD3
:10034C0001F00E50035ED8A4D8A0BEEF01F0D890F7
:10035C0002BEC3EF01F0003601360236032EAEEFBB
:10036C0001F0BEEF01F0010E0C6E31DFC6EF01F0B3
:10037C00020E0C6EDCDEC6EF01F0040E0C6EE4DE39
:02038C0012005D
:10038E00086A080E0C6E003408360450085ED8B0A9
:0E039E0002D00826D89000360C2EF5D712009B
:0E03AC000001619176C07AF0D3DE618112000B
:1003BA00086A096A000E0762036462EF02F00250DB
:1003CA0006180A6E075003267E0ED8A0F3EF01F036
:1003DA00035ED8B066EF02F0F7EF01F0035ED8A033
:1003EA006AEF02F0028E068E02C00EF001C00BF018
:1003FA0000C00DF000500402F4CF0CF001500502C9
:10040A00F4CF00F0F3CF08F00402F3500C26F450B6
:10041A000822000E00220D500502F3500C26F4505B
:10042A000822000E002202500402F3500826F4505B
:10043A00002202500502016A000E0122F350002632
:10044A00F45001220D500602F3500826F4500022FF
:10045A00026A000E012202220B500602F350002605
:10046A00F4500122000E02220E500602F350012619
:10047A00F450022202BE4AEF02F008360036013674
:10048A0002360306D8B46AEF02F05DEF02F0D880B4
:10049A00800E08640030000E002201220222D8A039
:1004AA005DEF02F0023201320032034A66EF02F0D7
:1004BA000AAE029E000E6CEF02F0010E89DE6CEFAE
:1004CA0002F0020E8CDE6CEF02F0040E31DE120036
:0804DA000B6A0B86FF0E1200F5
:1004E20010D0800E0001686F1AD0C00E686F17D04E
:1004F200940E686F14D0D40E686F11D0800E686F9E
:100502000ED000016851010AECE06851020AEDE0E8
:100512006851030AEDE06851040AEDE0EFD769057E
:10052200006E6851002600C068F000C07AF015DE47
:1005320061916C6B6C516A25E96E000E6B21EA6E5B
:10054200EE520BE06C516A25E96E000E6B21EA6EE9
:0E055200EECF76F02ADF6C2BEDD76181120020
:10056000959695949598959A959C959E8396839447
:10057000839E839C839A8398CDDDCCDDCBDD838AFB
:1005800083888386D7DD8396C5DD8386D3DD839616
:10059000C1DD8386CFDD8396BDDD83988386CADD8A
:1005A0008396B8DD8386C6DD8396839A838E8386A1
:1005B000C1DD8396AFDD839E83888386BBDD839612
:1005C00083988386B7DD8396A5DD8386B3DD839626
:1005D00083888386AFDD83969DDD83988386AADD3D
:1005E0008396838E838C838A83888386A3DD839618
:0805F00091DD000161811200A0
:1005F8000900F5CFE6FF0006FBE10106F9E112006C
:100608000450000A12E10550000A0FE10650000AE2
:100618000CE10750000A09E1FF0E006EFF0E016EA3
:100628007F0E026EFF0E036EA4D0086A096A075097
:10063800D8B4AFEF03F00350D8B4B3EF03F00250CF
:1006480006180A6E028E068E0E6A02C008F001C0F5
:100658000CF000C00DF004500D5E0550D8A0053C0C
:100668000C5E0650D8A0063C085E086A0C6A0D6A43
:10067800D8A046EF03F0D890023201320032083297
:10068800010E0E6E0750035ED8A053EF03F07E0EE6
:100698000E240326D8B0B7EF03F059EF03F07E0E0F
:1006A8000E240326D8A0BBEF03F0180E0B6E0D36F0
:1006B8000C3608360036013602360E360450005E17
:1006C8000550D8A0053C015E0650D8A0063C025E45
:1006D80006340E120EA074EF03F00D807FEF03F0C6
:1006E800045000260550D8B0053C01260650D8B065
:1006F800062802260D900B2E5BEF03F0A5EF03F002
:10070800D8900036013602360E360450005E055089
:10071800D8A0053C015E0650D8A0063C025E06340F
:100728000E10010B0D26D8B00C2AD8B4082AD8A46C
:10073800A5EF03F008320C320D32032AD8B4B7EF14
:1007480003F00AAE089E0850026E0C50016E0D5060
:10075800006EBDEF03F0010EBCDEBDEF03F0020E2C
:1007680038DDBDEF03F0040E3BDDBDEF03F0080EEE
:04077800E0DC1200AF
:10077C000050086E0150006E016A026A036A0B6A2F
:10078C000C6A960E036E0A6A00C001F008C000F0F5
:08079C00086A026ABDDD1200CB
:1007A4000001746B756B68C070F069C071F06AC049
:1007B40072F06BC073F07351FF0A08E17251FF0AC3
:1007C40005E17151FF0A02E17051FF0A0CE16CC0AE
:1007D40076F06DC077F0370E786F000E796F75DDA7
:1007E400030E006EE6D1010E6E6F72AF0ED0800E56
:1007F4007219006E00C072F06E2B6CC0E1FF6DC008
:10080400E2FF2D0EE66E6C4B6D2B000E006E73191D
:1008140008E10050721905E10050711902E17051AC
:10082400000A0BE16CC076F06DC077F0310E786F82
:10083400000E796F4ADD006ABCD17351FF0A08E1EA
:100844007251000A05E17151000A02E17051000A77
:100854000CE16CC076F06DC077F0330E786F000E4B
:10086400796F33DD6EC000F0A4D1000E046E000E6B
:10087400056E000E066E7F0E076E70C000F071C02C
:1008840001F072C002F073C003F0B8DC010ED8B0FE
:10089400000E006E00521BE070C000F071C001F049
:1008A40072C002F073C003F0000E046E000E056EF9
:1008B400200E066E820E076E7EDD00C070F001C051
:1008C40071F002C072F003C073F07507CED7000E4A
:1008D400046E000E056E200E066E820E076E70C04A
:1008E40000F071C001F072C002F073C003F086DC46
:1008F400000ED8B0010E006E00521BE070C000F074
:1009040071C001F072C002F073C003F0CD0E046E2A
:10091400CC0E056E4C0E066E7B0E076E4CDD00C0D1
:1009240070F001C071F002C072F003C073F0752B57
:10093400CED7FF0E7015086EFF0E7115096E7F0E6F
:1009440072150A6E000E73150B6E08C004F009C010
:1009540005F00AC006F00BC007F004360490053613
:1009640006360736000E7015006E000E7115016E06
:10097400000E7215026EFF0E7315036E00C070F048
:1009840001C071F002C072F003C073F00450701122
:10099400006E05507111016E06507211026E0750FF
:1009A4007311036E00C070F001C071F002C072F0E8
:1009B40003C073F07F0E735D006E00C06FF0010E14
:1009C400736F00C004F070C000F071C001F072C019
:1009D40002F073C003F0045007E0003600900136C3
:1009E40002360336FF0FF8D700C070F001C071F073
:1009F40002C072F003C073F06CC0E1FF6DC0E2FF8F
:100A04007351300FE66E6C4B6D2B800E7519006EB2
:100A1400800E010A005C08E3800E060A006E800E58
:100A24007519005C01E30AD06CC0E1FF6DC0E2FF00
:100A34002E0EE66E6C4B6D2B010E746F060E6F6FEF
:100A44006F51000A54E0736B70C000F071C001F084
:100A540072C002F073C003F0003600900136023613
:100A640003360036009001360236033670510026F4
:100A740071510122725102227351032200C070F09D
:100A840001C071F002C072F003C073F070C000F0D6
:100A940071C001F072C002F073C003F00036009020
:100AA40001360236033600C070F001C071F002C096
:100AB40072F003C073F06CC0E1FF6DC0E2FF7351CC
:100AC400300FE66E6C4B6D2B7451000A0EE1750706
:100AD4007551000A0AE16CC0E1FF6DC0E2FF2E0E01
:100AE400E66E6C4B6D2B010E746F6F07A9D7FF0E6A
:100AF4006C25E96EFF0E6D21EA6EEE50300A05E1B9
:100B0400010E6C5F000E6D5BF2D7FF0E6C25E96E73
:100B1400FF0E6D21EA6EEE502E0A04E1010E6C5FA9
:100B2400000E6D5B7551000A3EE06CC0E1FF6DC0C4
:100B3400E2FF650EE66E6C4B6D2B800E7519006E30
:100B4400800E000A005C0BE26CC0E1FF6DC0E2FFA6
:100B54002D0EE66E6C4B6D2B75510008756F75C0CC
:100B64006FF0755109080EE20A0E046E6FC000F0B2
:100B74000CDC6CC0E1FF6DC0E2FF0050300FE66E8C
:100B84006C4B6D2B0A0E046E6FC000F0C7EC01F0C5
:100B940008C000F06CC0E1FF6DC0E2FF0050300FF0
:100BA400E66E6C4B6D2B6CC0E1FF6DC0E2FFE66A34
:040BB400006A1200C1
:100BB80000016A6B6A516825E96E000E6921EA6EC8
:100BC800EE520CE06A516825E96E000E6921EA6E62
:0E0BD800EECF76F0D6EC01F06A2BECD71200CF
:100BE600D4EC06F0F28EF28CF288F18EF18C170EB0
:100BF600C16E070EB46ECD6A9D80040ECA6E9D82CC
:100C0600950ECB6E95909592070E936E8390839278
:100C1600816A570E596E000E5A6E556A566A5B6A9D
:100C26005C6A0001606B5F6A5D6A5E6A536A546A59
:100C36003F6A406A416A426A90DC010E686F010EA3
:100C4600696F180E6A6F000E6B6F48DC010E7A6FC3
:100C5600AEEC00F00C0E7A6FAEEC00F05BC000F06C
:100C66005CC001F088DDAB0E046EAA0E056E2A0E7E
:100C7600066E7B0E076EDDEC01F000C064F001C06D
:100C860065F002C066F003C067F064C03FF065C05F
:100C960040F066C041F067C042F0000E006E800E64
:100CA600016E2B0E026E870E036E64C004F065C0E3
:100CB60005F066C006F067C007F0DDEC01F06F0EC8
:100CC600046E120E056E030E066E750E076EDDECD3
:100CD60001F0000E046E000E056E000E066E800E0C
:100CE600076E8FDC00C03BF001C03CF002C03DF057
:100CF60003C03EF064C068F065C069F066C06AF083
:100D060067C06BF0430E00016C6F000E6D6F47DD20
:100D16003BC068F03CC069F03DC06AF03EC06BF075
:100D26004B0E6C6F000E6D6F3ADD010E686F010E93
:100D3600696F2B0E6A6F000E6B6F71EC02F0430E3B
:100D4600686F000E696F35DF020E686F010E696FFE
:100D5600250E6A6F000E6B6F71EC02F04B0E686F1A
:100D6600000E696F26DF030E0C6E970E0D6E0D2EAC
:0E0D7600FED70C2EFCD70000000070D7FFD770
:100DA80010EE18F0230E006E010E016E840EF66E22
:0E0DB8000D0EF76E000EF86EFCEC02F012004D
:0D0D8400494E494349414E444F2E2E2E004A
:060D91004473743A2000D7
:060D9700544F463A200013
:020D9D00300024
:040D9F00494E460073
:040DA3004E614E004F
:020000040030CA
:0E000000210E1F1EFF8381FF0FC00FE00F4077
:00000001FF
