:04000000DEEF05F03A
:1000080000C016F001C015F0E1CF17F0E2CF18F0EC
:100018009EAA24D06BDB00C05DF000500D0A04E1FD
:10002800010E4A6E5D6A5C6A4A50010A16E14B0E7F
:100038000001756F000E766F5C507527D8B0762B6F
:1000480055DB75C0E1FF76C0E2FF00C0E6FF5C2A21
:100058005C50030A02E1010E496E9E9A16C000F038
:0E00680015C001F017C0E1FF18C0E2FF110043
:0A007600210E0D6E0D2EFED71200B4
:100080000F0E0C6E470E0D6E0D2EFED70C2EFCD7EC
:0600900000000000120058
:0600960000000000120052
:08009C000AAE029E000E1200E4
:1000A4000B840BAE5DEF00F0010E036E026A016A71
:0A00B400006A0A360232FF0E120045
:1000BE00000174BF02D0839A01D0838A74BD02D02E
:1000CE00839801D0838874BB02D0839601D0838637
:1000DE0074B902D0839401D0838442B002D083805D
:1000EE0001D083908382D0DF839274B702D0839A3B
:1000FE0001D0838A74B502D0839801D0838874B3FB
:10010E0002D0839601D0838674B102D0839401D03D
:10011E00838442B002D0838001D083908382B4DF87
:0E012E00839242A002D0A5DF01D09EDF120016
:10013C000B820BAEA8EF00F0036802680168006840
:08014C000A360232FF0E120018
:0E015400026A016A006A086A036A000E12005D
:100162000A6A0350D8A40A800750D8A40A820A5007
:10017200D8B414EF01F0030AD8B4CDEF00F00AB0FE
:10018200C8EF00F006AE12EF01F010EF01F002AE80
:1001920010EF01F012EF01F00250800B0A6E029E86
:1001A2000650800B069E0A18D8B4DEEF00F00A5003
:1001B200D8B410EF01F012EF01F00750035CD8B48D
:1001C200E8EF00F0D8A004EF01F00AEF01F00650CA
:1001D200025CD8B4F2EF00F0D8A004EF01F00AEF0D
:1001E20001F00550015CD8B4FCEF00F0D8A004EF98
:1001F20001F00AEF01F00450005CD8B414EF01F0F2
:10020200D8B00AEF01F00A52D8B412EF01F010EFA1
:1002120001F00A52D8B410EF01F012EF01F0D880C9
:0E0222001200D8901200D880D884120012006A
:10023000086A096A000E076203649DEF01F002502C
:1002400006180A6E075003267E0ED8A02EEF01F086
:10025000035ED8B0A1EF01F032EF01F0035ED8A049
:10026000A5EF01F0028E068E02C00EF001C00BF069
:1002700000C00DF000500402F4CF0CF00150050254
:10028000F4CF00F0F3CF08F00402F3500C26F45042
:100290000822000E00220D500502F3500C26F450E7
:1002A0000822000E002202500402F3500826F450E7
:1002B000002202500502016A000E0122F3500026BE
:1002C000F45001220D500602F3500826F45000228B
:1002D000026A000E012202220B500602F350002691
:1002E000F4500122000E02220E500602F3500126A5
:1002F000F450022202BE85EF01F0083600360136C6
:1003000002360306D8B4A5EF01F098EF01F0D880CB
:10031000800E08640030000E002201220222D8A0C4
:1003200098EF01F0023201320032034AA1EF01F0EE
:100330000AAE029E000EA7EF01F0010E0BDFA7EF41
:1003400001F0020EFBDEA7EF01F0040EABDE12009F
:100350000CB0EAEF01F00CA290EF02F00E6A000E72
:10036000026401EF02F0F00E0214D8A4CCEF01F009
:10037000023A01380F0B02260138F00B016E0038EB
:100380000F0B01260038F00B006E08380F0B00260B
:100390000838F00B086E0E84D89002BEE5EF01F02D
:1003A00008360036013602360E2A02BEE5EF01F0AD
:1003B00008360036013602360E2A02BEE5EF01F09D
:1003C00008360036013602360E2A0E50036486EFD8
:1003D00002F0035E0BBC08AE8BEF02F0D880800EFB
:1003E00008640030000E002201220222D8A08BEF08
:1003F00002F0023201320032034A90EF02F08BEF3A
:1004000002F001C002F000C001F008C000F0086A6C
:10041000000E0E86026438EF02F0F00E0214D8A42B
:1004200020EF02F0023A01380F0B02260138F00BE0
:10043000016E00380F0B01260038F00B006E0E84A1
:10044000D89002BEE5EF01F00036013602360E2AE2
:1004500002BEE5EF01F00036013602360E2A02BE7A
:10046000E5EF01F00036013602360E2AE5EF01F025
:1004700001C002F000C001F0006A000E0E960E8866
:10048000026465EF02F0F00E0214D8A450EF02F0FF
:10049000023A01380F0B02260138F00B016E0E8470
:1004A000D89002BEE5EF01F0013602360E2A02BEF8
:1004B000E5EF01F0013602360E2A02BEE5EF01F04B
:1004C000013602360E2AE5EF01F001C002F0016AA2
:1004D000000E0E86026495EF02F0F00E0214D8A40E
:1004E00074EF02F0023A0E84D89002BEE5EF01F0FC
:1004F00002360E2A02BEE5EF01F002360E2A02BED7
:10050000E5EF01F002360E2AE5EF01F0010E0C6E68
:10051000C9DD98EF02F0020E0C6EC0DD98EF02F01C
:10052000040E0C6E0BDE98EF02F0080E0C6E12DE5D
:020530001200B7
:0C053200429070C074F0C2DD42801200E4
:10053E0095929590959495969598959A8392839089
:10054E00839A83988396839494DD93DD92DD8386DC
:10055E008384838299DD83928CDD838295DD839201
:10056E0088DD838291DD839284DD839483828CDDAA
:10057E0083927FDD838288DD83928396838A838252
:10058E0083DD839276DD839A838483827DDD8392FD
:10059E008394838279DD83926CDD838275DD839211
:1005AE008384838271DD839264DD839483826CDD28
:1005BE008392838A838883868384838265DD839294
:0605CE0058DD428012001E
:1005D400FF0E586EFF0E596EFF0E5A6EFF0E5B6EC5
:1005E400F40E546E060E556E000E566E000E576EC7
:1005F400FF0E506EFF0E516E000E526E000E536EC3
:10060400FF0E0001616FFF0E626F000E636F000E3C
:10061400646FAC8A900EAB6E948E949C9EAA03D0A9
:08062400AECF00F0FBD712007D
:10062C0070C004F071C005F004C002F005C003F006
:10063C00044A052A72C000F073C001F00001724B2D
:10064C00732B00C0E9FF01C0EAFF02C0E1FF03C049
:10065C00E2FFEECFE6FF02C0E9FF03C0EAFFEE5275
:0E066C0001E0E2D770C000F071C001F0120092
:10067A00086A080E0C6E003408360450085ED8B0BA
:0E068A0002D00826D89000360C2EF5D71200AC
:10069800F28EF28CF19E0F0EC16E070EB46E9D9A0B
:1006A8009D98F28CF28EB886B06ACF0EAF6EAC848D
:1006B8008DDF020E0B6E040E0C6EBA0E0D6E0D2E33
:1006C800FED70C2EFCD70B2EFAD7000034DF010E14
:0C06D800746FF1DC0C0E746FEEDC12008D
:1006E4000900F5CFE6FF0006FBE10106F9E112007F
:1006F400AECF01F0ABA202D0AB98AB8801C000F042
:020704001200E1
:1007060010D0800E0001656F1AD0C00E656F17D02D
:10071600940E656F14D0D40E656F11D0800E656F80
:100726000ED000016551010AECE06551020AEDE0C8
:100736006551030AEDE06551040AEDE0EFD7660561
:10074600006E6551002600C065F000C074F0B4DC90
:1007560042905E6A5E506725E96E000E6821EA6E79
:10076600EE520BE05E506725E96E000E6821EA6ED8
:0E077600EECF70F0DBDE5E2AEDD7428012007F
:100784000001606B6F6B65C06BF066C06CF067C096
:100794006DF068C06EF06E51FF0A08E16D51FF0AFA
:1007A40005E16C51FF0A02E16B51FF0A0CE169C0DB
:1007B40070F06AC071F01E0E726F000E736F34DF3A
:1007C400030E006EE5D1010E5E6E6DAF0ED0800E8D
:1007D4006D19006E00C06DF05E2A69C0E1FF6AC049
:1007E400E2FF2D0EE66E694B6A2B000E006E6E1949
:1007F40008E100506D1905E100506C1902E16B51DC
:10080400000A0BE169C070F06AC071F0260E726FC5
:10081400000E736F09DF006ABBD16E51FF0A08E155
:100824006D51000A05E16C51000A02E16B51000AA6
:100834000CE169C070F06AC071F0220E726F000E94
:10084400736FF2DE5EC000F0A3D1000E046E000EE2
:10085400056E000E066E7F0E076E6BC000F06CC056
:1008640001F06DC002F06EC003F079DC010ED8B067
:10087400000E006E00521BE06BC000F06CC001F073
:100884006DC002F06EC003F0000E046E000E056E23
:10089400200E066E820E076EC9DC00C06BF001C02C
:1008A4006CF002C06DF003C06EF06F07CED7000E7F
:1008B400046E000E056E200E066E820E076E6BC06F
:1008C40000F06CC001F06DC002F06EC003F047DCB4
:1008D400000ED8B0010E006E00521BE06BC000F099
:1008E4006CC001F06DC002F06EC003F0CD0E046E5A
:1008F400CC0E056E4C0E066E7B0E076E97DC00C0A8
:100904006BF001C06CF002C06DF003C06EF06F2B91
:10091400CED7FF0E6B15086EFF0E6C15096E7F0E99
:100924006D150A6E000E6E150B6E08C004F009C03A
:1009340005F00AC006F00BC007F004360490053633
:1009440006360736000E6B15006E000E6C15016E30
:10095400000E6D15026EFF0E6E15036E00C06BF077
:1009640001C06CF002C06DF003C06EF004506B1156
:10097400006E05506C11016E06506D11026E075029
:100984006E11036E00C06BF001C06CF002C06DF01C
:1009940003C06EF07F0E6E5D006E00C05FF0010E4E
:1009A4006E6F00C004F06BC000F06CC001F06DC04D
:1009B40002F06EC003F0045007E0003600900136E8
:1009C40002360336FF0FF8D700C06BF001C06CF09D
:1009D40002C06DF003C06EF069C0E1FF6AC0E2FFBF
:1009E4006E51300FE66E694B6A2B800E6F19006EE4
:1009F400800E010A005C08E3800E060A006E800E79
:100A04006F19005C01E30AD069C0E1FF6AC0E2FF2C
:100A14002E0EE66E694B6A2B010E606F060E5F6E3A
:100A24005F50000A54E06E6B6BC000F06CC001F0C4
:100A34006DC002F06EC003F000360090013602363D
:100A44000336003600900136023603366B51002619
:100A54006C5101226D5102226E51032200C06BF0D1
:100A640001C06CF002C06DF003C06EF06BC000F00A
:100A74006CC001F06DC002F06EC003F0003600904F
:100A840001360236033600C06BF001C06CF002C0C0
:100A94006DF003C06EF069C0E1FF6AC0E2FF6E5101
:100AA400300FE66E694B6A2B6051000A0EE16F0746
:100AB4006F51000A0AE169C0E1FF6AC0E2FF2E0E2D
:100AC400E66E694B6A2B010E606F5F06A9D7FF0EB5
:100AD4006925E96EFF0E6A21EA6EEE50300A05E1DF
:100AE400010E695F000E6A5BF2D7FF0E6925E96E9D
:100AF400FF0E6A21EA6EEE502E0A04E1010E695FD0
:100B0400000E6A5B6F51000A3DE069C0E1FF6AC0F4
:100B1400E2FF650EE66E694B6A2B800E6F19006E5C
:100B2400800E000A005C0BE269C0E1FF6AC0E2FFCC
:100B34002D0EE66E694B6A2B6F5100086F6F6FC004
:100B44005FF06F5109080EE20A0E046E5FC000F0F8
:100B540092DD69C0E1FF6AC0E2FF0050300FE66E2B
:100B6400694B6A2B0A0E046E5FC000F084DD08C076
:100B740000F069C0E1FF6AC0E2FF0050300FE66E8A
:100B8400694B6A2B69C0E1FF6AC0E2FFE66A006A4A
:020B940012004D
:100B96000050086E0150006E0250016E0350026E46
:100BA600036A0B6A0C6A9E0E036E0A6A020E0C6ECC
:060BB600A8EC01F01200A2
:100BBC004FEC06F06BDD010E656F010E666F280EB3
:100BCC00676F000E686F99DD430E476E000E486E1E
:100BDC004950010A18E14F6A040E4F5C12E24F5063
:100BEC004724E16E000E4820E26E4B0EE96E000EBB
:100BFC00EA6E4F50E926D8B0EA2AEECFE6FF4F2A2C
:100C0C00EBD74A6A496A43C000F044C001F045C0C2
:100C1C0002F046C003F0B9DF00C03EF001C03FF067
:100C2C0002C040F003C041F000C065F001C066F0A6
:100C3C0002C067F003C068F02F0E696F000E6A6F78
:100C4C009BDD010E656F010E666F190E676F000E4E
:100C5C00686F53DD020E656F010E666F2F0E676FA6
:100C6C00000E686F4ADD1A0E0C6EF80E0D6E0D2E0E
:0C0C7C00FED70C2EFCD70000ABD7FFD732
:100C9E0010EE19F0160E006E010E016E880EF66E35
:0E0CAE000C0EF76E000EF86E72EC03F01200E2
:050C880054323A200087
:040C8D004E614E0066
:040C9100494E460082
:020C950030002D
:070C970048656C6C6F210041
:020000040030CA
:0E000000000C1F1EFF8381FF0FC00FE00F409A
:00000001FF
