:10000000FC160400000000000000000000000000DA
:1000100000000000000000000000000000000000E0
:1000200000000000000000000000000000000000D0
:10003000000000006A160000000000000000000040
:1000400000000000B41600000000000000000000E6
:10005000000000005C18000000000000000000002C
:100060000000000000000000000000000000000090
:100070000000000000000000000000000000000080
:100080000000000000000000000000000000000070
:100090000000000000000000000000000000000060
:102DF8000FB82000F0FF200020A0B700000020003E
:102E080034A0B700400020004420B7006019020039
:102E1800000000008A1F78008B1F78001DFF070044
:102E28000A5822000B00200099FE070058012000D4
:102E3800B78525000E20ED00FEFF3A001020ED00BA
:102E4800FCFF3A00CAA2A9005116800000F02F002A
:102E5800008060004801DE00B2428800C0122000F5
:102E6800B044880000002800F13E24001045880086
:102E78002145880040852000C04288004187200005
:102E8800A0C3B3008048780050872000024878002B
:102E980091872000D0C0B30080487800B18420001A
:102EA80010C0B30080487800E1862000A0C3B300BA
:102EB80080487800F1862000B04280008048780081
:102EC8000187200020C0B3008048780011872000C7
:102ED8000020EF00804878002187200050C0B30010
:102EE8008048780031872000D0C0B300804878003F
:102EF800F08620009080FB00608520001008E1002B
:102F08004D003A0030872000104078006D04E10041
:102F180049003A0021852000008720009048780069
:102F280000872000104078006104E10003003A00A7
:102F3800C3FD07001A00200025FD0700208520009A
:102F4800104078006204E1000A003A00BCFD070066
:102F580021872000C042800011487800C0428000CC
:102F6800E10040001087200090487800AA428000C5
:102F780017FD070020852000104078006304E10059
:102F880009003A0021872000C042800011487800DB
:102F9800C0428000E100400010872000904878007F
:102FA800A0428000B04488002085200010407800AE
:102FB8006404E10009003A0021872000C042800033
:102FC80011487800C0428000E100400010872000CE
:102FD80090487800AA42800082FC07000020EF0099
:102FE800A0428800D18820000020EF0080487800A7
:102FF800D0882000104078006604E1000A00310003
:10300800D08820009080FB00E086200081004000EE
:103018000020EF008048780011C0B300D08820005D
:1030280010C84000F2FF3700B18420000020EF00F4
:103038008048780014003700D18820000020EF0075
:1030480080487800D0882000104078006604E100AD
:103058000A003100D08820009080FB00E086200024
:10306800810040000020EF008048780011C0B300C4
:10307800D088200010C84000F2FF3700B18420003B
:103088000020EF008048780038002000578D20008D
:103098000E20ED00FEFF3A001020ED00FCFF3A0084
:1030A8007EFF3700CF0578004F057800FFFF370017
:0030B80018
:102A9C00407420009040780000CEB30080C06000ED
:102AAC0040742000014878006002200046A7B7005F
:102ABC004074200090407800F0C3B30080C06000E8
:102ACC004074200001487800D0FF2F002CA3B700E1
:102ADC00C022A80000F82F00C8A2B7002143A9000B
:102AEC0001198000F0CF2F000080600020A3B700F8
:102AFC002063A90021A3A9002043A80000322000D4
:102B0C0090407800F0C1B30080C06000003220001B
:102B1C000148780011198000F0FF2100008060004E
:102B2C0022A3B70011198000F0CF2F0000806000A5
:102B3C0022A3B7002343A9002223A9002203A90042
:102B4C0025E3A90020C0B30080407800403220006B
:102B5C0090C06800F0CFB30080C06000403220000D
:102B6C0090C068004032200001487800002020000E
:102B7C0080007800403220009080680000F0210036
:102B8C00808060004032200090806800211988000D
:102B9C0029E3A9000010200080007800803220007A
:102BAC009080680000F0210080806000803220005E
:102BBC00908068004119880028E3A90010C0B30078
:102BCC00804078008032200090C06800FFC0600018
:102BDC008032200090C068008032200001487800CC
:102BEC002623EF003023EF0021E3A800000028008B
:102BFC0004A1B7009460A9008460A900800C200097
:102C0C0002A1B7000000280010A1B70094E0A900B1
:102C1C0084E0A900401F20000CA1B70070C0B300D5
:102C2C0080407800406A200090C06800FFC06000BF
:102C3C00406A200090C06800406A2000014878007B
:102C4C0030C0B30080407800606C200090C06800F9
:102C5C00FFC06000606C200090C06800606C2000B9
:102C6C00014878009560A8008560A9000000260046
:102C7C0080007800400A2000908068000000270047
:102C8C0080806000400A2000908068002105880048
:102C9C000000250080007800600A20009080680009
:102CAC000000270080806000600A2000908068008F
:102CBC00310588004105800000002700008070006D
:082CCC00A8A0B70000000600FB
:102898000800FA00C0D0200020428800A00E2100C5
:1028A80030428800F0FF2F001042880020C220002C
:1028B800004288002022EF000000280022A2B70072
:1028C8002062A900D8FB07000001BE00803E20005E
:1028D8000100200001FE07000001BE00D5FB070033
:1028E8004100DE006400400080007800600047007E
:1028F8000A88BE008100E900030035001018D000E6
:102908001090D200FBFF3700829FBE008A9FBE0056
:102918000200BE000E0190009E0190000002EB0034
:10292800FEFD07004F05BE004F01BE0020079800BE
:10293800310798008A9FBE000200BE000E01900079
:102948009E0190000002EB0038FC07004F05BE0016
:102958008001780001027800600047005001D10032
:10296800C080D300640047003008E1002090E100F7
:102978000700310061804100E0004A0080027800D1
:10298800010378000501780086017800020037000D
:1029980003017800840178000280710033003A0056
:1029A800A1FB07000001BE00803E200001002000BE
:1029B800CAFD07000001BE009EFB07004100DE00C3
:1029C80000A0EC0080007800600047000A88BE0084
:1029D8008100E900030035001018D0001090D200E3
:1029E800FBFF3700829FBE000200BE000E01900070
:1029F8009E0190000002EB00C8FD07004F01BE00D9
:102A080020079800310798000200BE000E019000D0
:102A18009E0190000002EB0004FC07008001780092
:102A280001027800600047005001D100C080D30047
:102A3800640047003008E1002090E1000700310001
:102A480061804100E0004A008002780001037800BC
:102A5800050178008601780002003700030178003C
:102A6800840178002062A80000003700610051004E
:102A7800E0805900401188002222A90021E2A80024
:102A88002342A8009EFD07009DFD07000080FA0074
:042A98000000060034
:0C183000008823001100200000000600CA
:08183C0020002000000006005E
:1021080058012000B78525000E20ED00FEFF3A009B
:0C2118001020ED00FCFF3A000000060063
:1020E4000000FA00020AB800500088000200B8009C
:1020F40081004200032AB800810042000080FA00F7
:0421040000000600D1
:102124000000FA0002000700E610040000000000AE
:102134000800E20002003A00100007000000060058
:10214400811F78000200E20002003D0060001000E0
:10215400E08018000600E20002003D00600111006A
:10216400E0811900050007004F00E00002003B0079
:1021740060001000E0801800000006000200070064
:102184000480BE00000006006022B80006022000A1
:102194000000D0008180D2000482D2008582D20067
:1021A4000000A8000202520083825A0003003B0090
:1021B4000202420083824A000000A1000603E900F3
:1021C400F3FF3A00000006000080FA000000060059
:0021D4000B
:101A34000000FA0002000700680D04000000000026
:101A44000800E20002003A0010000700000006004F
:101A5400839F68000200E20002003D006000100065
:101A6400E08018000600E20002003D006001110061
:101A7400E0811900050007004F00E00002003B0070
:101A840060001000E0801800000006006022B8002A
:101A9400060220000000D0008180D2000482D2001F
:101AA4008582D2000000A8000202520083825A00FC
:101AB40003003B000202420083824A000000A100AE
:101AC4000603E900F3FF3A00000006000080FA0074
:041AD4000000060008
:102648000400FA008A1F78008B1F78008C1F78001E
:102658008D1F7800C18820000020EF008048780096
:102668000020EF000220EF007044880081448800B9
:102678000020EF000220EF0090448800A144880069
:102688000020EF000220EF004044880051448800F9
:102698000020EF000220EF00E0438800F1438800AB
:1026A800C0882000104078006304E10022003D004B
:1026B80060FD07000044800011448000E04388006A
:1026C800F1438800004480001144800042448000A7
:1026D80053448000A8FA07000200200003042400E5
:1026E80083F707000000E0000060EF0001003C00F5
:1026F8000060EC000040E2000A00320072448000F2
:1027080083448000E0438000F14380008EF7070097
:10271800704488008144880011C0B300C08820003C
:1027280010C84000E0438000F14380004044880026
:1027380051448800DAFF3700020020000304240017
:1027480070448000814480000FFB0700904488009B
:10275800A1448800DEFC070002002E00B34A2400D2
:1027680090448000A144800077F70700124580005C
:102778002345800080FA0700024022004397240086
:1027880001FB07002044880031448800524580003E
:102798006345800097FB0700020020000300240027
:1027A800F9FA070002002000A347240091FB070064
:1027B80000079800110798003045880041458800B7
:1027C800B04480008000EB0094FA07000E019000EE
:1027D8009E01900068FA070002002000A347240029
:1027E800E9FA0700F0448800014588000C00200041
:1027F8000D0224000005BE0016FC07000217260083
:1028080073A924007BFB07000007980011079800B4
:10281800C0448800D14488002043800031438000B0
:1028280019FA0700E04488003045800041458000DF
:1028380015FA0700404388000E0090009E009000A3
:1028480011FA07005043880090448000A14480009A
:102858000DFA07001043880080862000E0428800B7
:10286800C0892000F0428800A0862000004388002C
:1028780020862000D0438800CF0678004F067800D5
:10288800CF0578004F0578000080FA0000000600A8
:0028980040
:101C3C000C00FA000020EF00E0458800CA02A90061
:101C4C0005E1A9009460A9000621EF0094E0A8002A
:101C5C0011E1A8000020EF00D0458800208C200066
:101C6C00104078006104E10001003200FBFF3700F6
:101C7C00208C2000104078006104E10088003A00BC
:101C8C00008C2000801F7800E0152000801F780059
:101C9C00408C2000801F78003BFD07006F00B100D6
:101CAC0040408800E08B2000801F7800E015200069
:101CBC00801F7800408C2000801F780044FD0700B6
:101CCC006F00B100304088008180200011001000AE
:101CDC004101DE0081802000A0802000110811004D
:101CEC000020EF007045880071458000E015200051
:101CFC000008E1006700310070458000C100DD0084
:101D0C00408C20008101400013017800A18020004C
:101D1C00C08120001108510093007800A0802000A1
:101D2C001008E1000B00310070458000C100DD009F
:101D3C00408C200081004000504080001100500079
:101D4C004100DD0011014000A1802000C081200075
:101D5C0011085100E04080008000EB002EFD0700D0
:101D6C006040880071408800A2408000B340800031
:101D7C00F4F9070002482E0023B923001CFE0700CB
:101D8C000007980011079800804080009140800067
:101D9C0002482E0023C1230015FE07000E019000FF
:101DAC009E019000E7F90700200798003107980082
:101DBC00C0408000D1408000623C2A0063FE2B00B2
:101DCC000BFE070000079800110798002E009000EA
:101DDC00BE009000829FBE000E0190009E019000FC
:101DEC00E4FC07004F01BE00200798003107980063
:101DFC001040800021408000F2EA2D0013F52300F2
:101E0C00FBFD070000079800110798002E009000BA
:101E1C00BE009000829FBE000E0190009E019000BB
:101E2C00D4FC07004F01BE00F0408800014188003F
:101E3C00C2408000D34080001240880023408800BC
:101E4C00C0408800D14088008240800093408000D0
:101E5C00A2408800B340880062408000734080003C
:101E6C00824088009340880086FC07000040880070
:101E7C00714580004109DD00418C200082804000CA
:101E8C008008780011002000E08A200010884000B3
:101E9C0095FF3700218C200020C0B30080487800CB
:101EAC00208C2000104078006204E10088003A0089
:101EBC00608B2000801F7800E0152000801F7800C8
:101ECC00408C2000801F7800AFFC07006F00B10031
:101EDC00C0458800B0458000804588000020EF0098
:101EEC009045880090458000C100DD00408C2000AA
:101EFC000100400090007800808B20001008E10069
:101F0C000400310011002000208B200010884000BC
:101F1C00F4FF370081458000208B2000108050009A
:101F2C00C100DE00208B200090804000A14588007D
:101F3C0070805000D0428800F081400093418800AE
:101F4C00C100DD00408C2000010040001001780031
:101F5C00A2418800C118DD00408C20000100400027
:101F6C001000780000079800B0418800020078004B
:101F7C00CF80DE000081EB00A7FC07004007980033
:101F8C00510798007041880081418800C04580004D
:101F9C00CF80DE000081EB009FFC0700200798003B
:101FAC003107980010418800214188000E009000F4
:101FBC00CF80DE000081EB0097FC07000007980043
:101FCC0011079800809FBE000E0090009E009000AC
:101FDC0030418800414188004F00BE004E00900007
:101FEC00DE009000829FBE000E0190009E019000CA
:101FFC0060FC07004F01BE002E019000BE01900056
:10200C0020079800310798000000200001002400F0
:10201C0077FD0700000798001107980070418000B9
:10202C0081418000829FBE000E0190009E019000B5
:10203C0050FC07004F01BE0032418000434180003C
:10204C0040F90700020020000300240068FD07008F
:10205C0000079800110798002E009000BE00900019
:10206C00829FBE000E0190009E019000C5FC0700EF
:10207C004F01BE00504188006141880002002000E1
:10208C00031824005AFD070002002000030A240054
:10209C0057FD0700C0418800D1418800A045800051
:1020AC008000EB005CFC070002002000030A240007
:1020BC004FFD0700E0418800F1418800C2418000DB
:1020CC00D34180001FF907000044880011448800A8
:0820DC000080FA00000006007C
:101194000000FA002EB997003EB89700CEB8970029
:1011A400B10278000009EB000002E90007003400F6
:1011B400B10178000328E10002003C0053008800DC
:1011C400040950000402E900F9FF3C00050088000E
:0811D4000080FA000000060093
:1011DC000000FA002EB997003EB89700CEB89700E1
:1011EC00B10278000009EB000002E90007003400AE
:1011FC00B10178000328E10002003500530088009B
:10120C00040950000402E900F9FF3C0005008800C5
:08121C000080FA00000006004A
:101224000000FA0002000700C409040000000000E6
:101234000400E20006003A000005EB000200E200B0
:101244000F003E000000E200270032000C003700CF
:10125400A10088000200E2000400350008003C0000
:101264000000E2002000320005003700600010009A
:10127400E080180002003B0001F02C001A00370047
:101284000084BE006011B8006B0920000982CF0001
:10129400020039000882CF000441B00069425200C4
:1012A4000E00320008003B0082817100610164007D
:1012B4008904D1000884D3008B05E8000442E800C7
:1012C400F9FF3A00050037000804440089844C0003
:1012D4008B05E9000442E900FBFF3A000300070024
:1012E4000AF0A70003E0A800000006008100200027
:1012F400618055000B003D000B00200061FE2F00B3
:101304000100E1001D00340082817100610164006C
:101314008904D1000884D3000000E800FAFF3A00F1
:10132400710020006100640003007000020060008E
:101334000900320061044400E0844C000988A500DF
:10134400050032008B05E8006808E10002003A005D
:101354008904D1000884D300F20F20000258E10070
:1013640005003D00C75DDD00F907B2008980750006
:1013740008008800000006000BF827001B00880006
:0C138400000005000080FA0000000600D8
:101180000000FA0007E0AA00F1FC07000080FA0066
:041190000000060055
:100550000000FA0002000700100404000000000080
:10056000889FBE008A9FBE008C1F7800590007003C
:10057000600033006450E1004F0032006420E1006D
:100580005200320003826C0007003B000905D000D6
:100590000306D000820F54000C065D0002003900F3
:1005A0000200320039008800C300880085825500AF
:1005B00004003D000003FD008103FD008502EA0008
:1005C0008B854200840F720002003B006000100027
:1005D000E08018006011B8000005EB007A28E10007
:1005E0000A00390006008800C75DDD00F707B20089
:1005F000878075002D003700828171002A008800F5
:10060000610560008180D1000080D3008502E9008F
:10061000F9FF3B00060440008784480002003B00CD
:1006200060041400E0841C000988A3000700320065
:100630008A81710082817100610164008904D100A6
:100640000884D3008B05E800170037000978A30061
:1006500013003A001600E200130034008B05E90095
:100660000804440089844C000A4474000978A300FB
:100670000D003A001600E200070034008B05E90087
:100680000804440089844C0001003A000B0020005B
:100690000978A300F7FF32000001EB0002003700E9
:1006A000828171002A008800220007000CF0A70058
:1006B00003E0A800180037006420E10002003A00BF
:1006C000838F6C00180033000881BE000280BE00DA
:1006D000110037000084BE003C0007000083BE000C
:1006E0000485BE000280BE0038000700844F7500FC
:1006F000000006000280BE006450E10005003600E4
:100700006420E100020036000968A30001003A00FD
:100710000880BE0002C0A8004F0678004F05BE004A
:100720004F04BE0000000600F0FF2F00F1FF27007D
:10073000F9FF370081002000618055000B003D006B
:100740000B00200061FE2F000100E1001D003400BD
:1007500082817100610164008904D1000884D300A2
:100760000000E800FAFF3A00710020006100640018
:1007700003007000020060000900320061044400C0
:10078000E0844C000988A500050032008B05E800D4
:100790006808E10002003A008904D1000884D3000F
:1007A000F20F20000258E10005003D00C75DDD00AA
:1007B000F907B20089807500080088000000060073
:1007C0000BF827001B00880000000500C70ADE00A8
:1007D000F107B200F50FB20008003200E1CF42008D
:1007E0000200320002E0A80024000500810F700022
:1007F000010032000408050044000500810F70006C
:1008000002003A00140005008502E90000004000E3
:1008100081C04800FCFF3B0002E0A8002400050066
:080820000080FA000000060050
:1015FC000000FA0002000700140C040000000000B8
:10160C00889FBE008A9FBE008C1F780030000700A8
:10161C003700330003866C006450E1002400320074
:10162C006420E100270032006150E100220032000A
:10163C006120E100210032008B854200EB07B100F4
:10164C000134B800003AB8000804420089844A000A
:10165C00013AB8000030B8008880400009014A0007
:10166C000400330000004000818048000201490062
:10167C008B05E900C909DD0083017000010032000F
:10168C0013002000C814DE004814DD004709DE00FA
:10169C001200B200C808DE000884700024000700A5
:1016AC0001F0A1000CF0A70003E0A800190037001E
:1016BC006120E1001B0032000881BE000280BE00E8
:1016CC00F7FF37006150E100FCFF3A0015003700CE
:1016DC000084BE003C0007000083BE000485BE00F1
:1016EC000280BE0038000700844F75000000060021
:1016FC000280BE006450E100050036006420E10069
:10170C00020036000968A30001003A000880BE0000
:10171C0002C0A8004F0678004F05BE004F04BE0063
:10172C0000000600F0FF2F00F1FF2700F9FF370043
:10173C0081002000618055000B003D000B00200053
:10174C0061FE2F000100E1001D0034008281710058
:10175C00610164008904D1000884D3000000E80012
:10176C00FAFF3A0071002000610064000300700071
:10177C00020060000900320061044400E0844C0067
:10178C000988A500050032008B05E8006808E10017
:10179C0002003A008904D1000884D300F20F200023
:1017AC000258E10005003D00C75DDD00F907B200FD
:1017BC008980750008008800000006000BF82700DF
:1017CC001B00880000000500C70ADE00F107B2000C
:1017DC00F50FB20008003200E1CF420002003200E7
:1017EC0002E0A80024000500810F70000100320007
:1017FC000408050044000500810F700002003A0047
:10180C00140005008502E9000000400081C048007A
:10181C00FCFF3B0002E0A800240005000080FA0059
:04182C0000000600B2
:101390000000FA0002000700FA0A04000000000042
:1013A000889FBE008A9FBE008C1F78003E00070009
:1013B0004500330003866C006450E1002E003200CB
:1013C0006420E100330032006150E1002F00320060
:1013D0006120E1003100320085855500EB07B00047
:1013E000090020000804200005003700080444001C
:1013F00089844C000A0031000603430087834B00B8
:101400000001530081815B00F8FF33000283BE00BE
:101410001000A8000804440089844C00F6FF39003D
:10142000C639DD0083017300010032001300200083
:101430008904D1000884D3000998A3000500320074
:101440000800A7000600A8008904D1000884D30082
:101450008B05E8008904D1000884D3000001EB006B
:101460000281D2002800070001F0A1000CF0A700C3
:1014700003E0A8001D0037006420E1001F003200D7
:101480000881BE000280BE00F7FF37006120E10046
:101490001A0032006000B800F3FF3700000020009F
:1014A00001F82700F0FF37000084BE003C00070071
:1014B0000083BE000485BE000280BE003800070025
:1014C000844F7500000006000280BE006450E100F9
:1014D000050036006420E100020036000968A30020
:1014E00001003A000880BE0002C0A8004F06780044
:1014F0004F05BE004F04BE0000000600F0FF2F00A5
:10150000F1FF2700F9FF37008100200061805500BE
:101510000B003D000B00200061FE2F000100E100E8
:101520001D00340082817100610164008904D100D2
:101530000884D3000000E800FAFF3A0071002000A0
:1015400061006400030070000200600009003200C6
:1015500061044400E0844C000988A50005003200C5
:101560008B05E8006808E10002003A008904D10018
:101570000884D300F20F20000258E10005003D006E
:10158000C75DDD00F907B20089807500080088009A
:10159000000006000BF827001B0088000000050073
:1015A000C70ADE00F107B200F50FB20008003200F2
:1015B000E1CF42000200320002E0A8002400050052
:1015C000810F70000100320004080500440005008E
:1015D000810F700002003A00140005008502E90046
:1015E0000000400081C04800FCFF3B0002E0A80072
:0C15F000240005000080FA000000060046
:101090000000FA0002000700BC0804000000000085
:1010A0000081BE001F0007000470A70003F0A1002C
:1010B0006509B100160032000D0035006828E10016
:1010C00006003500F0FF2F00F1FF27000600E200C8
:1010D00013003B0001002800000005000000400054
:1010E000818048008502E900FCFF3A0008003700D3
:1010F000F88F420002003C008000EB000000050079
:101100008100D1000080D3008502E800FCFF3A0096
:101110000600E20002003B0060001000E0801800C2
:1011200000000600C70ADE00F107B200F50FB200AA
:1011300008003200E1CF42000200320002E0A800C5
:1011400024000500810F7000010032000408050032
:1011500044000500810F700002003A0014000500F1
:101160008502E9000000400081C04800FCFF3B0010
:1011700002E0A800240005000080FA00000006003C
:001180006F
:101AD8000400FA008A1F78008B1F78008C1F78009A
:101AE8001620EF002A2C200088FC0700CCCCB3007D
:101AF8001620EF002A2C2000E8FB07004CC4B30096
:101B08001620EF002A2C2000E4FB07005753200082
:101B18000E20ED00FEFF3A00000000001620EF0046
:101B28002A2C200079FC0700CCCCB3001620EF004B
:101B38002A2C2000D9FB0700ECCBB3001620EF00BD
:101B48002A2C2000D5FB0700575320000E20ED005B
:101B5800FEFF3A00000000001620EF002A2C2000AB
:101B6800F4FC07008082FB001620EF002A2C2000DE
:101B7800F0FC07000080FB004800DD000500400085
:101B88000001780001E0AE00020037000420EF00F9
:101B9800000037004410DE0080017800EF0061008B
:101BA800102720000008B800831F78008000EB0091
:101BB8009AFD070002002400C3612400F2FD07001B
:101BC800CF017800000798001107980003007800FB
:101BD8008000EB0091FD07000E0190009E0190002F
:101BE80059FA070020438800314388000200280082
:101BF80083382400E4FD07000200200003F82300D6
:101C080051FA07000005BE0058FC0700A2992B00F6
:101C1800533A240077FE0700504588006145880044
:101C28004F067800CF0578004F0578000080FA004D
:041C380000000600A2
:100D14000000FA00100020000B00DD000001780044
:100D24008080EA008101780062004500108860003C
:100D34006200550010886100FEFD07006200550046
:100D440010087100F0FD07001A0061006000E10066
:100D54000060EF00010032000060EC008080FB00C6
:100D6400F4FD0700010078000080FA00000006008E
:000D74007F
:10053800A7A021000E20ED00FEFF3A0000000000F9
:080548000000000000000600A5
:10050C00A74220000E20ED00FEFF3A000000000084
:08051C000000000000000600D1
:100AA4000000FA00100020000B00DD0000017800B7
:100AB4008080EA000620EF006718E10012003E0083
:100AC4000C80FB000300DE000080FB00610260007C
:100AD40062004500108860006200550010886000C4
:100AE4000800E200020032006200550010087100A4
:100AF40085FE0700620055001008710088FE07009B
:100B04000620EC00ECFF370046FF070045FF070016
:080B14000080FA000000060059
:10052400D70020000E20ED00FEFF3A00000000007E
:0405340000000600BD
:10082800A72920000E20ED00FEFF3A00000000007E
:080838000000000000000600B2
:100F3C000000FA00100020000B00DD00000178001A
:100F4C008080EA000820EF000620EF006718E1001F
:100F5C0012003E00620045001088600062005500DF
:100F6C00108860006CFD07006200550010087100CD
:100F7C0069FD07001A006100040032001000200017
:100F8C000300DD00000272000000370023FE0700A2
:100F9C0022FE07000620EC00ECFF3700044078002E
:080FAC000080FA0000000600BD
:100D74000C00FA008C1F78008A9FBE000420EF004C
:100D84000620EF000A00BE00DAFD07000000E000C4
:100D94000060EF0001003C000060EC004F05BE0065
:100DA4000040E200030032000020EF000220EF00C8
:100DB4005E0037000A0798001B0798008A9FBE0050
:100DC4000200200003F823000A00BE00C9FD07004A
:100DD4000000E0000060EF0001003D000060EC0056
:100DE4004F05BE000040E200090032008A9FBE00A9
:100DF4000E0190009E0190000000200001F82300E5
:100E0400620107004F05BE00000798001107980013
:100E14006A0047008A9FBE00000678000E05900015
:100E24009E059000D9FE07005E0190004191DE000E
:100E3400020678000005BE00EAFE07004F05BE006A
:100E440000079800110798008A9FBE000200200046
:100E540003F823000A00BE00A6FD07000000E0001E
:100E64000060EF0001003D000060EC004F05BE0093
:100E74000040E200090032008A9FBE000E0190008B
:100E84009E0190000000200001F823003F010700AC
:100E94004F05BE000007980011079800400120008C
:100EA400400798008A9FBE000E0190009E019000AA
:100EB4000A00BE00350107000E0190009E0190005B
:100EC400A2FD070002002000030024002F010700F8
:100ED40020079800310798000E0190009E019000B1
:100EE40084FD07000000E0000060EF0001003A000C
:100EF4000060EC004F05BE000040E200010032003B
:100F0400080037002E009000BE00900000079800F3
:100F1400110798004E0090000020ED004007980053
:100F2400E0FF3A000E0090009E0090004F0678000B
:080F34000080FA000000060035
:100990000400FA000A0798001B0798009E009000C8
:1009A00000F8270080806000C708DE00E007200014
:1009B00000805000000E780001F023006200470024
:1009C0009080680000F82700808060006200470087
:1009D00090806800110798000E0090009E00900023
:0809E0000080FA00000006008F
:1009E8000400FA000A0798001B0798009E00900070
:1009F80000F82700008060004700DE000000460085
:100A0800000678006000E10003003D000020EF00D0
:100A18000220EF001F003700F00F20000060E10007
:100A2800100034000420EF000620EF000A00BE008A
:100A3800AFFE07000000E0000060EF0001003D008D
:100A48000060EC000040E20003003200F0FF2F00DD
:100A5800F1F72F000F003700F0FF2F00F1F7270004
:100A68000C00370070C0B3000000FB008060DD00A0
:100A7800620047009080680000F8270080806000CE
:100A88006200470090806800110798000E009000EF
:0C0A98009E0090000080FA0000000600A4
:1004F8000000FA0014002000BFFF07000080FA0087
:0405080000000600E9
:100400000000FA00020007006E0204000000000075
:10041000841F7800140007004F007800110033009B
:10042000F0FF2F00838F6C0006003B000405650081
:100430000A00A7000800370009F0A60010002000FD
:1004400008003700820F5400838F5C0003003900DE
:100450001000200001003E000000200009F0A7006D
:100460000000EA00000006000084BE00060007004D
:100470000083BE000485BE000280BE0002000700AB
:10048000844F750000000600C70ADE00F107B200C5
:10049000F50FB20008003200E1CF42000200320046
:1004A00002E0A80024000500810F70000100320066
:1004B0000408050044000500810F700002003A00A6
:1004C000140005008502E9000000400081C04800DA
:1004D000FCFF3B0002E0A800240005000080FA00B9
:0404E0000000060012
:10185C000600FA0000002000200798008C9FBE00B4
:10186C008A9FBE000C00BE000420EF000620EF0093
:10187C001EFB07000000E0000060EF0001003A00D2
:10188C000060EC004F05BE004F06BE000040E200B9
:10189C00030032000000200001F82300590037003B
:1018AC008C9FBE008A9FBE000A00BE000420EF0081
:1018BC000620EF000DFB07000000E0000060EF00C9
:1018CC0001003A000060EC004F05BE004F06BE0060
:1018DC000040E200030032000020EF000220EF0085
:1018EC00480037008C9FBE008A9FBE000420EF008A
:1018FC000620EF000A00BE00FCFA07000000E00022
:10190C000060EF0001003D000060EC004F05BE00E0
:10191C004F06BE000040E200210032008C9FBE004A
:10192C008A9FBE000C00BE00D6FD07000007980081
:10193C00110798000081EB0037FE07004F05BE0031
:10194C004F06BE008C9FBE008A9FBE000C01BE00DD
:10195C00E6FA07000000E0000060EF000100320032
:10196C000060EC004F05BE004F06BE000040E200D8
:10197C00030032000020EF000220EF0021003700AE
:10198C008E00900064004700618860000000200019
:10199C000100280000006D0081806D000005BE0074
:1019AC008C9FBE008A9FBE007FFD07004F05BE00C6
:1019BC004F06BE000005BE008A9FBE000C01BE0093
:1019CC000BFF07004F05BE000005BE008A9FBE003E
:1019DC000005BE004EFC07004F05BE000005BE0012
:1019EC00640047001000E0000500320000002000F9
:1019FC000100280000006D0081806D00010037009F
:0C1A0C000A00BE000080FA000000060086
:100FB4000200FA008C1F78008D1F78008A9FBE0003
:100FC4000420EF000620EF000A00BE0049FD0700E0
:100FD4000000E0000060EF0001003C000060EC0055
:100FE4004F05BE000040E200030032000020EF0085
:100FF4000220EF002100370060004700000678005F
:1010040062FE07008A9FBE00020020000300240045
:10101400790107000200200003F8230057000700AD
:101024004F05BE000005BE0013002000600147000C
:10103400128911008A9FBE008D002000AC91290006
:101044000005BE00FDFD07004F05BE000005BE0003
:101054008A9FBE000E009000CF80DE000081EB006E
:101064006F0007008221270013F3230062010700A9
:101074004F05BE000A01BE0034FD0700CF0678000C
:0C1084004F0678000080FA000000060013
:100840000000FA004268DD00000146001200BE0010
:100850000001BE001A00E200130032008C9FBE00AF
:100860008A9FBE000200BE000A01BE0063030700AB
:100870004F05BE004F06BE0061815600820678001B
:100880004269DD00020246001401BE008C9FBE00DA
:100890008A9FBE002EFF07004F05BE004F06BE0018
:1008A0000001BE00EBFF37000200BE000080FA002E
:0408B000000006003E
:100B1C000400FA008C1F78008D1F78008A9FBE009D
:100B2C000A00BE000420EF000620EF006FFE070055
:100B3C000000E0000060EF0001003A000060EC00F3
:100B4C004F05BE000040E200030032000000200010
:100B5C0001F82300680037008A9FBE00E24F2D0089
:100B6C00232B24000A00BE005BFE07000000E000FF
:100B7C000060EF00010034000060EC004F05BE0087
:100B8C000040E20003003200F0FF2F00F1F72700D5
:100B9C00590037008A9FBE0002C52A00E32A2C00A8
:100BAC000A00BE0051FE07000000E0000060EF00EC
:100BBC0001003D000060EC004F05BE000040E2006B
:100BCC00030032000020EF000220EF004A00370043
:100BDC008A9FBE000420EF000620EF000A00BE0032
:100BEC0042FE07000000E0000060EF0001003D0045
:100BFC000060EC004F05BE00204798000040E2006A
:100C0C0005003200000020000100280000006D00EB
:100C1C0081806D000005BE008A9FBE000A00BE00E8
:100C2C00B2A32A0083FB2300710207004F05BE000C
:100C3C000005BE008A9FBE000005BE001AFF07001B
:100C4C001001070000079800CF80DE000081EB0048
:100C5C00710107004F05BE008A9FBE000001BE0057
:100C6C000A00BE00430107004F05BE000005BE0090
:100C7C008A9FBE009D0020002C8F29000005BE001D
:100C8C00ECFE07000E0690000005BE0053FF0700A7
:100C9C004F05BE000005BE00620047001004E000D6
:100CAC00140032008A9FBE000A00BE00F2FF2F0023
:100CBC00F3F727000DFE07000000E0000060EF00D6
:100CCC0001003A000060EC004F05BE000040E2005D
:100CDC00030032000020EF000220EF000600370076
:100CEC000A01BE000000200001F82300A501070046
:100CFC00010037000A00BE00CF0678004F067800CE
:080D0C000080FA00000006005F
:1008B4000000FA00C758DE000001EB00F00F200032
:1008C40080806000F00720000080500080007800E5
:1008D4006000E10010003D000420EF000620EF005E
:1008E4000A00BE0003FF07000000E0000060EF0004
:1008F40001003D000060EC000040E2000300320013
:100904000000200001F82B001E0037000020EF003B
:100914000220EF001B0037007808E10002003600D7
:100924000A00BE00170037008A9FBE000A00BE00FE
:10093400D60107000081EB00390207004F05BE0015
:100944000002BE00849FBE000A01BE00E4FE070050
:100954000000E0000060EF00010034000060EC00E3
:100964004F02BE000040E2000500320002002000F9
:1009740003F823000400BE00000207000100370052
:0C0984000400BE000080FA000000060025
:1004E4000000FA00F4FF2F00C4FF07000080FA00A8
:0404F40000000600FE
:1023D8006150E10014003A003185200040C0B3008C
:1023E8008048780030852000104078006304E100C0
:1023F8000D003900308520009080FB0040872000C8
:1024080081004000E04280009048780011002000E0
:10241800C08520001088400011C0B300308520001E
:1024280010C81000EFFF37006250E10014003A00B6
:102438003185200040C0B3008048780030852000F6
:10244800104078006304E1000D0039003085200059
:102458009080FB00408720008100400000438000FE
:102468009048780011002000008620001088400065
:1024780011C0B3003085200010C81000EFFF3700EE
:102488006350E10014003A003185200040C0B300D9
:102498008048780030852000104078006304E1000F
:1024A8000D003900308520009080FB004087200017
:1024B80081004000F0428000904878001100200020
:1024C800E08520001088400011C0B300308520004E
:1024D80010C81000EFFF37006450E10014003A0004
:1024E8003185200040C0B300804878003085200046
:1024F800104078006304E1000D00390030852000A9
:102508009080FB00408720008100400060438000ED
:102518009048780011002000C086200010884000F4
:1025280011C0B3003085200010C81000EFFF37003D
:102538006550E10014003A003185200040C0B30026
:102548008048780030852000104078006304E1005E
:102558000D003900308520009080FB004087200066
:1025680081004000D043800090487800110020008E
:10257800A08720001088400011C0B30030852000DB
:1025880010C81000EFFF3700618720000087200087
:1025980090487800CAA2A800318520000020EF00EA
:1025A8008048780030852000104078006604E100FB
:1025B8000C003100308520009080FB00408720000F
:1025C800010040008A1F78001085FB0010FD0700FD
:1025D8004F05780011C0B3003085200010C84000B6
:1025E800F0FF370095FC07006000E10001003A00A9
:1025F800FCFF3700CAA2A900D188200030C0B30070
:1026080080487800D0882000104078006504E100F8
:102618000A003100D08820009080FB00408720000D
:10262800810040000020EF008048780011C0B3000E
:10263800D088200010C84000F2FF370000000600D4
:0026480092
:101A18000000FA002302AF0001003700FDFF370085
:0C1A28002A1188000080FA00000006006F
:101844000000FA000020EF002302AF000020EC00AB
:081854000080FA00000006000C
:1021EC000800FA00C18820000020EF008048780029
:1021FC000020EF000220EF0070448800814488002A
:10220C000020EF000220EF0090448800A1448800D9
:10221C000020EF000220EF00404488005144880069
:10222C000020EF000220EF00E0438800F14388001B
:10223C00C0882000104078006304E10026003D00B7
:10224C008A1F78007AFE0700004480001144800049
:10225C00E0438800F1438800004480001144800072
:10226C004244800053448000C2FB0700020020005F
:10227C00030424009DF807000000E0000060EF005C
:10228C0001003C000060EC004F0578000040E200CB
:10229C000C0032007244800083448000E0438000D4
:1022AC00F14380008A1F7800A6F807004F057800DC
:1022BC00704488008144880011C0B300C08820009D
:1022CC0010C84000E0438000F14380004044880087
:1022DC0051448800D6FF37008A1F78000200200086
:1022EC0003042400704480008144800025FC070016
:1022FC0090448800A1448800F4FD07004F05780045
:10230C008A1F78000A0078008000EB00C2FB0700EF
:10231C006042880071428800020020000300240003
:10232C00B3FC070020079800310798005045800047
:10233C006145800002002000A3472400ACFC07008C
:10234C004F05780000079800110798002E009000A8
:10235C00BE009000829FBE000E0190009E01900076
:10236C008A1F780007FC07004F0578004F01BE005C
:10237C0020448800314488008A1F780002402200E3
:10238C00439724009AFC070002002E00B34A240055
:10239C0078FB070092448000A344800075FB070083
:1023AC00104588002145880036FB070080428800D4
:1023BC0000852000604388004A00200003000700CD
:0C23CC004F0578000080FA0000000600B9
:1032C00001802000E093290010000900B018780068
:0432D00000000600F4
:1030B8003400F8003600F800801F78002000200057
:1030C8000C000900B01F780040FC07008184200034
:1030D80080487800A1C3B3000104E1000D003A0064
:1030E80090842000104078006004E10009003A0054
:1030F800A184200010C0B30080487800908420008C
:103108009080FB00E0862000810040008084200041
:10311800904878008084200090407800A0C3B300D5
:10312800000CE10007003200908420001040780075
:103138006004E10003003A0091842000F0CFB3005E
:1031480080487800A0842000104078006104E100E5
:103158000A003A0090842000104078006004E100E2
:1031680006003200908420009080FB00E08620005A
:1031780081004000808420009048780011C0B3008E
:103188009084200010C840009084200010407800EF
:103198006604E10009003A00B184200010C0B300C1
:1031A80080487800A18420000020EF008048780043
:1031B800918420000020EF00804878008560A900F5
:1031C800A00120000C0009004F1078004F00780083
:0C31D8003600F9003400F9000040060049
:1021D4000000FA0000000000000000002682BF009A
:0821E4000080FA000000060073
:102D68003400F8003600F800801F780020002000AA
:102D78000C000900B01F7800E04580006A00E100FF
:102D880002003100CA02AA000E003700CA02A900D8
:102D9800E1062000C08B20001008E10009003A007D
:102DA80094E0A90011E1A9009460A8000021EF00B7
:102DB8008460A90005E1A800218C20000020EF0014
:102DC8008048780011002000C08B20001088400047
:102DD80084E0A900A00120000C0009004F10780031
:102DE8004F0078003600F9003400F9000040060072
:002DF800DB
:102CD4003400F8003600F800801F7800200020003F
:102CE4000C000900B01F78002023A9002003AF00C6
:102CF40001003700FDFF3700D1458000E0152000BA
:102D04000008E1000A003100D0458000C100DD0068
:102D1400408C2000810040000083BF0080087800C0
:102D240011002000A08B200010884000050037000F
:102D3400218C200010C0B3008048780005E1A90070
:102D44009460A9008460A900A00120000C0009007F
:102D54004F1078004F0078003600F9003400F90075
:042D64000040060025
:1031E40000000000803F000018720000313F000022
:1031F400F0FD0000753E000047580000633D0000EC
:10320400589500001D3C000082C40000AE3A000046
:10321400A878000021390000EF93000080370000F7
:10322400A0920000A73500004656000015340000A7
:10323400FFE60000DB2E0000C4FF00007F3F00001B
:1032440080EF0000FFBE000090E10000A93E0000F6
:10325400EC82000076BE000082AD00002B3E000030
:103264000E3C0000C3BD000087D10000133D0000E8
:0832740041780000D3BB00000B
:04327C00000000004E
:08328000000000000000000046
:043288000000000042
:04328C00000000003E
:04329000000000003A
:08329400000000000000000032
:08329C0000000000000000002A
:0832A400000000000000000022
:0832AC0000000000000000001A
:0432B4000000000016
:0832B80000000000000000000E
:0200000401F009
:200000000F000000FFFF00000700000083000000A50000005F000000F7000000C30000008B
:00000001FF
