:100000005A11040000000000000000000000000081
:1000100000000000000000000000000000000000E0
:1000200000000000000000000000000000000000D0
:1000300000000000C81000000000000000000000E8
:10004000000000001211000000000000000000008D
:10005000000000008E120000000000000000000000
:100060000000000000000000000000000000000090
:100070000000000000000000000000000000000080
:100080000000000000000000000000000000000070
:100090000000000000000000000000000000000060
:1022B4006FB52000F0FF200020A0B7000000200030
:1022C40034A0B700400020004420B70046130200A9
:1022D400000000008A1F78008B1F78003FFE070073
:1022E4000A5822000B00200027FF07005801200095
:1022F400B78525000E20ED00FEFF3A001020ED000A
:10230400FCFF3A00618220000020EF008048780042
:102314007182200010C0B30080487800118320002F
:1023240070C0B3008048780021842000E0CEB30060
:10233400804878003184200010C0B30080487800C1
:102344004184200070C0B30080487800718420006C
:10235400F0CFB3008048780020832000104078003C
:102364006104E10062003A0030832000904078006C
:10237400E0CEB300000CE10049003A006083200085
:1023840090407800F0CFB300000CE10044003A0024
:10239400408320009080FB00708220001000FB002E
:1023A4000008E1003D003A00508320009080FB00CB
:1023B400108320001000FB000008E10037003A0001
:1023C40082FE070071B120000020EF0080487800F1
:1023D40070B12000104078006604E1000A0031006A
:1023E40070B120009080FB00208420000100400098
:1023F4001085FB00ECFD070011C0B30070B1200094
:1024040010C84000F2FF3700018320000020EF00D5
:102414008048780000832000104078006404E100C4
:102424000A003100008320009080FB0030832000EC
:10243400810040000020EF008048780011C0B30004
:102444000083200010C84000F2FF37000183200001
:1024540030C0B3008048780000832000104078002A
:102464006504E1000A003100008320009080FB0035
:1024740020842000810040000020EF008048780084
:1024840011C0B3000083200010C84000F2FF3700E1
:10249400218320000020EF008048780014003700DA
:1024A400018320000020EF00804878000083200092
:1024B400104078006404E1000A0031000083200029
:1024C4009080FB0030832000810040000020EF005A
:1024D4008048780011C0B3000083200010C8400079
:1024E400F2FF3700218320000020EF0080487800AD
:1024F40038002000578D20000E20ED00FEFF3A002A
:102504001020ED00FCFF3A0093FF3700CF05780060
:082514004F057800FFFF3700BE
:101BE000407420009040780000CEB30080C06000B8
:101BF00040742000014878006002200046A7B7002A
:101C00004074200090407800F0C3B30080C06000B2
:101C10004074200001487800E0FF2F002CA3B7009B
:101C2000C002A800C082A80000F82F00C8A2B70018
:101C30002143A90001198000F0CF2F00008060002F
:101C400020A3B7002063A90021A3A9002043A80076
:101C50000032200090407800F0C1B30080C06000E6
:101C6000003220000148780011198000F0FF2100A7
:101C70000080600022A3B70011198000F0CF2F0070
:101C80000080600022A3B7002343A9002223A900FB
:101C90002203A90025E3A90020C0B30080407800FA
:101CA0004032200090C06800F0CFB30080C06000D8
:101CB0004032200090C06800403220000148780087
:101CC00000202000800078004032200090806800D2
:101CD00000F0210080806000403220009080680089
:101CE000211988002823EF002623EF003023EF007E
:101CF00021E3A8000000280004A1B7009460A90017
:101D00008460A900800C200002A1B7000000280018
:101D100010A1B70094E0A90084E0A900401F2000B2
:101D20000CA1B70070C0B30080407800406A20006A
:101D300090C06800FFC06000406A200090C068004A
:101D4000406A20000148780030C0B300804078002D
:101D5000606C200090C06800FFC06000606C2000D4
:101D600090C06800606C2000014878009560A80071
:101D70008560A9000000260080007800400A20004D
:101D8000908068000000270080806000400A2000EA
:101D90009080680021058800000025008000780000
:101DA000600A2000908068000000270080806000AA
:101DB000600A20009080680031058800410580009D
:101DC0000000270000807000A8A0B70000000600F7
:001DD00013
:101F8C000800FA0060DD2000F041880040DE2000EF
:101F9C0000428800F0FF2F00C0418800F0FF2F00A6
:101FAC00D04188002022EF000000280022A2B700B8
:101FBC002062A9001DFD07000001BE00803E20002C
:101FCC000100200010FD07000001BE001AFD0700F3
:101FDC004100DE0064004000800078006000470093
:101FEC000A88BE008100E900030035001018D000FB
:101FFC001090D200FBFF3700829FBE008A9FBE006C
:10200C000200BE000E0190009E0190000002EB0049
:10201C000BFD07004F05BE004F01BE0020079800C6
:10202C00310798008A9FBE000200BE000E0190008E
:10203C009E0190000002EB00B0FE07004F05BE00B1
:10204C008001780001027800600047005001D10047
:10205C00C080D300640047003008E1002090E1000C
:10206C000700310061804100E0004A0080027800E6
:10207C000103780005017800860178000200370022
:10208C0003017800840178000280710033003A006B
:10209C00E6FC07000001BE00803E2000010020008D
:1020AC00D9FC07000001BE00E3FC07004100DE0084
:1020BC0000A0EC0080007800600047000A88BE0099
:1020CC008100E900030035001018D0001090D200F8
:1020DC00FBFF3700829FBE000200BE000E01900085
:1020EC009E0190000002EB00D5FC07004F01BE00E2
:1020FC0020079800310798000200BE000E019000E6
:10210C009E0190000002EB007CFE0700800178002D
:10211C0001027800600047005001D100C080D3005C
:10212C00640047003008E1002090E1000700310016
:10213C0061804100E0004A008002780001037800D1
:10214C000501780086017800020037000301780051
:10215C00840178002062A800000037006100510063
:10216C00E0805900401188002222A90021E2A80039
:10217C002342A8009DFC07009CFC07000080FA008D
:04218C000000060049
:0C143800008823001100200000000600C6
:0814440020002000000006005A
:1013F80058012000B78525000E20ED00FEFF3A00B9
:0C1408001020ED00FCFF3A000000060080
:101414000000FA00020AB800500088000200B80078
:1014240081004200032AB800810042000080FA00D3
:0414340000000600AE
:10144C000000FA00020007007A0A04000000000005
:10145C000800E20002003A0010000700000006003D
:10146C00811F78000200E20002003D0060001000C5
:10147C00E08018000600E20002003D00600111004F
:10148C00E0811900050007004F00E00002003B005E
:10149C0060001000E0801800000006000200070049
:1014AC000480BE00000006006022B8000602200086
:1014BC000000D0008180D2000482D2008582D2004C
:1014CC000000A8000202520083825A0003003B0075
:1014DC000202420083824A000000A1000603E900D8
:1014EC00F3FF3A00000006000080FA00000006003E
:0014FC00F0
:101B08000000FA0002000700D20D040000000000E7
:101B18000800E20002003A0010000700000006007A
:101B2800839F68000200E20002003D006000100090
:101B3800E08018000600E20002003D00600111008C
:101B4800E0811900050007004F00E00002003B009B
:101B580060001000E0801800000006006022B80055
:101B6800060220000000D0008180D2000482D2004A
:101B78008582D2000000A8000202520083825A0027
:101B880003003B000202420083824A000000A100D9
:101B98000603E900F3FF3A00000006000080FA009F
:041BA8000000060033
:101DD00061B120000020EF00804878000020EF0073
:101DE0000220EF00C0588800D15888000020EF0082
:101DF0000220EF00E0588800F15888000020EF0032
:101E00000220EF0050588800615888000020EF0041
:101E10000220EF00705888008158880060B12000CF
:101E2000104078006304E10022003D00B3FD07008C
:101E300090588000A1588000705888008158880010
:101E400090588000A158800052588000635880004C
:101E500009FD07000200200003042400A1F9070087
:101E60000000E0000060EF0001003C000060EC00BA
:101E70000040E2000A003200C2588000D3588000BF
:101E80007058800081588000A6F90700C05888006B
:101E9000D158880011C0B30060B1200010C84000C4
:101EA0007058800081588000505888006158880020
:101EB000DAFF37000200200003042400C05880002D
:101EC000D158800067FB0700E0588800F15888006F
:101ED000B4FE070002002E00B34A2400E058800040
:101EE000F15880008FF9070002002800F33E24001B
:101EF000E1FC070002402200439F240059FB070039
:101F00002059880031598800625980007359800037
:101F1000C7FA070002002000A3472400C4FA070004
:101F2000405988005159880085FA070000598800F7
:101F300000B220001059880071B1200030C0B300F9
:101F40008048780070B12000104078006504E100FE
:101F50000D00310070B120009080FB002084200033
:101F60008100400010598000904878001100200046
:101F700020B220001088400011C0B30070B12000D2
:0C1F800010C84000EFFF37000000060012
:1014FC000C00FA000020EF0040428800CA02A9004C
:10150C0005E1A9009460A9000621EF0094E0A80071
:10151C0011E1A8000020EF0040588800D083200083
:10152C00104078006104E10001003200FBFF37003D
:10153C00D0832000104078006104E10088003A005C
:10154C0060B02000801F7800E0152000801F78001C
:10155C00A0842000801F780032FF07006F00B100CC
:10156C00B040880000B52000801F7800E0152000F6
:10157C00801F7800A0842000801F780017FF0700D0
:10158C006F00B100A04088006181200011001000A4
:10159C004101DE0061812000208120001108110032
:1015AC000020EF00905A8800915A8000E01520002E
:1015BC000008E10067003100905A8000C100DD0096
:1015CC00A0842000810140001301780021812000BB
:1015DC0080812000110851009300780020812000A8
:1015EC001008E1000B003100905A8000C100DD00B2
:1015FC00A084200081004000904080001100500029
:10160C004100DD001101400021812000808120007B
:10161C0011085100C04080008000EB0018FF07004B
:10162C00F040880001418800324080004340800037
:10163C00B9FB070002482E0023B92300F9FC070070
:10164C0000079800110798007040800081408000CE
:10165C0002482E0023C12300F2FC07000E0190006B
:10166C009E019000ACFB0700200798003107980002
:10167C005040800061408000623C2A0063FE2B00D9
:10168C00E8FC070000079800110798002E00900056
:10169C00BE009000829FBE000E0190009E01900043
:1016AC00F2FE07004F01BE0020079800310798009A
:1016BC001040800021408000F2EA2D0013F5230039
:1016CC00D8FC070000079800110798002E00900026
:1016DC00BE009000829FBE000E0190009E01900003
:1016EC00E2FE07004F01BE00D0408800E1408800B8
:1016FC0052408000634080001240880023408800E4
:10170C005040880061408800724080008340800017
:10171C003240880043408800F24080000341800042
:10172C00724088008340880082FC070000408800DB
:10173C00915A80004109DD00A18420008280400084
:10174C00800878001100200020B52000108840008F
:10175C0095FF3700D183200020C0B300804878006B
:10176C00D0832000104078006204E10088003A0029
:10177C0060B32000801F7800E0152000801F7800E7
:10178C00A0842000801F7800A6FE07006F00B10027
:10179C00A05A8800B0598000C05988000020EF0082
:1017AC00D0598800D0598000C100DD00A0842000F1
:1017BC00010040009000780040B520001008E100C6
:1017CC000400310011002000A0B32000108840005C
:1017DC00F4FF3700C1598000A0B3200010805000E6
:1017EC00C100DE00A0B32000908040008159880029
:1017FC007080500090598800F0814000A3598800F7
:10180C00C100DD00A0842000010040001001780020
:10181C00425A8800C118DD00A0842000010040005D
:10182C001000780000079800505A880002007800D9
:10183C00CF80DE000081EB0091FE0700400798008E
:10184C0051079800605A8800715A8800A05A80008D
:10185C00CF80DE000081EB0089FE07002007980096
:10186C0031079800E0598800F15988000E0090006B
:10187C00CF80DE000081EB0081FE0700000798009E
:10188C0011079800809FBE000E0090009E009000F3
:10189C00005A8800115A88004F00BE004E0090007C
:1018AC00DE009000829FBE000E0190009E01900011
:1018BC006EFE07004F01BE002E019000BE0190008D
:1018CC002007980031079800000020000100240038
:1018DC0054FC07000007980011079800605A80001C
:1018EC00715A8000829FBE000E0190009E019000F4
:1018FC005EFE07004F01BE00025A8000135A8000A2
:10190C0005FB0700020020000300240045FC070033
:10191C0000079800110798002E009000BE00900060
:10192C00829FBE000E0190009E019000CAFC070031
:10193C004F01BE00205A8800315A88000200200056
:10194C000318240037FC070002002000030A2400BF
:10195C0034FC0700404188005141880080598000C8
:10196C008000EB0046FE070002002000030A240062
:10197C002CFC0700604188007141880042418000C6
:10198C0053418000E4FA070090588800A158880061
:08199C000080FA0000000600C3
:101230000000FA002EB997003EB89700CEB897008C
:10124000B10278000009EB000002E9000700340059
:10125000B10178000328E10002003C00530088003F
:10126000040950000402E900F9FF3C000500880071
:081270000080FA0000000600F6
:1011E8000000FA002EB997003EB89700CEB89700D5
:1011F800B10278000009EB000002E90007003400A2
:10120800B10178000328E10002003500530088008E
:10121800040950000402E900F9FF3C0005008800B9
:081228000080FA00000006003E
:10128C000000FA0002000700F8090400000000004A
:10129C000400E20006003A000005EB000200E20048
:1012AC000F003E000000E200270032000C00370067
:1012BC00A10088000200E2000400350008003C0098
:1012CC000000E20020003200050037006000100032
:1012DC00E080180002003B0001F02C001A003700DF
:1012EC000084BE006011B8006B0920000982CF0099
:1012FC00020039000882CF000441B000694252005C
:10130C000E00320008003B00828171006101640014
:10131C008904D1000884D3008B05E8000442E8005E
:10132C00F9FF3A00050037000804440089844C009A
:10133C008B05E9000442E900FBFF3A0003000700BB
:10134C000AF0A70003E0A8000000060081002000BE
:10135C00618055000B003D000B00200061FE2F004A
:10136C000100E1001D003400828171006101640004
:10137C008904D1000884D3000000E800FAFF3A0089
:10138C007100200061006400030070000200600026
:10139C000900320061044400E0844C000988A50077
:1013AC00050032008B05E8006808E10002003A00F5
:1013BC008904D1000884D300F20F20000258E10008
:1013CC0005003D00C75DDD00F907B200898075009E
:1013DC0008008800000006000BF827001B0088009E
:0C13EC00000005000080FA000000060070
:101278000000FA0007E0AA00A8FC07000080FA00B6
:04128800000006005C
:100524000000FA0002000700FA03040000000000C3
:10053400889FBE008A9FBE008C1F78005900070068
:10054400600033006450E1004F0032006420E10099
:100554005200320003826C0007003B000905D00002
:100564000306D000820F54000C065D00020039001F
:100574000200320039008800C300880085825500DB
:1005840004003D000003FD008103FD008502EA0034
:100594008B854200840F720002003B006000100053
:1005A400E08018006011B8000005EB007A28E10033
:1005B4000A00390006008800C75DDD00F707B200B5
:1005C400878075002D003700828171002A00880021
:1005D400610560008180D1000080D3008502E900BC
:1005E400F9FF3B00060440008784480002003B00FA
:1005F40060041400E0841C000988A3000700320092
:100604008A81710082817100610164008904D100D2
:100614000884D3008B05E800170037000978A3008D
:1006240013003A001600E200130034008B05E900C1
:100634000804440089844C000A4474000978A30027
:100644000D003A001600E200070034008B05E900B3
:100654000804440089844C0001003A000B00200087
:100664000978A300F7FF32000001EB000200370015
:10067400828171002A008800220007000CF0A70084
:1006840003E0A800180037006420E10002003A00EB
:10069400838F6C00180033000881BE000280BE0006
:1006A400110037000084BE003C0007000083BE0038
:1006B4000485BE000280BE0038000700844F750028
:1006C400000006000280BE006450E1000500360010
:1006D4006420E100020036000968A30001003A002A
:1006E4000880BE0002C0A8004F0678004F05BE0077
:1006F4004F04BE0000000600F0FF2F00F1FF2700AA
:10070400F9FF370081002000618055000B003D0097
:100714000B00200061FE2F000100E1001D003400E9
:1007240082817100610164008904D1000884D300CE
:100734000000E800FAFF3A00710020006100640044
:1007440003007000020060000900320061044400EC
:10075400E0844C000988A500050032008B05E80000
:100764006808E10002003A008904D1000884D3003B
:10077400F20F20000258E10005003D00C75DDD00D6
:10078400F907B2008980750008008800000006009F
:100794000BF827001B00880000000500C70ADE00D4
:1007A400F107B200F50FB20008003200E1CF4200B9
:1007B4000200320002E0A80024000500810F70004E
:1007C400010032000408050044000500810F700098
:1007D40002003A00140005008502E9000000400010
:1007E40081C04800FCFF3B0002E0A8002400050093
:0807F4000080FA00000006007D
:100A30000000FA00020007002E060400000000007B
:100A4000889FBE008A9FBE008C1F78003000070080
:100A50003700330003866C006450E100240032004C
:100A60006420E100270032006150E10022003200E2
:100A70006120E100210032008B854200EB07B100CC
:100A80000134B800003AB8000804420089844A00E2
:100A9000013AB8000030B8008880400009014A00DF
:100AA000040033000000400081804800020149003A
:100AB0008B05E900C909DD008301700001003200E7
:100AC00013002000C814DE004814DD004709DE00D2
:100AD0001200B200C808DE0008847000240007007D
:100AE00001F0A1000CF0A70003E0A80019003700F6
:100AF0006120E1001B0032000881BE000280BE00C0
:100B0000F7FF37006150E100FCFF3A0015003700A5
:100B10000084BE003C0007000083BE000485BE00C8
:100B20000280BE0038000700844F750000000600F8
:100B30000280BE006450E100050036006420E10040
:100B4000020036000968A30001003A000880BE00D8
:100B500002C0A8004F0678004F05BE004F04BE003B
:100B600000000600F0FF2F00F1FF2700F9FF37001B
:100B700081002000618055000B003D000B0020002B
:100B800061FE2F000100E1001D0034008281710030
:100B9000610164008904D1000884D3000000E800EA
:100BA000FAFF3A0071002000610064000300700049
:100BB000020060000900320061044400E0844C003F
:100BC0000988A500050032008B05E8006808E100EF
:100BD00002003A008904D1000884D300F20F2000FB
:100BE0000258E10005003D00C75DDD00F907B200D5
:100BF0008980750008008800000006000BF82700B7
:100C00001B00880000000500C70ADE00F107B200E3
:100C1000F50FB20008003200E1CF420002003200BE
:100C200002E0A80024000500810F700001003200DE
:100C30000408050044000500810F700002003A001E
:100C4000140005008502E9000000400081C0480052
:100C5000FCFF3B0002E0A800240005000080FA0031
:040C6000000006008A
:100C64000000FA000200070064070400000000000E
:100C7400889FBE008A9FBE008C1F78003E0007003C
:100C84004500330003866C006450E1002E003200FE
:100C94006420E100330032006150E1002F00320093
:100CA4006120E1003100320085855500EB07B0007A
:100CB400090020000804200005003700080444004F
:100CC40089844C000A0031000603430087834B00EB
:100CD4000001530081815B00F8FF33000283BE00F2
:100CE4001000A8000804440089844C00F6FF390071
:100CF400C639DD00830173000100320013002000B7
:100D04008904D1000884D3000998A30005003200A7
:100D14000800A7000600A8008904D1000884D300B5
:100D24008B05E8008904D1000884D3000001EB009E
:100D34000281D2002800070001F0A1000CF0A700F6
:100D440003E0A8001D0037006420E1001F0032000A
:100D54000881BE000280BE00F7FF37006120E10079
:100D64001A0032006000B800F3FF370000002000D2
:100D740001F82700F0FF37000084BE003C000700A4
:100D84000083BE000485BE000280BE003800070058
:100D9400844F7500000006000280BE006450E1002C
:100DA400050036006420E100020036000968A30053
:100DB40001003A000880BE0002C0A8004F06780077
:100DC4004F05BE004F04BE0000000600F0FF2F00D8
:100DD400F1FF2700F9FF37008100200061805500F2
:100DE4000B003D000B00200061FE2F000100E1001C
:100DF4001D00340082817100610164008904D10006
:100E04000884D3000000E800FAFF3A0071002000D3
:100E140061006400030070000200600009003200F9
:100E240061044400E0844C000988A50005003200F8
:100E34008B05E8006808E10002003A008904D1004B
:100E44000884D300F20F20000258E10005003D00A1
:100E5400C75DDD00F907B2008980750008008800CD
:100E6400000006000BF827001B00880000000500A6
:100E7400C70ADE00F107B200F50FB2000800320025
:100E8400E1CF42000200320002E0A8002400050085
:100E9400810F7000010032000408050044000500C1
:100EA400810F700002003A00140005008502E90079
:100EB4000000400081C04800FCFF3B0002E0A800A5
:0C0EC400240005000080FA000000060079
:100940000000FA0002000700140504000000000087
:100950000081BE001F0007000470A70003F0A10083
:100960006509B100160032000D0035006828E1006D
:1009700006003500F0FF2F00F1FF27000600E2001F
:1009800013003B00010028000000050000004000AB
:10099000818048008502E900FCFF3A00080037002A
:1009A000F88F420002003C008000EB0000000500D0
:1009B0008100D1000080D3008502E800FCFF3A00EE
:1009C0000600E20002003B0060001000E08018001A
:1009D00000000600C70ADE00F107B200F50FB20002
:1009E00008003200E1CF42000200320002E0A8001D
:1009F00024000500810F700001003200040805008A
:100A000044000500810F700002003A001400050048
:100A10008502E9000000400081C04800FCFF3B0067
:100A200002E0A800240005000080FA000000060093
:000A3000C6
:1019A4000400FA008A1F78008B1F78008C1F7800CF
:1019B4001B0020002A2C200080FD0700CCCCB300A3
:1019C4001B0020002A2C200040FD07004CC4B3005B
:1019D4001B0020002A2C20003CFD07005753200048
:1019E4000E20ED00FEFF3A00000000001B00200066
:1019F4002A2C200071FD0700CCCCB3001B00200072
:101A04002A2C200031FD0700ECCBB3001B00200082
:101A14002A2C20002DFD0700575320000E20ED0036
:101A2400FEFF3A00000000001B0020002A2C2000CA
:101A340044FD07008082FB001B0020002A2C2000AC
:101A440040FD07000080FB004800DD000500400069
:101A54000001780001E0AE00020037000420EF002E
:101A6400000037004410DE0080017800EF006100C0
:101A7400102720000008B800831F78008000EB00C6
:101A840001FE070002002400C361240074FC070067
:101A9400CF01780000079800110798000300780030
:101AA4008000EB00F8FD07000E0190009E019000FD
:101AB4009BFA070010418800214188000200280099
:101AC4008338240066FC07000200200003F823008A
:101AD40093FA07000005BE0050FD0700A2992B00F1
:101AE400533A2400D1FB07006059880071598800DB
:101AF4004F067800CF0578004F0578000080FA0083
:041B040000000600D7
:100FC0000000FA00100020000B00DD000001780096
:100FD0008080EA008101780062004500108860008E
:100FE000620055001088610004FE07006200550091
:100FF0001008710040FD07001A0061006000E10068
:101000000060EF00010032000060EC008080FB0017
:10101000FAFD0700010078000080FA0000000600D9
:00102000D0
:1007FC00A7A021000E20ED00FEFF3A000000000033
:08080C000000000000000600DE
:1004F800A74220000E20ED00FEFF3A000000000099
:080508000000000000000600E5
:100ED0000000FA00100020000B00DD000001780087
:100EE0008080EA000620EF006718E10012003E0053
:100EF0000C80FB000300DE000080FB00610260004C
:100F00006200450010886000620055001088600093
:100F10000800E20002003200620055001008710073
:100F200075FD0700620055001008710078FD07008C
:100F30000620EC00ECFF370036FE070035FE070008
:080F40000080FA000000060029
:10051000D70020000E20ED00FEFF3A000000000092
:0405200000000600D1
:10081400A72920000E20ED00FEFF3A000000000092
:080824000000000000000600C6
:100F48000000FA00100020000B00DD00000178000E
:100F58008080EA000820EF000620EF006718E10013
:100F680012003E00620045001088600062005500D3
:100F78001088600064FD07006200550010087100C9
:100F880061FD07001A006100040032001000200013
:100F98000300DD0000027200000037001BFE07009E
:100FA8001AFE07000620EC00ECFF3700044078002A
:080FB8000080FA0000000600B1
:101020000C00FA008C1F78008A9FBE000420EF009D
:101030000620EF000A00BE002AFD07000000E000C5
:101040000060EF0001003C000060EC004F05BE00B6
:101050000040E200030032000020EF000220EF0019
:101060005E0037000A0798001B0798008A9FBE00A1
:101070000200200003F823000A00BE0019FD07004B
:101080000000E0000060EF0001003D000060EC00A7
:101090004F05BE000040E200090032008A9FBE00FA
:1010A0000E0190009E0190000000200001F8230036
:1010B000ECFE07004F05BE000007980011079800DE
:1010C0006A0047008A9FBE00000678000E05900067
:1010D0009E059000D5FD07005E0190004191DE0065
:1010E000020678000005BE00E6FD07004F05BE00C1
:1010F00000079800110798008A9FBE000200200098
:1011000003F823000A00BE00F6FC07000000E00020
:101110000060EF0001003D000060EC004F05BE00E4
:101120000040E200090032008A9FBE000E019000DC
:101130009E0190000000200001F82300C9FE070076
:101140004F05BE00000798001107980040012000DD
:10115000400798008A9FBE000E0190009E019000FB
:101160000A00BE00BFFE07000E0190009E01900025
:10117000ECFC07000200200003002400B9FE070079
:1011800020079800310798000E0190009E01900002
:10119000D4FC07000000E0000060EF0001003A000E
:1011A0000060EC004F05BE000040E200010032008C
:1011B000080037002E009000BE0090000007980045
:1011C000110798004E0090000020ED0040079800A5
:1011D000E0FF3A000E0090009E0090004F0678005D
:0811E0000080FA000000060087
:10082C000400FA000A0798001B0798009E0090002D
:10083C0000F8270080806000C708DE00E007200079
:10084C0000805000000E780001F023006200470089
:10085C009080680000F827008080600062004700EC
:10086C0090806800110798000E0090009E00900088
:08087C000080FA0000000600F4
:100884000400FA000A0798001B0798009E009000D5
:1008940000F82700008060004700DE0000004600EA
:1008A400000678006000E10003003D000020EF0036
:1008B4000220EF001F003700F00F20000060E1006D
:1008C400100034000420EF000620EF000A00BE00F0
:1008D40003FF07000000E0000060EF0001003D009E
:1008E4000060EC000040E20003003200F0FF2F0043
:1008F400F1F72F000F003700F0FF2F00F1F727006A
:100904000C00370070C0B3000000FB008060DD0005
:10091400620047009080680000F827008080600033
:100924006200470090806800110798000E00900054
:0C0934009E0090000080FA000000060009
:1004E4000000FA0014002000C4FF07000080FA0096
:0404F40000000600FE
:100400000000FA00020007006E0204000000000075
:10041000841F7800140007004F007800110033009B
:10042000F0FF2F00838F6C0006003B000405650081
:100430000A00A7000800370009F0A60010002000FD
:1004400008003700820F5400838F5C0003003900DE
:100450001000200001003E000000200009F0A7006D
:100460000000EA00000006000084BE00060007004D
:100470000083BE000485BE000280BE0002000700AB
:10048000844F750000000600C70ADE00F107B200C5
:10049000F50FB20008003200E1CF42000200320046
:1004A00002E0A80024000500810F70000100320066
:1004B0000408050044000500810F700002003A00A6
:1004C000140005008502E9000000400081C04800DA
:1004D000FCFF3B0002E0A800240005000080FA00B9
:0404E0000000060012
:101BAC000000FA002302AF0001003700FDFF3700F0
:0C1BBC002A1188000080FA0000000600DA
:10268C00018020004032290010000900B0187800A9
:04269C000000060034
:10251C003400F8003600F800801F780020002000FE
:10252C000C000900B01F7800A4FD07007183200087
:10253C0080487800E1CEB3000104E1000D003A00C0
:10254C0060822000104078006004E10009003A002D
:10255C00C183200010C0B300804878006082200046
:10256C009080FB00308320008100400070832000AD
:10257C00904878007083200090407800E0CEB30043
:10258C00000CE1000700320060822000104078004F
:10259C006004E10003003A0061822000F0CFB30038
:1025AC0080487800C0832000104078006104E1006E
:1025BC000A003A0060822000104078006004E100BC
:1025CC0006003200608220009080FB0030832000E7
:1025DC0081004000708320009048780011C0B30047
:1025EC006082200010C840006082200010407800FB
:1025FC006404E10009003A002183200010C0B300FC
:10260C0080487800C18320000020EF0080487800CB
:10261C00618220000020EF00804878008560A900CE
:10262C00A00120000C0009004F1078004F0078002A
:0C263C003600F9003400F90000400600F0
:101BC8000000FA0000000000000000002682BF00AC
:081BD8000080FA000000060085
:102224003400F8003600F800801F780020002000F9
:102234000C000900B01F7800404280006A00E100F1
:1022440002003100CA02AA000E003700CA02A90027
:10225400E1062000808420001008E10009003A0013
:1022640094E0A90011E1A9009460A8000021EF0006
:102274008460A90005E1A800D18320000020EF00BC
:1022840080487800110020008084200010884000DD
:1022940084E0A900A00120000C0009004F10780080
:1022A4004F0078003600F9003400F90000400600C1
:0022B4002A
:102190003400F8003600F800801F7800200020008E
:1021A0000C000900B01F78002023A9002003AF0015
:1021B00001003700FDFF370041588000E015200086
:1021C0000008E1000A00310040588000C100DD0035
:1021D000A0842000810040000083BF0080087800B8
:1021E0001100200080B0200010884000050037005A
:1021F000D183200010C0B3008048780005E1A90019
:102200009460A9008460A900A00120000C000900CE
:102210004F1078004F0078003600F9003400F900C4
:042220000040060074
:04264800000000008E
:08264C00000000000000000086
:0826540000000000000000007E
:08265C00000000000000000076
:0826640000000000000000006E
:04266C00000000006A
:042670000000000066
:042674000000000062
:04267800000000005E
:08267C00000000000000000056
:0826840000000000000000004E
:0200000401F009
:200000000F000000FFFF00000700000083000000A50000005F000000F7000000C30000008B
:00000001FF
