:10000000AC0D040000000000000000000000000033
:1000100000000000000000000000000000000000E0
:1000200000000000000000000000000000000000D0
:1000300000000000520D0000000000000000000061
:1000400000000000080D000000000000000000009B
:10005000000000000000000000000000860E00000C
:100060000000000000000000000000000000000090
:100070000000000000000000000000000000000080
:100080000000000000000000000000000000000070
:100090000000000000000000000000000000000060
:101B5800EFB22000F0FF200020A0B7000000200016
:101B680034A0B700400020004420B700EA0E02006D
:101B7800000000008A1F78008B1F7800B8FD07005E
:101B88000A5822000B00200034FD070058012000ED
:101B9800B78525000E20ED00FEFF3A001020ED006D
:101BA800FCFF3A00EA0E20003CFE0700DA002000A5
:101BB8003AFE0700AA00200038FE07003EFE070094
:101BC8000020EF00D0578800D1578000E015200092
:101BD8000008E1003B0031002BFE07006000E10037
:101BE80001003A00FCFF3700D0578000C100DD003B
:101BF800C083200001004000100078008000EB0046
:101C0800404188005141880080822000604188005E
:101C1800018320000020EF00804878000083200026
:101C2800104078006204E1000D003D0000832000B0
:101C38009000FB001083200081004000604180007C
:101C48009048780011002000C082200010884000D1
:101C580011C0B3000083200010C84000EFFF370018
:101C68000183200010C0B300804878000083200062
:101C7800104078006004E1000A003500008320006D
:101C88009000FB0010832000010040001085FB003D
:101C980002FE070011C0B3000083200010C8100026
:101CA800F2FF3700DA002000FCFD0700AA00200040
:101CB800FAFD070011002000A0AF200010884000A6
:101CC800C1FF3700EA0E2000F4FD0700DA0020000B
:101CD800F2FD0700AA002000F0FD070038002000F0
:101CE800578D20000E20ED00FEFF3A001020ED0079
:101CF800FCFF3A00ABFF3700CF0578004F057800AE
:041D0800FFFF3700A2
:10126800407420009040780000CEB30080C0600039
:1012780040742000014878006002200046A7B700AB
:101288004074200090407800F0C3B30080C0600034
:101298004074200001487800E0FF2F002CA3B7001D
:1012A800C002A800C082A800C822EF002143A900FC
:1012B80001198000F0CF2F000080600020A3B70044
:1012C8002063A90021A3A9002043A8000032200020
:1012D80090407800F0C1B30080C060000032200068
:1012E8000148780011198000F0FF2100008060009B
:1012F80022A3B70011198000F0CF2F0000806000F2
:1013080022A3B7002343A900203220009040780090
:1013180030CCB30080C06000203220000148780043
:101328002223A9002203A90025E3A90020C0B300B5
:10133800804078004032200090C06800F0CFB300B1
:1013480080C060004032200090C068004032200019
:1013580001487800002020008000780040322000FA
:101368009080680000F021008080600040322000FA
:1013780090806800211988002823EF002623EF00B9
:101388003023EF0021E3A8000000280004A1B700E3
:101398009460A9008460A900800C200002A1B70015
:1013A8000000280010A1B70094E0A90084E0A9007B
:1013B800401F20000CA1B7008200A90000C6B3009E
:1013C80080407800A00A200090C0680000C7B300E1
:1013D80080C06000A00A200090C06800A00A200019
:1013E8000148780021058000000027000080700077
:1013F800A4A0B7000000250080007800600A200043
:10140800908068000000270080806000600A20004B
:10141800908068003105880040C0B30080407800A3
:10142800400A200090C06800E7C06000400A200021
:1014380090C06800400A200001487800C0C0B3008E
:1014480080407800406A200090C06800FFC06000BB
:10145800406A200090C06800406A20000148780077
:101468000030200080007800C06C20009080680068
:1014780000F0210080806000C06C2000908068002F
:08148800613688000000060037
:101064000800FA0020A5200020418800405A2000F2
:1010740030418800E0582000104188008059200049
:10108400704188002022EF000000280022A2B7004F
:101094002062A90098FF07000001BE00803E2000E6
:1010A400010020008BFF07000001BE0095FF070030
:1010B4004100DE00640040008000780060004700CA
:1010C4000A88BE008100E900030035001018D00032
:1010D4001090D200FBFF3700829FBE008A9FBE00A3
:1010E4000200BE000E0190009E0190000002EB0081
:1010F400AFFF07004F05BE004F01BE002007980058
:10110400310798008A9FBE000200BE000E019000C5
:101114009E0190000002EB007CFF07004F05BE001B
:101124008001780001027800600047005001D1007E
:10113400C080D300640047003008E1002090E10043
:101144000700310061804100E0004A00800278001D
:101154000103780005017800860178000200370059
:1011640003017800840178000280710033003A00A2
:1011740061FF07000001BE00803E20000100200046
:1011840054FF07000001BE005EFF07004100DE00BF
:1011940000A0EC0080007800600047000A88BE00D0
:1011A4008100E900030035001018D0001090D2002F
:1011B400FBFF3700829FBE000200BE000E019000BC
:1011C4009E0190000002EB0079FF07004F01BE0072
:1011D40020079800310798000200BE000E0190001D
:1011E4009E0190000002EB0048FF07008001780098
:1011F40001027800600047005001D100C080D30094
:10120400640047003008E1002090E100070031004D
:1012140061804100E0004A00800278000103780008
:101224000501780086017800020037000301780088
:10123400840178002062A80000003700610051009A
:10124400E0805900401188002222A90021E2A80070
:101254002342A80018FF070017FF07000080FA00C8
:041264000000060080
:0C0EFC0000882300110020000000060008
:080F080020002000000006009B
:100EBC0058012000B78525000E20ED00FEFF3A00FA
:0C0ECC001020ED00FCFF3A0000000600C2
:100ED8000000FA00020AB800500088000200B800BA
:100EE80081004200032AB800810042000080FA0015
:040EF80000000600F0
:100FB4000000FA00020007002E08040000000000F0
:100FC4000800E20002003A001000070000000600DA
:100FD400811F78000200E20002003D006000100062
:100FE400E08018000600E20002003D0060011100EC
:100FF400E0811900050007004F00E00002003B00FB
:1010040060001000E08018000000060002000700E5
:101014000480BE00000006006022B8000602200022
:101024000000D0008180D2000482D2008582D200E8
:101034000000A8000202520083825A0003003B0011
:101044000202420083824A000000A1000603E90074
:10105400F3FF3A00000006000080FA0000000600DA
:001064008C
:100F10000000FA0002000700D607040000000000ED
:100F20000800E20002003A0010000700000006007E
:100F3000839F68000200E20002003D006000100094
:100F4000E08018000600E20002003D006001110090
:100F5000E0811900050007004F00E00002003B009F
:100F600060001000E0801800000006006022B80059
:100F7000060220000000D0008180D2000482D2004E
:100F80008582D2000000A8000202520083825A002B
:100F900003003B000202420083824A000000A100DD
:100FA0000603E900F3FF3A00000006000080FA00A3
:040FB0000000060037
:1014A4000000FA002302AF0001003700FDFF3700FF
:0C14B4002A1188000080FA0000000600E9
:1014C0000C00FA000020EF00C0578800CBC2A90032
:1014D00005E1A9009460A9000621EF0094E0A800AE
:1014E00011E1A8000020EF00E05788000020EF0085
:1014F000D057880050832000104078006104E1003C
:1015000001003200FBFF37005083200010407800BC
:101510006104E10083003A00A0832000801F78006E
:10152000E0152000801F7800C0832000801F780015
:10153000C9FC07006F00B1000040880080832000D4
:10154000801F7800E0152000801F7800C0832000F5
:10155000801F7800D2FC07006F00B1009040880027
:1015600001802000110010004101DE0001802000F8
:1015700040812000110811000020EF00B0418800D8
:10158000B1418000E01520000008E1006200310058
:10159000B0418000C100DD00C08320008101400017
:1015A00013017800418120000081200011085100C2
:1015B00093007800408120001008E1000B0031000A
:1015C000B0418000C100DD00C083200081004000E8
:1015D000A0408000110050004100DD0011014000DA
:1015E00041812000008120001108510080408000CE
:1015F0008000EB003DFC070010408800214088007F
:10160000B2408000C34080007DFB070002482E00EE
:1016100023B92300B4FC07000007980011079800C5
:10162000F04080000141800002482E0023C12300C9
:10163000ADFC07000E0190009E01900070FB0700BA
:1016400020079800310798006040800071408000BA
:10165000623C2A0063FE2B00A3FC070000079800F1
:10166000110798002E009000BE009000829FBE00DF
:101670000E0190009E01900017FC07004F01BE0074
:1016800020079800310798004040800051408000BA
:10169000F2EA2D0013F5230093FC070000079800E1
:1016A000110798002E009000BE009000829FBE009F
:1016B0000E0190009E01900007FC07004F01BE0044
:1016C000D0408800E1408800624080007340800084
:1016D0004240880053408800604088007140880084
:1016E000F240800003418000B2408800C34088007F
:1016F0001240800023408000F240880003418800AF
:10170000B2FD0700304088001100200060832000F7
:10171000108840009AFF37005183200020C0B3009A
:101720008048780050832000104078006204E10077
:10173000B0003A0020B22000801F7800E0152000A1
:10174000801F7800C0832000801F780042FC0700C3
:101750006F00B1000059880010598000505988006E
:101760000020EF006059880060598000C100DD0052
:10177000C0832000010040009000780000B22000EB
:101780001008E1000400310011002000C0B2200068
:1017900010884000F4FF370051598000C0B220008B
:1017A00010805000C100DE00C0B2200090804000D8
:1017B000415988006F80500020598800EF81400017
:1017C00033598800C100DD00C083200001004000C3
:1017D00010017800F2588800C118DD00C083200095
:1017E0000100400010007800000798005058880061
:1017F00002007800CF80DE000081EB00BBFB070019
:101800004007980051079800605888007158880078
:1018100000598000CF80DE000081EB00B3FB0700A1
:1018200020079800310798003058880041588800F8
:101830000E009000CF80DE000081EB00ABFB0700C4
:101840000007980011079800809FBE000E009000CE
:101850009E009000F0578800015888004F00BE009D
:101860004E009000DE009000829FBE000E019000AE
:101870009E01900098FB07004F01BE002E019000D2
:10188000BE0190002007980031079800000020005A
:101890000100240014FC07000007980011079800BD
:1018A0006058800071588000829FBE000E01900039
:1018B0009E01900088FB07004F01BE00F257800098
:1018C00003588000CEFA0700020020000300240025
:1018D00005FC070000079800110798002E009000F3
:1018E000BE009000829FBE000E0190009E019000FD
:1018F0009BFC07004F01BE0010588800215888004B
:101900000200200003172400F7FB0700020020005C
:10191000030A2400F4FB0700B0588800C15888006F
:10192000405980008000EB0070FB0700020020009F
:10193000030A2400ECFB0700D0588800E158880017
:10194000B2588000C3588000ADFA07009058880054
:10195000A158880002002000030A240080FC070030
:101960001AFD070080588800401F2000E0418800D1
:1019700020598000C100DD00C083200081004000AC
:10198000A00F20008008780040598000C100DD00D1
:10199000C083200081004000E0152000800878000E
:1019A00080588000C100DD00C0832000810040001D
:1019B000003220008008780030598000C100DD002E
:1019C000C083200081004000A00F20008008780024
:1019D000401F2000A05788009460A8000021EF005D
:1019E0008460A90005E1A8005183200030C0B30045
:1019F0008048780050832000104078006404E100A3
:101A000001003200FBFF37000080FA0000000600F2
:001A1000D6
:100858000000FA002EB997003EB89700CEB897006E
:10086800B10278000009EB000002E900070034003B
:10087800B10178000328E10002003C005300880021
:10088800040950000402E900F9FF3C000500880053
:080898000080FA0000000600D8
:1008A0000000FA002EB997003EB89700CEB8970026
:1008B000B10278000009EB000002E90007003400F3
:1008C000B10178000328E1000200350053008800E0
:1008D000040950000402E900F9FF3C00050088000B
:0808E0000080FA000000060090
:1006EC000000FA00020007002804040000000000CB
:1006FC000400E20006003A000005EB000200E200F4
:10070C000F003E000000E200270032000C00370012
:10071C00A10088000200E2000400350008003C0043
:10072C000000E200200032000500370060001000DD
:10073C00E080180002003B0001F02C001A0037008A
:10074C000084BE006011B8006B0920000982CF0044
:10075C00020039000882CF000441B0006942520007
:10076C000E00320008003B008281710061016400C0
:10077C008904D1000884D3008B05E8000442E8000A
:10078C00F9FF3A00050037000804440089844C0046
:10079C008B05E9000442E900FBFF3A000300070067
:1007AC000AF0A70003E0A80000000600810020006A
:1007BC00618055000B003D000B00200061FE2F00F6
:1007CC000100E1001D0034008281710061016400B0
:1007DC008904D1000884D3000000E800FAFF3A0035
:1007EC0071002000610064000300700002006000D2
:1007FC000900320061044400E0844C000988A50023
:10080C00050032008B05E8006808E10002003A00A0
:10081C008904D1000884D300F20F20000258E100B3
:10082C0005003D00C75DDD00F907B2008980750049
:10083C0008008800000006000BF827001B00880049
:0C084C00000005000080FA00000006001B
:1006D8000000FA0007E0AA0047FF07000080FA00C0
:0406E8000000060008
:100400000000FA000200070068030400000000007A
:10041000889FBE008A9FBE008C1F7800590007008D
:10042000600033006450E1004F0032006420E100BE
:100430005200320003826C0007003B000905D00027
:100440000306D000820F54000C065D000200390044
:100450000200320039008800C30088008582550000
:1004600004003D000003FD008103FD008502EA0059
:100470008B854200840F720002003B006000100078
:10048000E08018006011B8000005EB007A28E10058
:100490000A00390006008800C75DDD00F707B200DA
:1004A000878075002D003700828171002A00880046
:1004B000610560008180D1000080D3008502E900E1
:1004C000F9FF3B00060440008784480002003B001F
:1004D00060041400E0841C000988A30007003200B7
:1004E0008A81710082817100610164008904D100F8
:1004F0000884D3008B05E800170037000978A300B3
:1005000013003A001600E200130034008B05E900E6
:100510000804440089844C000A4474000978A3004C
:100520000D003A001600E200070034008B05E900D8
:100530000804440089844C0001003A000B002000AC
:100540000978A300F7FF32000001EB00020037003A
:10055000828171002A008800220007000CF0A700A9
:1005600003E0A800180037006420E10002003A0010
:10057000838F6C00180033000881BE000280BE002B
:10058000110037000084BE003C0007000083BE005D
:100590000485BE000280BE0038000700844F75004D
:1005A000000006000280BE006450E1000500360035
:1005B0006420E100020036000968A30001003A004F
:1005C0000880BE0002C0A8004F0678004F05BE009C
:1005D0004F04BE0000000600F0FF2F00F1FF2700CF
:1005E000F9FF370081002000618055000B003D00BD
:1005F0000B00200061FE2F000100E1001D0034000F
:1006000082817100610164008904D1000884D300F3
:100610000000E800FAFF3A00710020006100640069
:100620000300700002006000090032006104440011
:10063000E0844C000988A500050032008B05E80025
:100640006808E10002003A008904D1000884D30060
:10065000F20F20000258E10005003D00C75DDD00FB
:10066000F907B200898075000800880000000600C4
:100670000BF827001B00880000000500C70ADE00F9
:10068000F107B200F50FB20008003200E1CF4200DE
:100690000200320002E0A80024000500810F700073
:1006A000010032000408050044000500810F7000BD
:1006B00002003A00140005008502E9000000400035
:1006C00081C04800FCFF3B0002E0A80024000500B8
:0806D0000080FA0000000600A2
:1008E8000000FA00020007008A050400000000006A
:1008F800889FBE008A9FBE008C1F780030000700CA
:100908003700330003866C006450E1002400320095
:100918006420E100270032006150E100220032002B
:100928006120E100210032008B854200EB07B10015
:100938000134B800003AB8000804420089844A002B
:10094800013AB8000030B8008880400009014A0028
:100958000400330000004000818048000201490083
:100968008B05E900C909DD00830170000100320030
:1009780013002000C814DE004814DD004709DE001B
:100988001200B200C808DE000884700024000700C6
:1009980001F0A1000CF0A70003E0A800190037003F
:1009A8006120E1001B0032000881BE000280BE0009
:1009B800F7FF37006150E100FCFF3A0015003700EF
:1009C8000084BE003C0007000083BE000485BE0012
:1009D8000280BE0038000700844F75000000060042
:1009E8000280BE006450E100050036006420E1008A
:1009F800020036000968A30001003A000880BE0022
:100A080002C0A8004F0678004F05BE004F04BE0084
:100A180000000600F0FF2F00F1FF2700F9FF370064
:100A280081002000618055000B003D000B00200074
:100A380061FE2F000100E1001D0034008281710079
:100A4800610164008904D1000884D3000000E80033
:100A5800FAFF3A0071002000610064000300700092
:100A6800020060000900320061044400E0844C0088
:100A78000988A500050032008B05E8006808E10038
:100A880002003A008904D1000884D300F20F200044
:100A98000258E10005003D00C75DDD00F907B2001E
:100AA8008980750008008800000006000BF8270000
:100AB8001B00880000000500C70ADE00F107B2002D
:100AC800F50FB20008003200E1CF42000200320008
:100AD80002E0A80024000500810F70000100320028
:100AE8000408050044000500810F700002003A0068
:100AF800140005008502E9000000400081C048009C
:100B0800FCFF3B0002E0A800240005000080FA007A
:040B180000000600D3
:100B60000000FA0002000700E20604000000000096
:100B7000889FBE008A9FBE008C1F78003E00070041
:100B80004500330003866C006450E1002E00320003
:100B90006420E100330032006150E1002F00320098
:100BA0006120E1003100320085855500EB07B0007F
:100BB0000900200008042000050037000804440054
:100BC00089844C000A0031000603430087834B00F0
:100BD0000001530081815B00F8FF33000283BE00F7
:100BE0001000A8000804440089844C00F6FF390076
:100BF000C639DD00830173000100320013002000BC
:100C00008904D1000884D3000998A30005003200AC
:100C10000800A7000600A8008904D1000884D300BA
:100C20008B05E8008904D1000884D3000001EB00A3
:100C30000281D2002800070001F0A1000CF0A700FB
:100C400003E0A8001D0037006420E1001F0032000F
:100C50000881BE000280BE00F7FF37006120E1007E
:100C60001A0032006000B800F3FF370000002000D7
:100C700001F82700F0FF37000084BE003C000700A9
:100C80000083BE000485BE000280BE00380007005D
:100C9000844F7500000006000280BE006450E10031
:100CA000050036006420E100020036000968A30058
:100CB00001003A000880BE0002C0A8004F0678007C
:100CC0004F05BE004F04BE0000000600F0FF2F00DD
:100CD000F1FF2700F9FF37008100200061805500F7
:100CE0000B003D000B00200061FE2F000100E10021
:100CF0001D00340082817100610164008904D1000B
:100D00000884D3000000E800FAFF3A0071002000D8
:100D100061006400030070000200600009003200FE
:100D200061044400E0844C000988A50005003200FD
:100D30008B05E8006808E10002003A008904D10050
:100D40000884D300F20F20000258E10005003D00A6
:100D5000C75DDD00F907B2008980750008008800D2
:100D6000000006000BF827001B00880000000500AB
:100D7000C70ADE00F107B200F50FB200080032002A
:100D8000E1CF42000200320002E0A800240005008A
:100D9000810F7000010032000408050044000500C6
:100DA000810F700002003A00140005008502E9007E
:100DB0000000400081C04800FCFF3B0002E0A800AA
:0C0DC000240005000080FA00000006007E
:100DCC000000FA00020007005A07040000000000AF
:100DDC000081BE001F0007000470A70003F0A100F3
:100DEC006509B100160032000D0035006828E100DD
:100DFC0006003500F0FF2F00F1FF27000600E2008F
:100E0C0013003B000100280000000500000040001A
:100E1C00818048008502E900FCFF3A000800370099
:100E2C00F88F420002003C008000EB00000005003F
:100E3C008100D1000080D3008502E800FCFF3A005D
:100E4C000600E20002003B0060001000E080180089
:100E5C0000000600C70ADE00F107B200F50FB20071
:100E6C0008003200E1CF42000200320002E0A8008C
:100E7C0024000500810F70000100320004080500F9
:100E8C0044000500810F700002003A0014000500B8
:100E9C008502E9000000400081C04800FCFF3B00D7
:100EAC0002E0A800240005000080FA000000060003
:000EBC0036
:101490000000FA0071418000010001000080FA00A4
:0414A0000000060042
:100B48000000FA0000000000000000002682BF003C
:080B58000080FA000000060015
:100B1C000000FA002282BF00610060000080FA0031
:040B2C0000000600BF
:100B30000000FA000020EF002302AF000020EC00CC
:080B40000080FA00000006002D
:101DD4000180200080EC280010000900B018780071
:041DE40000000600F5
:101D0C003400F8003600F800801F78002000200016
:101D1C000C000900B01F7800E1578000E01520008E
:101D2C000008E1000A003100E0578000C100DD002E
:101D3C00C0832000810040000083BF008008780031
:101D4C0011002000C0AF20001088400005003700B3
:101D5C005183200010C0B3008048780005E1A90031
:101D6C009460A90085A0A900A00120000C00090026
:101D7C004F1078004F0078003600F9003400F9005D
:041D8C00004006000D
:101A10003400F8003600F800801F78002000200015
:101A20000C000900B01F7800C05780006A00E10078
:101A300002003100CBC2AA000F003700CBC2A900C0
:101A4000E106200080AF20001008E1000A003A0003
:101A500094E0A90011E1A90095A0A8009460A80055
:101A60000021EF008460A90005E1A8005183200057
:101A70000020EF00804878001100200080AF200097
:101A80001088400084E0A900A00120000C0009009B
:101A90004F1078004F0078003600F9003400F9004C
:041AA00000400600FC
:101AA4003400F8003600F800801F78002000200081
:101AB4000C000900B01F7800CBE2AA00508320007C
:101AC400104078006004E10001003A002023A900DE
:101AD40050832000104078006304E10015003A00B0
:101AE400D1578000E01520000008E1000C0031000F
:101AF400D0578000C100DD00C083200001004000F9
:101B040010017800F13F2000C02C20000108610082
:101B140011002000A0AF200010884000050037000D
:101B24005183200040C0B3008048780005E1A9003B
:101B34009460A9008460A900A00120000C000900A1
:101B44004F1078004F0078003600F9003400F90097
:041B54000040060047
:041D9000000000004F
:081D9400000000000000000047
:041D9C000000000043
:081DA00000000000000000003B
:081DA800000000000000000033
:041DB000000000002F
:041DB400000000002B
:041DB8000000000027
:081DBC0000000000000000001F
:081DC400000000000000000017
:081DCC0000000000000000000F
:0200000401F009
:200000000F000000FFFF00000700000083000000A50000005F000000F7000000C30000008B
:00000001FF
