:100000006C19040000000000000000000000000067
:1000100000000000000000000000000000000000E0
:1000200000000000000000000000000000000000D0
:1000300000000000DA1800000000000000000000CE
:100040000000000024190000000000000000000073
:1000500000000000DA1A00000000000000000000AC
:100060000000000000000000000000000000000090
:100070000000000000000000000000000000000080
:100080000000000000000000000000000000000070
:100090000000000000000000000000000000000060
:1032D800AFBE2000F0FF200020A0B70000002000B3
:1032E80034A0B700400020004420B700361C02007C
:1032F800000000008A1F78008B1F78004DFE070031
:103308000A5822000B0020004FFD0700580120003A
:10331800B78525000E20ED00FEFF3A001020ED00D5
:10332800FCFF3A00CAA2A9005116800000F02F0045
:10333800008060004801DE0062578800000020001D
:10334800613E2400005C8800115C8800C0122000E7
:10335800405E88000020EF00A05C880080AE20005E
:1033680030578800A1AE20000020EF008048780088
:10337800F1BD2000A0C3B3008048780000BE200043
:103388000248780041BE2000D0C0B30080487800D1
:10339800F0812000104078006104E1007F003A00CD
:1033A800D0B820009080FB00C0AE20001008E100DB
:1033B80066003A0010B92000104078006D04E10062
:1033C80062003A00E1812000E0B8200090487800CF
:1033D8000020EF004057880036003700A6FD0700A0
:1033E8005A002000A1FE070043003700A2FD070095
:1033F80001B920003057800011487800305780000C
:10340800E1004000F0B82000904878004A5780005A
:1034180096FE07003800370001B9200030578000B9
:103428001148780030578000E1004000F0B82000D3
:103438009048780040578000405E88008EFD070065
:103448006A00200089FE07002B00370001B9200020
:10345800305780001148780040578000A05C8800F1
:10346800F0B82000104078007104E10003003A0031
:10347800A15C800040B92000608810007EFD070034
:103488002A00200079FE07001B00370021BE20001B
:103498000020EF008048780031BE200010CEB30035
:1034A8008048780011BE2000E0CEB3008048780044
:1034B80011003700E0812000104078006104E1002D
:1034C800C6FF3200E0812000104078006204E1006D
:1034D800C6FF3200E0812000104078006304E1005C
:1034E800CDFF3200E0812000104078006404E10044
:1034F800D6FF3200E5FF3700E1BD20000020EF00D5
:1035080080487800E0BD2000104078006604E100A3
:103518000A003100E0BD20009080FB00C0B8200008
:10352800810040000020EF008048780011C0B300FF
:10353800E0BD200010C84000F2FF3700F1812000F4
:103548000020EF008048780014003700E1BD20001B
:103558000020EF0080487800E0BD2000104078008F
:103568006604E1000A003100E0BD20009080FB0005
:10357800C0B82000810040000020EF00804878009B
:1035880011C0B300E0BD200010C84000F2FF3700B2
:10359800F18120000020EF00804878007CFF370090
:0C35A800CF0578004F057800FFFF3700CA
:102C3C00407420009040780000CEB30080C060004B
:102C4C0040742000014878006002200046A7B700BD
:102C5C004074200090407800F0C3B30080C0600046
:102C6C004074200001487800D0FF2F002CA3B7003F
:102C7C00C022A80000F42F00C8A2B7002143A9006D
:102C8C0001198000F0CF2F000080600020A3B70056
:102C9C002063A90021A3A9002043A8000032200032
:102CAC0090407800F0C1B30080C06000003220007A
:102CBC000148780011198000F0FF210000806000AD
:102CCC0022A3B70011198000F0CF2F000080600004
:102CDC0022A3B7002343A9002223A9002203A900A1
:102CEC0025E3A90020C0B3008040780040322000CA
:102CFC0090C06800F0CFB30080C06000403220006C
:102D0C0090C068004032200001487800002020006C
:102D1C0080007800403220009080680000F0210094
:102D2C00808060004032200090806800211988006B
:102D3C0029E3A900001020008000780080322000D8
:102D4C009080680000F021008080600080322000BC
:102D5C00908068004119880028E3A90010C0B300D6
:102D6C00804078008032200090C06800FFC0600076
:102D7C008032200090C0680080322000014878002A
:102D8C002623EF003023EF0021E3A80000002800E9
:102D9C0004A1B7009460A9008460A900800C2000F5
:102DAC0002A1B7000000280010A1B70094E0A90010
:102DBC0084E0A900401F20000CA1B70060C0B30044
:102DCC0080407800406A200090C06800FFC060001E
:102DDC00406A200090C06800406A200001487800DA
:102DEC000030200080007800606C2000908068002B
:102DFC0000F0210080806000606C200090806800F2
:102E0C00313688009560A8008560A9000000260076
:102E1C0080007800400A20009080680000002700A5
:102E2C0080806000400A20009080680021058800A6
:102E3C000000250080007800600A20009080680067
:102E4C000000270080806000600A200090806800ED
:102E5C0031058800410580000000270000807000CB
:082E6C00A8A0B7000000060059
:102850000800FA0000F82000405A8800A052210029
:10286000105A880060532100205A8800E019210086
:10287000305A88002022EF000000280022A2B70072
:102880002062A900E6FF07000001BE00803E200094
:1028900001002000AFFE07000001BE00E3FF0700BB
:1028A0004100DE00640040008000780060004700C6
:1028B0000A88BE008100E900030035001018D0002E
:1028C0001090D200FBFF3700829FBE008A9FBE009F
:1028D0000200BE000E0190009E0190000002EB007D
:1028E00021FF07004F05BE004F01BE0020079800E2
:1028F000310798008A9FBE000200BE000E019000C2
:102900009E0190000002EB009CFF07004F05BE00F7
:102910008001780001027800600047005001D1007A
:10292000C080D300640047003008E1002090E1003F
:102930000700310061804100E0004A008002780019
:102940000103780005017800860178000200370055
:1029500003017800840178000280710033003A009E
:10296000AFFF07000001BE00803E200001002000F4
:1029700078FE07000001BE00ACFF07004100DE004A
:1029800000A0EC0080007800600047000A88BE00CC
:102990008100E900030035001018D0001090D2002B
:1029A000FBFF3700829FBE000200BE000E019000B8
:1029B0009E0190000002EB00EBFE07004F01BE00FD
:1029C00020079800310798000200BE000E01900019
:1029D0009E0190000002EB0068FF07008001780074
:1029E00001027800600047005001D100C080D30090
:1029F000640047003008E1002090E100070031004A
:102A000061804100E0004A00800278000103780004
:102A10000501780086017800020037000301780084
:102A2000840178002062A800000037006100510096
:102A3000E0805900401188002222A90021E2A8006C
:102A40002342A8007BFF07007AFF07000080FA00FE
:042A5000000006007C
:0C282000008823001100200000000600CA
:08282C0020002000000006005E
:1028340058012000B78525000E20ED00FEFF3A0068
:0C2844001020ED00FCFF3A000000060030
:102354000000FA00020AB800500088000200B80029
:1023640081004200032AB800810042000080FA0084
:04237400000006005F
:102568000000FA0002000700081304000000000041
:102578000800E20002003A00100007000000060010
:10258800811F78000200E20002003D006000100098
:10259800E08018000600E20002003D006001110022
:1025A800E0811900050007004F00E00002003B0031
:1025B80060001000E080180000000600020007001C
:1025C8000480BE00000006006022B8000602200059
:1025D8000000D0008180D2000482D2008582D2001F
:1025E8000000A8000202520083825A0003003B0048
:1025F8000202420083824A000000A1000603E900AB
:10260800F3FF3A00000006000080FA000000060010
:00261800C2
:10277C000000FA00020007000C1404000000000026
:10278C000800E20002003A001000070000000600FA
:10279C00839F68000200E20002003D006000100010
:1027AC00E08018000600E20002003D00600111000C
:1027BC00E0811900050007004F00E00002003B001B
:1027CC0060001000E0801800000006006022B800D5
:1027DC00060220000000D0008180D2000482D200CA
:1027EC008582D2000000A8000202520083825A00A7
:1027FC0003003B000202420083824A000000A10059
:10280C000603E900F3FF3A00000006000080FA001E
:04281C0000000600B2
:102A80000400FA008A1F78008B1F78008C1F7800E2
:102A90008D1F780000B92000104078006404E10028
:102AA00008003A00DCFE0700C05B8000D15B8000BC
:102AB0007CF70700605D8800C0BA2000705D880068
:102AC00058003700718020000020EF008048780017
:102AD00070802000104078006A04E1000D00310091
:102AE000708020001080FB00C100DD0080B9200054
:102AF00001004000000798001FFE07008E009000B4
:102B00008008780011C0B3007080200010C8400019
:102B1000EFFF37008AB920006FFD0700905C880046
:102B2000C11020000100E10008003900915C800024
:102B3000B01120000008E10004003E003100200038
:102B400020B9200010881000030037001100200079
:102B500020B9200010884000A05C8000CF80DE00FB
:102B60000081EB0025F90700000798001107980085
:102B7000905C80008000EB0020F907000E019000BF
:102B80009E019000AAF7070046F70700905C8800B6
:102B900081BC200011001000B05C88008000EB00B8
:102BA00016F9070002002000A347240052F6070090
:102BB000905E8800A15E88000C0020000D022400B9
:102BC0000005BE00D5FC07000217260073A92400EB
:102BD0007DF80700B05E8800C15E8800925C8000CE
:102BE000D25E88002FF70700805E8800805D80003D
:102BF000915D80002BF70700505E8800A0BD20008B
:102C0000605E880060B92000705E880000BD200012
:102C1000E05E8800A0BC2000305F880080BC2000FF
:102C2000405F8800CF0678004F067800CF05780017
:0C2C30004F0578000080FA00000006004C
:102618000400FA008A1F78008B1F78008C1F78004E
:102628001620EF002A2C200061FD0700CCCCB30057
:102638001620EF002A2C200011FE07004CC4B3001E
:102648001620EF002A2C20000DFE0700575320000B
:102658000E20ED00FEFF3A00000000001620EF00FB
:102668002A2C200052FD0700CCCCB3001620EF0026
:102678002A2C200002FE0700ECCBB3001620EF0046
:102688002A2C2000FEFD0700575320000E20ED00E5
:10269800FEFF3A00000000001620EF002A2C200060
:1026A8005BFD07008082FB001620EF002A2C20002B
:1026B80057FD07000080FB004800DD0005004000D2
:1026C8000001780001E0AE00020037000420EF00AE
:1026D800000037004410DE0080017800EF00610040
:1026E800102720000008B800831F78008000EB0046
:1026F80040FA070002002400C36124007CF70700A9
:10270800CF017800000798001107980003007800AF
:102718008000EB0037FA07000E0190009E01900040
:10272800C1F80700C05B8800D15B88000200280060
:10273800833824006EF707000200200003F8230006
:10274800B9F807000005BE00A7FC0700A2992B00F6
:10275800533A24009AF90700405C8800515C8800CD
:102768004F067800CF0578004F0578000080FA0002
:042778000000060057
:101BB8000000FA00100020000B00DD000001780092
:101BC8008080EA008101780062004500108860008A
:101BD80062005500108861006DFC07006200550026
:101BE8001008710070FC07001A0061006000E10035
:101BF8000060EF00010032000060EC008080FB0014
:101C080063FC0700010078000080FA00000006006D
:001C1800CC
:100D9800A7A021000E20ED00FEFF3A000000000091
:080DA80000000000000006003D
:100DB000A74220000E20ED00FEFF3A0000000000D8
:080DC000000000000000060025
:101E88000000FA00100020000B00DD0000017800BF
:101E98008080EA000620EF006718E10012003E008B
:101EA8000C80FB000300DE000080FB006102600084
:101EB80062004500108860006200550010886000CC
:101EC8000800E200020032006200550010087100AC
:101ED800B5FB070062005500100871004EFA0700B4
:101EE8000620EC00ECFF370050FA07004FFA070015
:081EF8000080FA000000060062
:10082000D70020000E20ED00FEFF3A00000000007F
:0408300000000600BE
:10083400A72920000E20ED00FEFF3A000000000072
:080844000000000000000600A6
:101C18000000FA00100020000B00DD000001780031
:101C28008080EA000820EF000620EF006718E10036
:101C380012003E00620045001088600062005500F6
:101C480010886000F4FA070062005500100871005F
:101C5800F1FA07001A0061000400320010002000A9
:101C68000300DD000002720000003700EFFA0700F1
:101C7800EEFA07000620EC00ECFF3700044078007D
:081C88000080FA0000000600D4
:1019F0000C00FA008C1F78008A9FBE000420EF00C4
:101A00000620EF000A00BE00B6FA07000000E00062
:101A10000060EF0001003C000060EC004F05BE00DC
:101A20000040E200030032000020EF000220EF003F
:101A30005E0037000A0798001B0798008A9FBE00C7
:101A40000200200003F823000A00BE00A5FA0700E8
:101A50000000E0000060EF0001003D000060EC00CD
:101A60004F05BE000040E200090032008A9FBE0020
:101A70000E0190009E0190000000200001F823005C
:101A80009DFA07004F05BE00000798001107980057
:101A90006A0047008A9FBE00000678000E0590008D
:101AA0009E05900069FB07005E0190004191DE00F9
:101AB000020678000005BE002AFB07004F05BE00A5
:101AC00000079800110798008A9FBE0002002000BE
:101AD00003F823000A00BE0082FA07000000E000BD
:101AE0000060EF0001003D000060EC004F05BE000B
:101AF0000040E200090032008A9FBE000E01900003
:101B00009E0190000000200001F823007AFA0700EF
:101B10004F05BE0000079800110798004001200003
:101B2000400798008A9FBE000E0190009E01900021
:101B30000A00BE0070FA07000E0190009E0190009E
:101B4000BBFB070002002000030024006AFA070024
:101B500020079800310798000E0190009E01900028
:101B600060FA07000000E0000060EF0001003A00AA
:101B70000060EC004F05BE000040E20001003200B2
:101B8000080037002E009000BE009000000798006B
:101B9000110798004E0090000020ED0040079800CB
:101BA000E0FF3A000E0090009E0090004F06780083
:081BB0000080FA0000000600AD
:10084C000400FA000A0798001B0798009E0090000D
:10085C0000F8270080806000C708DE00E007200059
:10086C0000805000000E780001F023006200470069
:10087C009080680000F827008080600062004700CC
:10088C0090806800110798000E0090009E00900068
:08089C000080FA0000000600D4
:100764000400FA000A0798001B0798009E009000F6
:1007740000F82700008060004700DE00000046000B
:10078400000678006000E10003003D000020EF0057
:100794000220EF001F003700F00F20000060E1008E
:1007A400100034000420EF000620EF000A00BE0011
:1007B4004BFF07000000E0000060EF0001003D0077
:1007C4000060EC000040E20003003200F0FF2F0064
:1007D400F1F72F000F003700F0FF2F00F1F727008B
:1007E4000C00370070C0B3000000FB008060DD0027
:1007F400620047009080680000F827008080600055
:100804006200470090806800110798000E00900075
:0C0814009E0090000080FA00000006002A
:1004E4000000FA0014002000C4FF07000080FA0096
:0404F40000000600FE
:100400000000FA00020007006E0204000000000075
:10041000841F7800140007004F007800110033009B
:10042000F0FF2F00838F6C0006003B000405650081
:100430000A00A7000800370009F0A60010002000FD
:1004400008003700820F5400838F5C0003003900DE
:100450001000200001003E000000200009F0A7006D
:100460000000EA00000006000084BE00060007004D
:100470000083BE000485BE000280BE0002000700AB
:10048000844F750000000600C70ADE00F107B200C5
:10049000F50FB20008003200E1CF42000200320046
:1004A00002E0A80024000500810F70000100320066
:1004B0000408050044000500810F700002003A00A6
:1004C000140005008502E9000000400081C04800DA
:1004D000FCFF3B0002E0A800240005000080FA00B9
:0404E0000000060012
:1004F8000000FA0002000700AE030400000000003C
:10050800889FBE008A9FBE008C1F78003E000700AF
:100518004500330003866C006450E1002E00320071
:100528006420E100330032006150E1002F00320006
:100538006120E1003100320085855500EB07B000ED
:1005480009002000080420000500370008044400C2
:1005580089844C000A0031000603430087834B005E
:100568000001530081815B00F8FF33000283BE0065
:100578001000A8000804440089844C00F6FF3900E4
:10058800C639DD008301730001003200130020002A
:100598008904D1000884D3000998A300050032001B
:1005A8000800A7000600A8008904D1000884D30029
:1005B8008B05E8008904D1000884D3000001EB0012
:1005C8000281D2002800070001F0A1000CF0A7006A
:1005D80003E0A8001D0037006420E1001F0032007E
:1005E8000881BE000280BE00F7FF37006120E100ED
:1005F8001A0032006000B800F3FF37000000200046
:1006080001F82700F0FF37000084BE003C00070017
:100618000083BE000485BE000280BE0038000700CB
:10062800844F7500000006000280BE006450E1009F
:10063800050036006420E100020036000968A300C6
:1006480001003A000880BE0002C0A8004F067800EA
:100658004F05BE004F04BE0000000600F0FF2F004B
:10066800F1FF2700F9FF3700810020006180550065
:100678000B003D000B00200061FE2F000100E1008F
:100688001D00340082817100610164008904D10079
:100698000884D3000000E800FAFF3A007100200047
:1006A800610064000300700002006000090032006D
:1006B80061044400E0844C000988A500050032006C
:1006C8008B05E8006808E10002003A008904D100BF
:1006D8000884D300F20F20000258E10005003D0015
:1006E800C75DDD00F907B200898075000800880041
:1006F800000006000BF827001B008800000005001A
:10070800C70ADE00F107B200F50FB2000800320098
:10071800E1CF42000200320002E0A80024000500F8
:10072800810F700001003200040805004400050034
:10073800810F700002003A00140005008502E900EC
:100748000000400081C04800FCFF3B0002E0A80018
:0C075800240005000080FA0000000600EC
:100A30000000FA0002000700800604000000000029
:100A4000889FBE008A9FBE008C1F78005900070057
:100A5000600033006450E1004F0032006420E10088
:100A60005200320003826C0007003B000905D000F1
:100A70000306D000820F54000C065D00020039000E
:100A80000200320039008800C300880085825500CA
:100A900004003D000003FD008103FD008502EA0023
:100AA0008B854200840F720002003B006000100042
:100AB000E08018006011B8000005EB007A28E10022
:100AC0000A00390006008800C75DDD00F707B200A4
:100AD000878075002D003700828171002A00880010
:100AE000610560008180D1000080D3008502E900AB
:100AF000F9FF3B00060440008784480002003B00E9
:100B000060041400E0841C000988A3000700320080
:100B10008A81710082817100610164008904D100C1
:100B20000884D3008B05E800170037000978A3007C
:100B300013003A001600E200130034008B05E900B0
:100B40000804440089844C000A4474000978A30016
:100B50000D003A001600E200070034008B05E900A2
:100B60000804440089844C0001003A000B00200076
:100B70000978A300F7FF32000001EB000200370004
:100B8000828171002A008800220007000CF0A70073
:100B900003E0A800180037006420E10002003A00DA
:100BA000838F6C00180033000881BE000280BE00F5
:100BB000110037000084BE003C0007000083BE0027
:100BC0000485BE000280BE0038000700844F750017
:100BD000000006000280BE006450E10005003600FF
:100BE0006420E100020036000968A30001003A0019
:100BF0000880BE0002C0A8004F0678004F05BE0066
:100C00004F04BE0000000600F0FF2F00F1FF270098
:100C1000F9FF370081002000618055000B003D0086
:100C20000B00200061FE2F000100E1001D003400D8
:100C300082817100610164008904D1000884D300BD
:100C40000000E800FAFF3A00710020006100640033
:100C500003007000020060000900320061044400DB
:100C6000E0844C000988A500050032008B05E800EF
:100C70006808E10002003A008904D1000884D3002A
:100C8000F20F20000258E10005003D00C75DDD00C5
:100C9000F907B2008980750008008800000006008E
:100CA0000BF827001B00880000000500C70ADE00C3
:100CB000F107B200F50FB20008003200E1CF4200A8
:100CC0000200320002E0A80024000500810F70003D
:100CD000010032000408050044000500810F700087
:100CE00002003A00140005008502E90000004000FF
:100CF00081C04800FCFF3B0002E0A8002400050082
:080D00000080FA00000006006B
:100FFC000000FA0002000700B00804000000000026
:10100C000400E20006003A000005EB000200E200DA
:10101C000F003E000000E200270032000C003700F9
:10102C00A10088000200E2000400350008003C002A
:10103C000000E200200032000500370060001000C4
:10104C00E080180002003B0001F02C001A00370071
:10105C000084BE006011B8006B0920000982CF002B
:10106C00020039000882CF000441B00069425200EE
:10107C000E00320008003B008281710061016400A7
:10108C008904D1000884D3008B05E8000442E800F1
:10109C00F9FF3A00050037000804440089844C002D
:1010AC008B05E9000442E900FBFF3A00030007004E
:1010BC000AF0A70003E0A800000006008100200051
:1010CC00618055000B003D000B00200061FE2F00DD
:1010DC000100E1001D003400828171006101640097
:1010EC008904D1000884D3000000E800FAFF3A001C
:1010FC0071002000610064000300700002006000B9
:10110C000900320061044400E0844C000988A50009
:10111C00050032008B05E8006808E10002003A0087
:10112C008904D1000884D300F20F20000258E1009A
:10113C0005003D00C75DDD00F907B2008980750030
:10114C0008008800000006000BF827001B00880030
:0C115C00000005000080FA000000060002
:100DC8000000FA0002000700FA0704000000000013
:100DD800889FBE008A9FBE008C1F780030000700E5
:100DE8003700330003866C006450E10024003200B1
:100DF8006420E100270032006150E1002200320047
:100E08006120E100210032008B854200EB07B10030
:100E18000134B800003AB8000804420089844A0046
:100E2800013AB8000030B8008880400009014A0043
:100E3800040033000000400081804800020149009E
:100E48008B05E900C909DD0083017000010032004B
:100E580013002000C814DE004814DD004709DE0036
:100E68001200B200C808DE000884700024000700E1
:100E780001F0A1000CF0A70003E0A800190037005A
:100E88006120E1001B0032000881BE000280BE0024
:100E9800F7FF37006150E100FCFF3A00150037000A
:100EA8000084BE003C0007000083BE000485BE002D
:100EB8000280BE0038000700844F7500000006005D
:100EC8000280BE006450E100050036006420E100A5
:100ED800020036000968A30001003A000880BE003D
:100EE80002C0A8004F0678004F05BE004F04BE00A0
:100EF80000000600F0FF2F00F1FF2700F9FF370080
:100F080081002000618055000B003D000B0020008F
:100F180061FE2F000100E1001D0034008281710094
:100F2800610164008904D1000884D3000000E8004E
:100F3800FAFF3A00710020006100640003007000AD
:100F4800020060000900320061044400E0844C00A3
:100F58000988A500050032008B05E8006808E10053
:100F680002003A008904D1000884D300F20F20005F
:100F78000258E10005003D00C75DDD00F907B20039
:100F88008980750008008800000006000BF827001B
:100F98001B00880000000500C70ADE00F107B20048
:100FA800F50FB20008003200E1CF42000200320023
:100FB80002E0A80024000500810F70000100320043
:100FC8000408050044000500810F700002003A0083
:100FD800140005008502E9000000400081C04800B7
:100FE800FCFF3B0002E0A800240005000080FA0096
:040FF80000000600EF
:102378008A1F78008B1F78008C1F7800F1B420002A
:102388000020EF00804878000020EF000220EF00D6
:10239800205E8800315E88000020EF000220EF00F8
:1023A800005E8800115E88000020EF000220EF0028
:1023B800A05D8800B15D88000020EF000220EF00DA
:1023C800C05D8800D15D8800F0B42000104078001E
:1023D8006304E10022003D0098FB0700E05D8000F7
:1023E800F15D8000C05D8800D15D8800E05D8000FF
:1023F800F15D8000A25D8000B35D800085F9070073
:10240800020020000304240034F807000000E00064
:102418000060EF0001003C000060EC000040E200BA
:102428000A003200225E8000335E8000C05D8000BA
:10243800D15D80007CF90700205E8800315E88004D
:1024480011C0B300F0B4200010C84000C05D800087
:10245800D15D8000A05D8800B15D8800DAFF37009B
:102468000200200003042400205E8000315E80000A
:102478001FF80700005E8800115E880064000700EE
:1024880002002E00B34A2400005E8000115E800026
:1024980065F90700025C8000135C80005DF90700A5
:1024A800024022004397240011F80700805D88004D
:1024B800915D8800425C8000535C800040FA070010
:1024C800020020000300240009F807000200200091
:1024D800A34724003AFA0700205C8800315C880092
:1024E8006CB720000005BE0072FC0700E05B8800A6
:1024F800F15B88000200200003F0230023F90700A5
:102508000000E0000060EF00010035000060EC0012
:102518000040E200060032002A5C80003B5C80003C
:10252800C4FC0700205C8800315C88000500370087
:102538002A5C80003B5C8000F4FC0700205C88007B
:10254800315C8800205C8000315C8000D3F8070093
:102558004F067800CF0578004F0578000000060088
:0025680073
:101244000C00FA000020EF0000418800CA42A90007
:1012540005E1A9009460A9000621EF0094E0A8002C
:1012640011E1A8000020EF00E04088005081200038
:10127400104078006104E10001003200FBFF3700F8
:1012840050812000104078006104E1007C003A00A5
:1012940020AE2000801F7800E0152000801F780019
:1012A40020822000801F780096FE07006F00B100A6
:1012B4008040880040AE2000801F7800E0152000A8
:1012C400801F780020822000801F78009FFE070086
:1012D4006F00B100704088000181200011001000EF
:1012E4004101DE0001812000C080200011081100AE
:1012F4000020EF00F0568800F1568000E015200031
:101304000008E1005B003100F0568000C100DD0000
:10131400208220008101400013017800C180200058
:10132400208120001108510093007800C080200023
:101334001008E1000B003100F0568000C100DD0010
:101344002082200081004000604080001100500095
:101354004100DD0011014000C180200020812000F7
:1013640011085100400120000057880000578000F8
:101374006000E1000F00320000578000C200DD0071
:10138400E0AE200001014000005780000020ED0085
:10139400C200DD00E0AE20000100400030197800FA
:1013A400201178001100200000AE200010881000E9
:1013B400EEFF3700904080008000EB000EFF070036
:1013C40070578800815788000020EF000220EF004A
:1013D400B0408800C14088000020EF00005788001A
:1013E400005780007500E1001500310000578000AF
:1013F4004201DD00A0B7290082004000B10178005D
:1014040021027800E0AE2000020140001200BE007C
:1014140003017800840178006AFE0700B24080006E
:10142400C340800081FD0700B0408800C1408800AF
:101434001100200000AE200010884000E8FF3700B3
:10144400B0408000C140800015FD0700D0408800F6
:10145400F15680004109DD00218220008280400095
:101464008008780011002000E0AD200010884000C2
:10147400A1FF37005181200020C0B30080487800CC
:1014840050812000104078006204E10088003A0096
:10149400A0B52000801F7800E0152000801F780090
:1014A40020822000801F780016FE07006F00B10024
:1014B400E05A8800D05A8000A05A88000020EF002B
:1014C400B05A8800B05A8000C100DD00208220009C
:1014D4000100400090007800C0B520001008E10031
:1014E400040031001100200060B520001088400085
:1014F400F4FF3700A15A800060B52000108050002E
:10150400C100DE0060B5200090804000C15A880010
:1015140074805000F05A8800F4814000835B880096
:10152400C100DD002082200001004000100178008D
:10153400925B8800C118DD00208220000100400079
:101544001000780000079800A05B88000200780073
:10155400CF80DE000081EB00A7FE07004007980063
:1015640051079800605B8800715B8800E05A800036
:10157400CF80DE000081EB009FFE0700200798006B
:1015840031079800005B8800115B88000E00900012
:10159400CF80DE000081EB0097FE07000007980073
:1015A40011079800809FBE000E0090009E009000DE
:1015B400205B8800315B88004F00BE004E00900025
:1015C400DE009000829FBE000E0190009E019000FC
:1015D40011FD07004F01BE002E019000BE019000D6
:1015E4002007980031079800000020000100240023
:1015F400F4FD07000007980011079800605B800065
:10160400715B8000829FBE000E0190009E019000DD
:1016140001FD07004F01BE00225B8000335B8000A8
:1016240002FD07000200200003002400E5FD07007E
:1016340000079800110798002E009000BE0090004B
:10164400829FBE000E0190009E019000A9FB07003E
:101654004F01BE00405B8800515B880002002000FF
:10166400031A2400D7FD070002002000030A240007
:10167400D4FD0700805A8800915A8800C05A80001F
:101684008000EB005CFE070002002000030A240037
:10169400CCFD0700505A8800615A8800825A8000A5
:1016A400935A8000E1FC0700E05D8800F15D88004A
:0816B4000080FA0000000600AE
:100D08000000FA002EB997003EB89700CEB89700B9
:100D1800B10278000009EB000002E9000700340086
:100D2800B10178000328E10002003C00530088006C
:100D3800040950000402E900F9FF3C00050088009E
:080D48000080FA000000060023
:100D50000000FA002EB997003EB89700CEB8970071
:100D6000B10278000009EB000002E900070034003E
:100D7000B10178000328E10002003500530088002B
:100D8000040950000402E900F9FF3C000500880056
:080D90000080FA0000000600DB
:100A1C000000FA0007E0AA00020007000080FA00BC
:040A2C0000000600C0
:1008A4000000FA0002000700C60404000000000073
:1008B4000081BE001F0007000470A70003F0A10020
:1008C4006509B100160032000D0035006828E1000A
:1008D40006003500F0FF2F00F1FF27000600E200BC
:1008E40013003B0001002800000005000000400048
:1008F400818048008502E900FCFF3A0008003700C7
:10090400F88F420002003C008000EB00000005006C
:100914008100D1000080D3008502E800FCFF3A008A
:100924000600E20002003B0060001000E0801800B6
:1009340000000600C70ADE00F107B200F50FB2009E
:1009440008003200E1CF42000200320002E0A800B9
:1009540024000500810F7000010032000408050026
:1009640044000500810F700002003A0014000500E5
:100974008502E9000000400081C04800FCFF3B0004
:1009840002E0A800240005000080FA000000060030
:0009940063
:1016BC000000FA008C1F78008A9FBE000420EF0007
:1016CC000620EF000A00BE00AFFC07000000E0009F
:1016DC000060EF00010035000060EC004F05BE001B
:1016EC004F0678000040E200100032008C1F78009A
:1016FC008A9FBE000200200003F823000A00BE00EF
:10170C0075FB07000000E0000060EF0001003D00E9
:10171C000060EC004F05BE004F0678000040E20070
:10172C000200320010C0B300010037000020EF00AF
:10173C000080FB000000E2001E003A008C1F7800C5
:10174C008A9FBE000200200003F82B000A00BE0096
:10175C008DFC07000000E0000060EF000100340089
:10176C000060EC004F05BE004F0678000040E20020
:10177C000F0032008C1F78008A9FBE000420EF00FF
:10178C000620EF000A00BE0053FB07000000E0003B
:10179C000060EF0001003C000060EC004F05BE0053
:1017AC004F0678000040E2000100320001003700D3
:1017BC00050037000020EF000220EF00008EBE0075
:1017CC000A00BE0018003700C758DE000001EB000D
:1017DC00F00F200080806000F00720000080500097
:1017EC007800E100040036000A8EBE000020EF00F5
:1017FC000220EF000C0037008C1F78008A9FBE007F
:10180C000A00BE0024FC07000081EB00F8FD070075
:10181C004F05BE004F067800008EBE001C01BE00B6
:10182C000A00BE007AFC07000080FA0000000600E7
:00183C00AC
:100994000000FA00F4FF2F0098FE07000080FA0020
:0409A4000000060049
:10183C000000FA00C758DE000001EB00F00F20009A
:10184C0080806000F007200000805000800078004D
:10185C006000E10010003D000420EF000620EF00C6
:10186C000A00BE001CFB07000000E0000060EF0057
:10187C0001003C000060EC000040E200030032007C
:10188C000020EF000220EF001D00370000002000B8
:10189C0001F823001A0037007808E1000200360036
:1018AC000A00BE00160037008A9FBE000A00BE0068
:1018BC00F9FB07000081EB00CDFD07004F05BE00D2
:1018CC000001BE00829FBE000A01BE0002FB0700A1
:1018DC000000E0000060EF0001003D000060EC0043
:1018EC004F01BE000040E200040032000000200066
:1018FC0001F823004BFC0700010037000200BE007A
:08190C000080FA000000060053
:101914000000FA00C758DE000001EB00F00F2000C1
:1019240080806000F0072000008050008000780074
:101934006000E10010003D000420EF000620EF00ED
:101944000A00BE00E6FA07000000E0000060EF00B5
:1019540001003D000060EC000040E20003003200A2
:101964000000200001F82B001E0037000020EF00CB
:101974000220EF001B0037007808E1000200360067
:101984000A00BE00170037008A9FBE000A00BE008E
:10199400C3FB07000081EB0097FD07004F05BE0065
:1019A4000002BE00849FBE000A01BE00F8FB0700CF
:1019B4000000E0000060EF00010034000060EC0073
:1019C4004F02BE000040E200050032000200200089
:1019D40003F823000400BE000FFC070001003700D9
:0C19E4000400BE000080FA0000000600B5
:1020D8000020EF00104088000020EF0040408800FA
:1020E8000020EF0050408800018020000020EF0011
:1020F80080487800418120000020EF008048780067
:10210800118020000020EF008048780041802000E6
:102118000020EF0080487800518020000020EF0068
:10212800804878001A0078001040880061802000FC
:102138000020EF0080487800608020001040780080
:102148006A04E10041003100608020001080FB003B
:102158004100DD000000450090007800208020004C
:102168001008E10004003A0011C0B30010802000FC
:1021780010C840003100370000802000104078006F
:102188006004E10009003A00608020001080FB0034
:102198004100DD0000004500100078004040880044
:1021A8000180200010C0B3008048780060802000C3
:1021B8001080FB004100DD00000045009000780021
:1021C800808020001008E10004003A0011C0B3002C
:1021D8004080200010C840001800370040812000CF
:1021E800104078006004E10009003A006080200097
:1021F8001080FB004100DD00000045001000780061
:10220800504088004181200010C0B3008048780009
:10221800608020001080FB004100DD0000004500C8
:1022280090007800A08020001008E10003003A0028
:1022380011C0B3005080200010C8400011C0B30086
:102248006080200010C84000BBFF370010802000CD
:102258009040780040802000100CE1000700360014
:10226800108020009040780050802000100CE10081
:1022780002003600104080002D003700408020000A
:102288009040780010802000100CE1000700360014
:10229800408020009040780050802000100CE10021
:1022A80002003600404080002100370050802000A6
:1022B8009040780010802000100CE10007003600E4
:1022C800508020009040780040802000100CE100F1
:1022D80002003600504080001500370010802000B2
:1022E8009040780040802000100CE10002003A0085
:1022F800104080000E0037001080200090407800C9
:1023080050802000100CE10002003A0010408000CC
:10231800070037004080200090407800508020005F
:10232800100CE10002003A00404080000000370035
:04233800000006009B
:101F1C000600FA0000002000200798008C9FBE00ED
:101F2C008A9FBE000C00BE000420EF000620EF00CC
:101F3C0069F907000000E0000060EF0001003A00C2
:101F4C000060EC004F05BE004F06BE000040E200F2
:101F5C00030032000000200001F823005900370074
:101F6C008C9FBE008A9FBE000A00BE000420EF00BA
:101F7C000620EF0058F907000000E0000060EF00B9
:101F8C0001003A000060EC004F05BE004F06BE0099
:101F9C000040E200030032000020EF000220EF00BE
:101FAC00480037008C9FBE008A9FBE000420EF00C3
:101FBC000620EF000A00BE0047F907000000E00011
:101FCC000060EF0001003D000060EC004F05BE001A
:101FDC004F06BE000040E200210032008C9FBE0084
:101FEC008A9FBE000C00BE002BFA07000007980069
:101FFC00110798000081EB00FDFB07004F05BE00A8
:10200C004F06BE008C9FBE008A9FBE000C01BE0016
:10201C0031F907000000E0000060EF000100320021
:10202C000060EC004F05BE004F06BE000040E20011
:10203C00030032000020EF000220EF0021003700E7
:10204C008E00900064004700618860000000200052
:10205C000100280000006D0081806D000005BE00AD
:10206C008C9FBE008A9FBE003CFC07004F05BE0043
:10207C004F06BE000005BE008A9FBE000C01BE00CC
:10208C004EFB07004F05BE000005BE008A9FBE0038
:10209C000005BE00FBFE07004F05BE000005BE009C
:1020AC00640047001000E000050032000000200032
:1020BC000100280000006D0081806D0001003700D8
:0C20CC000A00BE000080FA0000000600C0
:101168000200FA008C1F78008D1F78008A9FBE004D
:101178000420EF000620EF000A00BE00D7FC07009D
:101188000000E0000060EF0001003C000060EC009F
:101198004F05BE000040E200030032000020EF00CF
:1011A8000220EF00210037006000470000067800A9
:1011B800A4FD07008A9FBE0002002000030024004F
:1011C800FFFE07000200200003F8230011FE0700BD
:1011D8004F05BE000005BE00130020006001470057
:1011E800128911008A9FBE008D0020006CBF290063
:1011F8000005BE00EAFD07004F05BE000005BE0061
:101208008A9FBE000E009000CF80DE000081EB00B8
:1012180078FF07008221270013F32300E8FE070068
:101228004F05BE000A01BE00FFFD0700CF0678008B
:0C1238004F0678000080FA00000006005D
:1009A8000000FA004268DD00000146001200BE00A7
:1009B8000001BE001A00E200130032008C9FBE0046
:1009C8008A9FBE000200BE000A01BE00FC000700AC
:1009D8004F05BE004F06BE006181560082067800B2
:1009E8004269DD00020246001401BE008C9FBE0071
:1009F8008A9FBE000C0007004F05BE004F06BE00D0
:100A08000001BE00EBFF37000200BE000080FA00C4
:040A180000000600D4
:101C90000400FA008C1F78008D1F78008A9FBE0018
:101CA0000A00BE000420EF000620EF000DFA070036
:101CB0000000E0000060EF0001003A000060EC006E
:101CC0004F05BE000040E20003003200000020008B
:101CD00001F82300680037008A9FBE00E24F2D0004
:101CE000232B24000A00BE002AFB07000000E000AE
:101CF0000060EF00010034000060EC004F05BE0002
:101D00000040E20003003200F0FF2F00F1F727004F
:101D1000590037008A9FBE0002C52A00E32A2C0022
:101D20000A00BE00EFF907000000E0000060EF00CD
:101D300001003D000060EC004F05BE000040E200E5
:101D4000030032000020EF000220EF004A003700BD
:101D50008A9FBE000420EF000620EF000A00BE00AC
:101D6000E0F907000000E0000060EF0001003D0026
:101D70000060EC004F05BE00204798000040E200E4
:101D800005003200000020000100280000006D0066
:101D900081806D000005BE008A9FBE000A00BE0063
:101DA000B2A32A0083FB230007FC07004F05BE00F7
:101DB0000005BE008A9FBE000005BE00D5FE0700DC
:101DC000B8FA070000079800CF80DE000081EB0022
:101DD0008AFC07004F05BE008A9FBE000001BE00BE
:101DE0000A00BE000DFB07004F05BE000005BE0047
:101DF0008A9FBE009D002000ECBC29000005BE00AB
:101E0000E9FA07000E0690000005BE0055FA07002B
:101E10004F05BE000005BE00620047001004E00050
:101E2000140032008A9FBE000A00BE00F2FF2F009D
:101E3000F3F72700ABF907000000E0000060EF00B7
:101E400001003A000060EC004F05BE000040E200D7
:101E5000030032000020EF000220EF0006003700F0
:101E60000A01BE000000200001F82300A2F90700CB
:101E7000010037000A00BE00CF0678004F06780048
:081E80000080FA0000000600DA
:102E74009700370051BE200040C0B300804878005E
:102E840050BE2000104078006304E1000D003900BA
:102E940050BE20009080FB00F0BD20008100400067
:102EA400705E80009048780011002000E0BC200093
:102EB4001088400011C0B30050BE200010C810009C
:102EC400EFFF370011BE2000E0B8200090487800E2
:102ED4008C00370051BE200040C0B3008048780009
:102EE40050BE2000104078006304E1000D0039005A
:102EF40050BE20009080FB00F0BD20008100400007
:102F0400605E80009048780011002000C0BC200062
:102F14001088400011C0B30050BE200010C810003B
:102F2400EFFF370011BE2000E0B820009048780081
:102F34007400370051BE200040C0B30080487800C0
:102F440050BE2000104078006304E1000D003900F9
:102F540050BE20009080FB00F0BD200081004000A6
:102F6400305F8000904878001100200060BE20008F
:102F74001088400011C0B30050BE200010C81000DB
:102F8400EFFF370011BE2000E0B820009048780021
:102F94005C00370051BE200040C0B3008048780078
:102FA40050BE2000104078006304E1000D00390099
:102FB40050BE20009080FB00F0BD20008100400046
:102FC400705D80009048780011002000E0BA200075
:102FD4001088400011C0B30050BE200010C810007B
:102FE400EFFF37004700370051BE200040C0B30058
:102FF4008048780050BE2000104078006304E1004F
:103004000D00390050BE20009080FB00F0BD200070
:1030140081004000E05E80009048780011002000AC
:10302400C0BD20001088400011C0B30050BE200075
:1030340010C81000EFFF370011BE2000E0B82000D8
:10304400904878002F00370051BE200040C0B300E4
:103054008048780050BE2000104078006304E100EE
:103064000D00390050BE20009080FB00F0BD200010
:1030740081004000405F80009048780011002000EB
:1030840080BE20001088400011C0B30050BE200054
:1030940010C81000EFFF370011BE2000E0B8200078
:1030A400904878001700370021BE20000020EF0070
:1030B4008048780031BE200020CEB30080487800DC
:1030C40011BE2000E0CEB300804878000D00370028
:1030D4006150E10067FF32006250E1007DFF320081
:1030E4006350E10093FF32006450E100A9FF320015
:1030F4006550E100BCFF32006650E100D2FF3200AF
:10310400E9FF3700CAA2A80051BE20000020EF004A
:103114008048780050BE2000104078006604E1002A
:103124000C00310050BE20009080FB00F0BD200058
:10313400010040008A1F78001085FB006FFB070028
:103144004F05780011C0B30050BE200010C84000E5
:10315400F0FF370078FC07006000E10001003A004E
:10316400FCFF3700CAA2A900E1BD200030C0B300B3
:1031740080487800E0BD2000104078006504E1003C
:103184000A003100E0BD20009080FB00F0BD20006B
:10319400810040000020EF008048780011C0B30097
:1031A400E0BD200010C84000F2FF37000000060018
:0031B4001B
:101F00000000FA002302AF0001003700FDFF370098
:0C1F10002A1188000080FA000000060082
:10233C000000FA000020EF002302AF000020EC00A8
:08234C000080FA000000060009
:10386C000180200030C32900B0587800218020004E
:10387C0000C3290000000900B01878001180200056
:10388C0040C32900B058780041802000C0C22900F4
:10389C0000000900B0187800B05878008180200032
:1038AC00A0C1290005000900B01878007180200023
:1038BC0020C32900B058780041812000F0C22900B3
:1038CC00B05878006181200060C229000200090014
:0838DC00B0187800000006009E
:1035B4003400F8003600F800801F78002000200056
:1035C4000C000900B01F780027FD07006100E1002E
:1035D40003003A001EFD0700B1AE200080487800C9
:1035E400B0AE200090407800A0C3B300000CE1000E
:1035F4000D003A00A0AE2000104078006004E10005
:1036040009003A00E1B4200010C0B30080487800FB
:10361400A0AE20009080FB00C0B8200081004000D4
:10362400B0AE200090487800B0AE20009040780002
:10363400A0C3B300000CE10007003200A0AE2000DC
:10364400104078006004E10003003A00A1AE2000BD
:10365400F0CFB30080487800E0B420001040780038
:103664006104E1000A003A00A0AE20001040780096
:103674006004E10006003200A0AE20009080FB0050
:10368400C0B8200081004000B0AE2000904878000F
:1036940011C0B300A0AE200010C84000A0AE2000AE
:1036A400104078006604E10009003A00F18120002E
:1036B40010C0B30080487800E1B420000020EF007F
:1036C40080487800A1AE20000020EF0080487800F8
:1036D4008560A900A00120000C0009004F107800AB
:1036E4004F0078003600F9003400F900004006006D
:0036F400D6
:102A6C000000FA002282BF00610060000080FA00C2
:042A7C000000060050
:102A54000000FA0000000000000000002682BF0011
:082A64000080FA0000000600EA
:103248003400F8003600F800801F780020002000C5
:103258000C000900B01F7800004180006A00E100FE
:1032680002003100CA42AA000E003700CA42A90073
:10327800E1062000008220001008E10009003A0061
:1032880094E0A90011E1A9009460A8000021EF00D2
:103298008460A90005E1A800518120000020EF000A
:1032A800804878001100200000822000108840002B
:1032B80084E0A900A00120000C0009004F1078004C
:1032C8004F0078003600F9003400F900004006008D
:0032D800F6
:1031B4003400F8003600F800801F7800200020005A
:1031C4000C000900B01F78002023A9002003AF00E1
:1031D40001003700FDFF3700E1408000E0152000CA
:1031E4000008E1000A003100E0408000C100DD0079
:1031F40020822000810040000083BF008008780006
:1032040011002000C0812000108840000500370014
:103214005181200010C0B3008048780005E1A90066
:103224009460A9008460A900A00120000C0009009A
:103234004F1078004F0078003600F9003400F90090
:043244000040060040
:1036F400000000000000000047E30000623A000000
:103704006D200000753B00002B320000103C0000CF
:10371400A9E90000813C000024870000C73C0000A8
:1037240050F40000083D0000824500002C3D0000DC
:10373400A25F0000493D0000608600005C3D00007F
:1037440083340000633D0000608600005C3D00009F
:10375400A25F0000493D0000824500002C3D0000AE
:1037640050F40000083D000024870000C73C00001E
:10377400A9E90000813C00002B320000103C00004D
:103784006D200000753B000047E30000623A000032
:0837940000000000000000002D
:10379C0000000000803F000018720000313F000064
:1037AC00F0FD0000753E000047580000633D00002E
:1037BC00589500001D3C000082C40000AE3A000089
:1037CC00A878000021390000EF930000803700003A
:1037DC00A0920000A73500004656000015340000EA
:1037EC00FFE60000DB2E0000C4FF00007F3F00005E
:1037FC0080EF0000FFBE000090E10000A93E000039
:10380C00EC82000076BE000082AD00002B3E000072
:10381C000E3C0000C3BD000087D10000133D00002A
:08382C0041780000D3BB00004D
:043834000000000090
:04383800000000008C
:04383C000000000088
:043840000000000084
:043844000000000080
:04384800000000007C
:08384C00000000000000000074
:043854000000000070
:04385800000000006C
:04385C000000000068
:043860000000000064
:043864000000000060
:04386800000000005C
:0200000401F009
:200000000F000000FFFF00000700000083000000A50000005F000000F7000000C30000008B
:00000001FF
