:040000003EEF01F0DE
:1000080000C016F001C015F0E1CF17F0E2CF18F0EC
:100018009EAA3BD0829AE6D800C033F000503A0A34
:1000280011E13850000A0EE1010E326E240EE16E25
:10003800000EE26E3850E126000E38BEFF0EE222B6
:1000480033C0E6FF33503A0A05E03850000A02E1AF
:10005800FF0E386E3250010A0FE13850000A0CE0EA
:10006800240EE16E000EE26E3850E126000E38BE16
:10007800FF0EE22233C0E6FF382A3850060A04E1B0
:10008800010E236E326A386A9E9AA4AA3BD0819ADE
:10009800A0D800C035F000503A0A11E12150000AFA
:1000A8000EE1010E346E390EE16E000EE26E215043
:1000B800E126000E21BEFF0EE22235C0E6FF3550D4
:1000C8003A0A05E02150000A02E1FF0E216E345081
:1000D800010A0FE12150000A0CE0390EE16E000E12
:1000E800E26E2150E126000E21BEFF0EE22235C04D
:1000F800E6FF212A2150060A04E1010E376E346A10
:10010800216AA49A16C000F015C001F017C0E1FFDB
:0601180018C0E2FF110017
:10011E006E0E196E020E1A6E3F0E1B6E000E1C6EC8
:10012E00EC0E1D6E010E1E6E000E1F6E000E206E6A
:10013E00FF0E2A6EFF0E2B6E000E2C6E000E2D6E15
:10014E00FE0E2E6E010E2F6E000E306E000E316EF4
:10015E00AC8A900EAB6E948E949C9EAA03D0AECFBA
:06016E0000F0FBD71200B7
:10017400620E196E020E1A6E3F0E1B6E000E1C6E7E
:10018400DA0E1D6E010E1E6E000E1F6E000E206E26
:10019400FF0E2A6EFF0E2B6E000E2C6E000E2D6EBF
:1001A400580E2E6E020E2F6E000E306E000E316E43
:1001B400728A900E716E938E939CA4AA03D074CF0E
:0601C40000F0FBD7120061
:1001CA000900F5CFE6FF0006FBE10106F9E112009E
:1001DA0074CF01F071A202D07198718801C000F049
:0201EA00120001
:1001EC00AECF01F0ABA202D0AB98AB8801C000F04F
:0201FC001200EF
:0A01FE00000EACB2010E006E1200FC
:100208000F01396B3A6B939A949AF28EF28C9D8A0D
:100218009E9AA38AA49AB886020EB06E080EAF6E94
:10022800AC8479DF7086020E766E080E756E728465
:100238009DDF030E0B6E8A0E0C6E550E0D6E0D2E85
:10024800FED70C2EFCD70B2EFAD7000000001200A8
:0A025800000E72B2010E006E1200DB
:0C02620072B201D0FDD73FC073FF120044
:0E026E00ACB202D00000FCD73FC0ADFF1200C2
:10027C00C5DF829A819A216A386A3750010A51E1A6
:10028C0039503A0A38E13E500D0A35E1828A366A15
:10029C00800E3618006E800E060A005C0FE2390ED6
:1002AC00E96E000EEA6E3650E926000E36BEFF0EE1
:1002BC00EA22EECF3FF0D5DF362AEAD79ADF00509C
:1002CC00000A01E1FBD7829A366A800E3618006E5E
:1002DC00800E060A005C0DE2390EE16E000EE26E35
:1002EC003650E126000E36BEFF0EE222E66A362AB2
:1002FC00ECD7376A16D0366A800E3618006E800E30
:10030C00050A005C0DE2390EE16E000EE26E36500D
:10031C00E126000E36BEFF0EE222E66A362AECD744
:10032C00376A2350010A51E124503A0A38E1295026
:10033C000D0A35E1818A226A800E2218006E800E29
:10034C00060A005C0FE2240EE96E000EEA6E2250E3
:10035C00E926000E22BEFF0EEA22EECF3FF07BDF35
:10036C00222AEAD773DF0050000A01E1FBD7819AF9
:10037C00226A800E2218006E800E060A005C0DE2C6
:10038C00240EE16E000EE26E2250E126000E22BE1B
:10039C00FF0EE222E66A222AECD7236A16D0226AE2
:1003AC00800E2218006E800E050A005C0DE2240EF1
:1003BC00E16E000EE26E2250E126000E22BEFF0E10
:0E03CC00E222E66A222AECD7236A57D7FFD72F
:020000040030CA
:0D000100231F3CFFBF81FF0FC00FE00F4029
:00000001FF
