:040000003EEF01F0DE
:1000080000C016F001C015F0E1CF17F0E2CF18F0EC
:100018009EAA3BD0829AE6D800C033F00050EE0A80
:1000280011E12150000A0EE1010E326E390EE16E27
:10003800000EE26E2150E126000E21BEFF0EE222E4
:1000480033C0E6FF3350EE0A05E02150000A02E112
:10005800FF0E216E3250010A0FE12150000A0CE018
:10006800390EE16E000EE26E2150E126000E21BE2F
:10007800FF0EE22233C0E6FF212A2150040A04E1E0
:10008800010E376E326A216A9E9AA4AA3BD0819AE1
:10009800A0D800C035F00050EE0A11E13850000A2F
:1000A8000EE1010E346E240EE16E000EE26E385041
:1000B800E126000E38BEFF0EE22235C0E6FF3550BD
:1000C800EE0A05E03850000A02E1FF0E386E34509F
:1000D800010A0FE13850000A0CE0240EE16E000E10
:1000E800E26E3850E126000E38BEFF0EE22235C01F
:1000F800E6FF382A3850060A04E1010E236E346AF6
:10010800386AA49A16C000F015C001F017C0E1FFC4
:0601180018C0E2FF110017
:10011E00620E196E020E1A6E3D0E1B6E000E1C6ED6
:10012E00EC0E1D6E010E1E6E000E1F6E000E206E6A
:10013E00FF0E2A6EFF0E2B6E000E2C6E000E2D6E15
:10014E00580E2E6E020E2F6E000E306E000E316E99
:10015E00AC8A900EAB6E948E949C9EAA03D0AECFBA
:06016E0000F0FBD71200B7
:10017400700E196E020E1A6E3D0E1B6E000E1C6E72
:10018400DA0E1D6E010E1E6E000E1F6E000E206E26
:10019400FF0E2A6EFF0E2B6E000E2C6E000E2D6EBF
:1001A400FE0E2E6E010E2F6E000E306E000E316E9E
:1001B400728A900E716E938E939CA4AA03D074CF0E
:0601C40000F0FBD7120061
:1001CA000900F5CFE6FF0006FBE10106F9E112009E
:1001DA0074CF01F071A202D07198718801C000F049
:0201EA00120001
:1001EC00AECF01F0ABA202D0AB98AB8801C000F04F
:0201FC001200EF
:0A01FE00000E72B2010E006E120036
:100208000F01396B3A6B939A949AF28EF28C9D8A0D
:100218009E9AA38AA49AB886020EB06E080EAF6E94
:10022800AC8479DF7086020E766E080E756E728465
:100238009DDF030E0B6E8A0E0C6E550E0D6E0D2E85
:10024800FED70C2EFCD70B2EFAD7000000001200A8
:0A025800000EACB2010E006E1200A1
:0E026200ACB202D00000FCD73DC0ADFF1200D0
:0C02700072B201D0FDD73DC073FF120038
:10027C00C5DF829A819A216A386A3750010A57E1A0
:10028C003950EE0A3EE13C50FF0A3BE13A50010A7C
:10029C0037E13B50070A34E1818A366A800E361802
:1002AC00006E800E040A005C0FE2390EE96E000E3F
:1002BC00EA6E3650E926000E36BEFF0EEA22EECF6D
:1002CC003DF0D0DF362AEAD794DF0050000A01E176
:1002DC00FBD7819A366A800E3618006E800E040A9F
:1002EC00005C0DE2390EE16E000EE26E3650E12636
:1002FC00000E36BEFF0EE222E66A362AECD7376ACB
:10030C0016D0366A800E3618006E800E030A005C1A
:10031C000DE2390EE16E000EE26E3650E126000E53
:10032C0036BEFF0EE222E66A362AECD7376A235035
:10033C00010A57E12450EE0A3EE12950FF0A3BE145
:10034C002550010A37E12650070A34E1828A226AD5
:10035C00800E2218006E800E060A005C0FE2240E3E
:10036C00E96E000EEA6E2250E926000E22BEFF0E48
:10037C00EA22EECF3DF06FDF222AEAD767DF00508A
:10038C00000A01E1FBD7829A226A800E2218006EC5
:10039C00800E060A005C0DE2240EE16E000EE26E89
:1003AC002250E126000E22BEFF0EE222E66A222A2D
:1003BC00ECD7236A16D0226A800E2218006E800EAB
:1003CC00050A005C0DE2240EE16E000EE26E225076
:1003DC00E126000E22BEFF0EE222E66A222AECD7AC
:0603EC00236A4BD7FFD786
:020000040030CA
:0D000100231F3CFFBF81FF0FC00FE00F4029
:00000001FF
