:040000002EEF02F0ED
:1000080000C016F001C015F09EAA05D06AD900C03C
:1000180024F0010E4E6E16C000F015C001F011005C
:06002800000000001200C0
:10002E000F0E0C6E470E0D6E0D2EFED70C2EFCD73E
:06003E00000000001200AA
:0A004400210E0D6E0D2EFED71200E6
:10004E00086A096A100E0C6E01340836093604501F
:10005E00085E0550D8A0053C095ED8B007D0045004
:10006E0008260550D8B0053C0926D8900036013632
:06007E000C2EEAD712006F
:10008400000160BF02D0819001D0818060BD02D0A8
:10009400819201D0818260BB02D0819401D081849D
:1000A40060B902D0819601D081863CB002D0818AA9
:1000B40001D0819A8188B6DF819860B702D081909F
:1000C40001D0818060B502D0819201D0818260B379
:1000D40002D0819401D0818460B102D0819601D094
:1000E40081863CB002D0818A01D0819A81889ADFCE
:0E00F40081983CA002D099DF01D0A2DF12005B
:0C0102003C9059C060F0BDDF3C80120052
:10010E005D6A050E5D5C0AE25D505B24E16E000ED9
:10011E005C20E26E200EE66E5D2AF3D75D505B2406
:10012E00E16E000E5C20E26EE66A5D065D505B24B9
:10013E005E6E000E5C205F6E0A0E046E000E056E83
:10014E0059C000F05AC001F07BDF08C000F009C0B2
:10015E0001F0300E00265EC0E1FF5FC0E2FF00C07E
:10016E00E6FF0A0E046E000E056E59C000F05AC06E
:10017E0001F066DF00C059F001C05AF0000E011800
:10018E0002E1000E001801E102D05D06CFD7120089
:10019E009398939A93969394939293908198819A2D
:1001AE0081908192819481963BDF3ADF39DF8184A1
:1001BE008186818832DF819833DF81882EDF8198B6
:1001CE002FDF81882ADF81982BDF8196818825DFBA
:1001DE00819826DF818821DF8198819481808188B2
:1001EE001CDF81981DDF81908186818816DF8198C2
:1001FE008196818812DF819813DF81880EDF8198C6
:10020E00818681880ADF81980BDF8196818805DFE0
:10021E00819881808182818481868188FEDE8198A9
:06022E00FFDE3C8012001F
:10023400FC0E346E020E356E4F0E366E000E376EA7
:10024400EA0E386E020E396E000E3A6E000E3B6EE8
:10025400FF0E2E6EFF0E2F6E000E306E000E316EEE
:10026400FF0E2A6EFF0E2B6E000E2C6E000E2D6EEE
:10027400AC8A900EAB6E948E949C9EAA03D0AECFA3
:0602840000F0FBD71200A0
:10028A000F01386B396B3A6B949A92809292F28E84
:10029A00F28CF2909D8A9E9AB886B06ACF0EAF6EA3
:1002AA00AC84C3DF020E0B6E040E0C6EBA0E0D6E1A
:1002BA000D2EFED70C2EFCD70B2EFAD700006ADFC4
:1002CA00010E0001606FD9DE0C0E606FD6DE1200DF
:1002DA000900F5CFE6FF0006FBE10106F9E112008D
:1002EA00AECF01F0ABA202D0AB98AB8801C000F050
:0202FA001200F0
:0E02FC00ACB202D00000FCD74FC0ADFF120024
:10030A000FD0800E4F6E19D0C00E4F6E16D0940EBD
:10031A004F6E13D0D40E4F6E10D0800E4F6E0DD08C
:10032A004F50010AEEE04F50020AEEE04F50030A26
:10033A00EEE04F50040AEEE0F0D75004006E4F5042
:10034A00002600C04FF000C060F097DE3C90536A70
:10035A0053505124E96E000E5220EA6EEE520BE021
:10036A0053505124E96E000E5220EA6EEECF59F036
:0A037A00C3DE532AEDD73C801200C9
:10038400556A566A4FC057F050C058F0800E501846
:10039400006E800E005C02E1000E4F5C0BE2010E69
:1003A400556E000E566E4F500008576E50C058F0F0
:1003B400000E585657C059F058C05AF051C05BF05F
:1003C40052C05CF0A2DE060E536E000E546E000E98
:1003D400006E5450005C02E15350000819E253507F
:1003E4005124E16E54505220E26E010E535C006EB3
:1003F400000E5458016E00505124E96E01505220F1
:10040400EA6EEECFE6FF010E535E000E545ADFD7BC
:1004140051C0E1FF52C0E2FF200EE66E5550561067
:100424001AE0536A546A53505124E96E54505220CE
:10043400EA6EEE50200A03E1534A542AF4D7010E1F
:10044400535E000E545A53505124E16E54505220BE
:08045400E26E2D0EE66E1200AF
:10045C00440E176E690E186E730E196E740E1A6EAA
:10046C00610E1B6E6E0E1C6E630E1D6E690E1E6E83
:10047C00610E1F6E3A0E206E216A01DF220E326E63
:10048C00000E336EEE0E266E010E276E070E286ED2
:10049C00FF0E296E256A226A236A80A01CD0255083
:1004AC00000A19E1010E256E4D6A800E4D18006E82
:1004BC00800E040A005C0FE2260EE96E000EEA6E56
:1004CC004D50E926000E4DBEFF0EEA22EECF4FF046
:1004DC000FDF4D2AEAD74E50010A03E1224A232AA4
:1004EC004E6A22C04FF023C050F03D0E516E000EEC
:1004FC00526E42DF010E4F6E010E506E170E516E92
:10050C00000E526EFCDE020E4F6E010E506E3D0E52
:10051C00516E000E526EF3DE340E0C6EF10E0D6E3B
:10052C000D2EFED70C2EFCD700000000256AB5D787
:02053C00FFD7E7
:020000040030CA
:0D000100231F3CFFBF81FF0FC00FE00F4029
:00000001FF
