:040000003FEF01F0DD
:1000080000C016F001C015F0E1CF17F0E2CF18F0EC
:100018009EAA3CD08288E8D800C03DF000503A0A39
:1000280011E12A50000A0EE1010E3C6E1E0EE16E2F
:10003800000EE26E2A50E126000E2ABEFF0EE222D2
:100048003DC0E6FF3D503A0A05E02A50000A02E1A9
:10005800FF0E2A6E3C50010A0FE12A50000A0CE0FC
:100068001E0EE16E000EE26E2A50E126000E2ABE38
:10007800FF0EE2223DC0E6FF2A2A2A50060A04E1C2
:10008800010E196E3C6A2A6A82989E9AA4AA3CD0EC
:100098008188A1D800C035F000503A0A11E12C50EF
:1000A800000A0EE1010E3E6E360EE16E000EE26EA3
:1000B8002C50E126000E2CBEFF0EE22235C0E6FFD2
:1000C80035503A0A05E02C50000A02E1FF0E2C6E6A
:1000D8003E50010A0FE12C50000A0CE0360EE16E8A
:1000E800000EE26E2C50E126000E2CBEFF0EE2221E
:1000F80035C0E6FF2C2A2C50060A04E1010E246EB6
:100108003E6A2C6A8198A49A16C000F015C001F0C6
:0A01180017C0E1FF18C0E2FF11005C
:10012200640E316E020E326E3F0E336E000E346E6E
:10013200F00E2D6E010E2E6E000E2F6E000E306E22
:10014200FF0E266EFF0E276E000E286E000E296E21
:100152005A0E1A6E020E1B6E000E1C6E000E1D6EE3
:10016200AC8A900EAB6E948E949C9EAA03D0AECFB6
:0601720000F0FBD71200B3
:10017800720E316E020E326E3F0E336E000E346E0A
:10018800DE0E2D6E010E2E6E000E2F6E000E306EDE
:10019800FF0E266EFF0E276E000E286E000E296ECB
:1001A800020E1A6E020E1B6E000E1C6E000E1D6EE5
:1001B800728A900E716E938E939CA4AA03D074CF0A
:0601C80000F0FBD712005D
:1001CE000900F5CFE6FF0006FBE10106F9E112009A
:1001DE0074CF01F071A202D07198718801C000F045
:0201EE001200FD
:1001F000AECF01F0ABA202D0AB98AB8801C000F04B
:020200001200EA
:0A020200000E72B2010E006E120031
:10020C000F01396B3A6B939A949A93989498F28E57
:10021C00F28C9D8A9E9AA38AA49AB886B06ACF0E55
:10022C00AF6EAC8478DF7086766ACF0E756E728492
:10023C009DDF020E0B6E040E0C6EBA0E0D6E0D2EA3
:0E024C00FED70C2EFCD70B2EFAD700001200A6
:0A025A00000EACB2010E006E12009F
:0E026400ACB202D00000FCD73FC0ADFF1200CC
:0C02720072B201D0FDD73FC073FF120034
:10027E00C6DF829A819A2A6A2C6A1950010A51E1C4
:10028E001E503A0A38E123500D0A35E1818A256A5B
:10029E00800E2518006E800E060A005C0FE21E0E00
:1002AE00E96E000EEA6E2550E926000E25BEFF0E01
:1002BE00EA22EECF3FF0D6DF252AEAD79BDF0050A9
:1002CE00000A01E1FBD7819A256A800E2518006E7F
:1002DE00800E060A005C0DE21E0EE16E000EE26E4E
:1002EE002550E126000E25BEFF0EE222E66A252AE3
:1002FE00ECD7196A16D0256A800E2518006E800E6E
:10030E00050A005C0DE21E0EE16E000EE26E255037
:10031E00E126000E25BEFF0EE222E66A252AECD764
:10032E00196A2450010A51E136503A0A38E13B501D
:10033E000D0A35E1828A2B6A800E2B18006E800E14
:10034E00060A005C0FE2360EE96E000EEA6E2B50C6
:10035E00E926000E2BBEFF0EEA22EECF3FF07BDF2A
:10036E002B2AEAD773DF0050000A01E1FBD7829AED
:10037E002B6A800E2B18006E800E060A005C0DE2B2
:10038E00360EE16E000EE26E2B50E126000E2BBEF5
:10039E00FF0EE222E66A2B2AECD7246A16D02B6ACD
:1003AE00800E2B18006E800E050A005C0DE2360ED4
:1003BE00E16E000EE26E2B50E126000E2BBEFF0EFC
:0E03CE00E222E66A2B2AECD7246A57D7FFD723
:020000040030CA
:0D000100231F3CFFBF81FF0FC00FE00F4029
:00000001FF
